{
  "contractName": "GamePlay",
  "abi": [
    {
      "inputs": [
        {
          "internalType": "address",
          "name": "nftContractAddress",
          "type": "address"
        },
        {
          "internalType": "address",
          "name": "ftContractAddress",
          "type": "address"
        },
        {
          "internalType": "address",
          "name": "admin",
          "type": "address"
        }
      ],
      "stateMutability": "nonpayable",
      "type": "constructor"
    },
    {
      "anonymous": false,
      "inputs": [
        {
          "indexed": false,
          "internalType": "address",
          "name": "winner",
          "type": "address"
        },
        {
          "indexed": false,
          "internalType": "address",
          "name": "loser",
          "type": "address"
        },
        {
          "indexed": false,
          "internalType": "enum GamePlay.Status",
          "name": "status",
          "type": "uint8"
        }
      ],
      "name": "GameEnded",
      "type": "event"
    },
    {
      "anonymous": false,
      "inputs": [
        {
          "indexed": false,
          "internalType": "address",
          "name": "receiver",
          "type": "address"
        },
        {
          "indexed": false,
          "internalType": "bool",
          "name": "cardTobexposed",
          "type": "bool"
        },
        {
          "indexed": false,
          "internalType": "bool",
          "name": "exposeStat",
          "type": "bool"
        },
        {
          "indexed": false,
          "internalType": "uint256",
          "name": "gameRoomId",
          "type": "uint256"
        }
      ],
      "name": "PlayerTurn",
      "type": "event"
    },
    {
      "anonymous": false,
      "inputs": [
        {
          "indexed": false,
          "internalType": "address",
          "name": "to",
          "type": "address"
        },
        {
          "indexed": false,
          "internalType": "uint256",
          "name": "gameRoomId",
          "type": "uint256"
        }
      ],
      "name": "VerifyCards",
      "type": "event"
    },
    {
      "inputs": [
        {
          "internalType": "uint256",
          "name": "_modulus",
          "type": "uint256"
        }
      ],
      "name": "randMod",
      "outputs": [
        {
          "internalType": "uint256",
          "name": "",
          "type": "uint256"
        }
      ],
      "stateMutability": "nonpayable",
      "type": "function"
    },
    {
      "inputs": [
        {
          "internalType": "address",
          "name": "playerAddress",
          "type": "address"
        }
      ],
      "name": "getPlayerData",
      "outputs": [
        {
          "components": [
            {
              "internalType": "bytes32[]",
              "name": "encodedNfts",
              "type": "bytes32[]"
            },
            {
              "internalType": "address",
              "name": "walletAddress",
              "type": "address"
            },
            {
              "internalType": "uint256[]",
              "name": "exposedNfts",
              "type": "uint256[]"
            },
            {
              "internalType": "uint256",
              "name": "points",
              "type": "uint256"
            },
            {
              "internalType": "uint256",
              "name": "gameRoomId",
              "type": "uint256"
            },
            {
              "internalType": "bool",
              "name": "cardsVerified",
              "type": "bool"
            }
          ],
          "internalType": "struct GamePlay.Player",
          "name": "",
          "type": "tuple"
        }
      ],
      "stateMutability": "view",
      "type": "function",
      "constant": true
    },
    {
      "inputs": [
        {
          "internalType": "bytes32[]",
          "name": "encodedCards",
          "type": "bytes32[]"
        }
      ],
      "name": "registerPlayer",
      "outputs": [],
      "stateMutability": "nonpayable",
      "type": "function"
    },
    {
      "inputs": [
        {
          "internalType": "uint256",
          "name": "gameRoomId",
          "type": "uint256"
        },
        {
          "internalType": "address",
          "name": "playerAddress",
          "type": "address"
        }
      ],
      "name": "triggerEndMatch",
      "outputs": [],
      "stateMutability": "payable",
      "type": "function",
      "payable": true
    },
    {
      "inputs": [
        {
          "internalType": "uint256",
          "name": "gameRoomId",
          "type": "uint256"
        }
      ],
      "name": "checkMatchState",
      "outputs": [
        {
          "components": [
            {
              "internalType": "uint256",
              "name": "id",
              "type": "uint256"
            },
            {
              "internalType": "enum GamePlay.Status",
              "name": "status",
              "type": "uint8"
            },
            {
              "components": [
                {
                  "internalType": "bytes32[]",
                  "name": "encodedNfts",
                  "type": "bytes32[]"
                },
                {
                  "internalType": "address",
                  "name": "walletAddress",
                  "type": "address"
                },
                {
                  "internalType": "uint256[]",
                  "name": "exposedNfts",
                  "type": "uint256[]"
                },
                {
                  "internalType": "uint256",
                  "name": "points",
                  "type": "uint256"
                },
                {
                  "internalType": "uint256",
                  "name": "gameRoomId",
                  "type": "uint256"
                },
                {
                  "internalType": "bool",
                  "name": "cardsVerified",
                  "type": "bool"
                }
              ],
              "internalType": "struct GamePlay.Player",
              "name": "player1",
              "type": "tuple"
            },
            {
              "components": [
                {
                  "internalType": "bytes32[]",
                  "name": "encodedNfts",
                  "type": "bytes32[]"
                },
                {
                  "internalType": "address",
                  "name": "walletAddress",
                  "type": "address"
                },
                {
                  "internalType": "uint256[]",
                  "name": "exposedNfts",
                  "type": "uint256[]"
                },
                {
                  "internalType": "uint256",
                  "name": "points",
                  "type": "uint256"
                },
                {
                  "internalType": "uint256",
                  "name": "gameRoomId",
                  "type": "uint256"
                },
                {
                  "internalType": "bool",
                  "name": "cardsVerified",
                  "type": "bool"
                }
              ],
              "internalType": "struct GamePlay.Player",
              "name": "player2",
              "type": "tuple"
            },
            {
              "internalType": "address",
              "name": "winner",
              "type": "address"
            },
            {
              "internalType": "enum GamePlay.Stat",
              "name": "currentExposedStat",
              "type": "uint8"
            },
            {
              "internalType": "uint256",
              "name": "roundNo",
              "type": "uint256"
            },
            {
              "internalType": "uint256",
              "name": "totalRounds",
              "type": "uint256"
            },
            {
              "internalType": "enum GamePlay.RoundState",
              "name": "roundState",
              "type": "uint8"
            },
            {
              "components": [
                {
                  "internalType": "address",
                  "name": "player1",
                  "type": "address"
                },
                {
                  "internalType": "address",
                  "name": "player2",
                  "type": "address"
                },
                {
                  "internalType": "address",
                  "name": "winner",
                  "type": "address"
                },
                {
                  "internalType": "uint256",
                  "name": "player1Card",
                  "type": "uint256"
                },
                {
                  "internalType": "uint256",
                  "name": "player2Card",
                  "type": "uint256"
                },
                {
                  "internalType": "enum GamePlay.Stat",
                  "name": "exposedStat",
                  "type": "uint8"
                }
              ],
              "internalType": "struct GamePlay.RoundInfo[]",
              "name": "previousRoundInfo",
              "type": "tuple[]"
            }
          ],
          "internalType": "struct GamePlay.GameRoom",
          "name": "",
          "type": "tuple"
        }
      ],
      "stateMutability": "view",
      "type": "function",
      "constant": true
    },
    {
      "inputs": [
        {
          "internalType": "uint256",
          "name": "gameRoomId",
          "type": "uint256"
        },
        {
          "internalType": "uint256",
          "name": "blindingFactor",
          "type": "uint256"
        }
      ],
      "name": "verifyPlayerCards",
      "outputs": [
        {
          "internalType": "bool",
          "name": "",
          "type": "bool"
        }
      ],
      "stateMutability": "nonpayable",
      "type": "function"
    },
    {
      "inputs": [
        {
          "internalType": "uint256",
          "name": "cardTypeId",
          "type": "uint256"
        },
        {
          "internalType": "enum GamePlay.Stat",
          "name": "exposedStat",
          "type": "uint8"
        },
        {
          "internalType": "uint256",
          "name": "gameRoomId",
          "type": "uint256"
        }
      ],
      "name": "executeMove",
      "outputs": [],
      "stateMutability": "nonpayable",
      "type": "function"
    }
  ],
  "bytecode": "0x60806040526103e8600455600a60055560006006553480156200002157600080fd5b50604051620057fa380380620057fa8339818101604052810190620000479190620001bd565b826000806101000a81548173ffffffffffffffffffffffffffffffffffffffff021916908373ffffffffffffffffffffffffffffffffffffffff16021790555081600160006101000a81548173ffffffffffffffffffffffffffffffffffffffff021916908373ffffffffffffffffffffffffffffffffffffffff16021790555033600260006101000a81548173ffffffffffffffffffffffffffffffffffffffff021916908373ffffffffffffffffffffffffffffffffffffffff16021790555080600360006101000a81548173ffffffffffffffffffffffffffffffffffffffff021916908373ffffffffffffffffffffffffffffffffffffffff16021790555050505062000219565b600080fd5b600073ffffffffffffffffffffffffffffffffffffffff82169050919050565b6000620001858262000158565b9050919050565b620001978162000178565b8114620001a357600080fd5b50565b600081519050620001b7816200018c565b92915050565b600080600060608486031215620001d957620001d862000153565b5b6000620001e986828701620001a6565b9350506020620001fc86828701620001a6565b92505060406200020f86828701620001a6565b9150509250925092565b6155d180620002296000396000f3fe6080604052600436106100705760003560e01c8063805553e81161004e578063805553e814610104578063947c3a9214610141578063bc19b4531461017e578063be3b9cb11461019a57610070565b80630ea055c7146100755780632aa531d91461009e57806347f74cbd146100db575b600080fd5b34801561008157600080fd5b5061009c600480360381019061009791906143a0565b6101d7565b005b3480156100aa57600080fd5b506100c560048036038101906100c09190614451565b610c97565b6040516100d291906146be565b60405180910390f35b3480156100e757600080fd5b5061010260048036038101906100fd9190614745565b610e25565b005b34801561011057600080fd5b5061012b60048036038101906101269190614792565b611673565b60405161013891906147ce565b60405180910390f35b34801561014d57600080fd5b50610168600480360381019061016391906147e9565b6116cf565b6040516101759190614838565b60405180910390f35b61019860048036038101906101939190614853565b611c9f565b005b3480156101a657600080fd5b506101c160048036038101906101bc9190614792565b61223a565b6040516101ce9190614c3c565b60405180910390f35b600060068111156101eb576101ea614893565b5b60096000838152602001908152602001600020600e0160149054906101000a900460ff16600681111561022157610220614893565b5b0361038b5761022e613fc4565b6009600083815260200190815260200160002060120181908060018154018082558091505060019003906000526020600020906006020160009091909190915060008201518160000160006101000a81548173ffffffffffffffffffffffffffffffffffffffff021916908373ffffffffffffffffffffffffffffffffffffffff16021790555060208201518160010160006101000a81548173ffffffffffffffffffffffffffffffffffffffff021916908373ffffffffffffffffffffffffffffffffffffffff16021790555060408201518160020160006101000a81548173ffffffffffffffffffffffffffffffffffffffff021916908373ffffffffffffffffffffffffffffffffffffffff160217905550606082015181600301556080820151816004015560a08201518160050160006101000a81548160ff0219169083600681111561038257610381614893565b5b02179055505050505b6000600281111561039f5761039e614893565b5b6009600083815260200190815260200160002060110160009054906101000a900460ff1660028111156103d5576103d4614893565b5b0361057857336009600083815260200190815260200160002060120160096000848152602001908152602001600020600f01548154811061041957610418614c5e565b5b906000526020600020906006020160000160006101000a81548173ffffffffffffffffffffffffffffffffffffffff021916908373ffffffffffffffffffffffffffffffffffffffff160217905550826009600083815260200190815260200160002060120160096000848152602001908152602001600020600f0154815481106104a7576104a6614c5e565b5b906000526020600020906006020160030181905550816009600083815260200190815260200160002060120160096000848152602001908152602001600020600f0154815481106104fb576104fa614c5e565b5b906000526020600020906006020160050160006101000a81548160ff0219169083600681111561052e5761052d614893565b5b021790555060096000828152602001908152602001600020600201600201839080600181540180825580915050600190039060005260206000200160009091909190915055610762565b6001600281111561058c5761058b614893565b5b6009600083815260200190815260200160002060110160009054906101000a900460ff1660028111156105c2576105c1614893565b5b0361076157336009600083815260200190815260200160002060120160096000848152602001908152602001600020600f01548154811061060657610605614c5e565b5b906000526020600020906006020160010160006101000a81548173ffffffffffffffffffffffffffffffffffffffff021916908373ffffffffffffffffffffffffffffffffffffffff160217905550826009600083815260200190815260200160002060120160096000848152602001908152602001600020600f01548154811061069457610693614c5e565b5b906000526020600020906006020160040181905550816009600083815260200190815260200160002060120160096000848152602001908152602001600020600f0154815481106106e8576106e7614c5e565b5b906000526020600020906006020160050160006101000a81548160ff0219169083600681111561071b5761071a614893565b5b0217905550600960008281526020019081526020016000206008016002018390806001815401808255809150506001900390600052602060002001600090919091909150555b5b600a60003373ffffffffffffffffffffffffffffffffffffffff1673ffffffffffffffffffffffffffffffffffffffff168152602001908152602001600020600201839080600181540180825580915050600190039060005260206000200160009091909190915055600060068111156107df576107de614893565b5b60096000838152602001908152602001600020600e0160149054906101000a900460ff16600681111561081557610814614893565b5b03610a83578160096000838152602001908152602001600020600e0160146101000a81548160ff0219169083600681111561085357610852614893565b5b02179055507ffb925f38cdc96c279984870de36c6978101905710183cfe5309a4c5817b30c656000600281111561088d5761088c614893565b5b6009600084815260200190815260200160002060110160009054906101000a900460ff1660028111156108c3576108c2614893565b5b14610907576009600083815260200190815260200160002060020160010160009054906101000a900473ffffffffffffffffffffffffffffffffffffffff16610942565b6009600083815260200190815260200160002060080160010160009054906101000a900473ffffffffffffffffffffffffffffffffffffffff165b60016000846040516109579493929190614c9c565b60405180910390a16000600281111561097357610972614893565b5b6009600083815260200190815260200160002060110160009054906101000a900460ff1660028111156109a9576109a8614893565b5b036109f25760016009600083815260200190815260200160002060110160006101000a81548160ff021916908360028111156109e8576109e7614893565b5b0217905550610a82565b60016002811115610a0657610a05614893565b5b6009600083815260200190815260200160002060110160009054906101000a900460ff166002811115610a3c57610a3b614893565b5b03610a815760006009600083815260200190815260200160002060110160006101000a81548160ff02191690836002811115610a7b57610a7a614893565b5b02179055505b5b5b60006009600083815260200190815260200160002060120160096000848152602001908152602001600020600f015481548110610ac357610ac2614c5e565b5b90600052602060002090600602016003015414158015610b33575060006009600083815260200190815260200160002060120160096000848152602001908152602001600020600f015481548110610b1e57610b1d614c5e565b5b90600052602060002090600602016004015414155b8015610bdb5750600073ffffffffffffffffffffffffffffffffffffffff166009600083815260200190815260200160002060120160096000848152602001908152602001600020600f015481548110610b9057610b8f614c5e565b5b906000526020600020906006020160000160009054906101000a900473ffffffffffffffffffffffffffffffffffffffff1673ffffffffffffffffffffffffffffffffffffffff1614155b8015610c835750600073ffffffffffffffffffffffffffffffffffffffff166009600083815260200190815260200160002060120160096000848152602001908152602001600020600f015481548110610c3857610c37614c5e565b5b906000526020600020906006020160010160009054906101000a900473ffffffffffffffffffffffffffffffffffffffff1673ffffffffffffffffffffffffffffffffffffffff1614155b15610c9257610c91816127cf565b5b505050565b610c9f61404e565b600a60008373ffffffffffffffffffffffffffffffffffffffff1673ffffffffffffffffffffffffffffffffffffffff1681526020019081526020016000206040518060c001604052908160008201805480602002602001604051908101604052809291908181526020018280548015610d3857602002820191906000526020600020905b815481526020019060010190808311610d24575b505050505081526020016001820160009054906101000a900473ffffffffffffffffffffffffffffffffffffffff1673ffffffffffffffffffffffffffffffffffffffff1673ffffffffffffffffffffffffffffffffffffffff16815260200160028201805480602002602001604051908101604052809291908181526020018280548015610de657602002820191906000526020600020905b815481526020019060010190808311610dd2575b5050505050815260200160038201548152602001600482015481526020016005820160009054906101000a900460ff1615151515815250509050919050565b600560008054906101000a900473ffffffffffffffffffffffffffffffffffffffff1673ffffffffffffffffffffffffffffffffffffffff166370a08231336040518263ffffffff1660e01b8152600401610e809190614ce1565b602060405180830381865afa158015610e9d573d6000803e3d6000fd5b505050506040513d601f19601f82011682018060405250810190610ec19190614d11565b11610f01576040517f08c379a0000000000000000000000000000000000000000000000000000000008152600401610ef890614d9b565b60405180910390fd5b6103e8600160009054906101000a900473ffffffffffffffffffffffffffffffffffffffff1673ffffffffffffffffffffffffffffffffffffffff1663dd62ed3e33306040518363ffffffff1660e01b8152600401610f61929190614dbb565b602060405180830381865afa158015610f7e573d6000803e3d6000fd5b505050506040513d601f19601f82011682018060405250810190610fa29190614d11565b1015610fe3576040517f08c379a0000000000000000000000000000000000000000000000000000000008152600401610fda90614d9b565b60405180910390fd5b600160009054906101000a900473ffffffffffffffffffffffffffffffffffffffff1673ffffffffffffffffffffffffffffffffffffffff166323b872dd33306103e86040518463ffffffff1660e01b815260040161104493929190614e29565b6020604051808303816000875af1158015611063573d6000803e3d6000fd5b505050506040513d601f19601f820116820180604052508101906110879190614e8c565b5061109061404e565b33816020019073ffffffffffffffffffffffffffffffffffffffff16908173ffffffffffffffffffffffffffffffffffffffff16815250506110d28383613284565b816000018190525080600a60003373ffffffffffffffffffffffffffffffffffffffff1673ffffffffffffffffffffffffffffffffffffffff168152602001908152602001600020600082015181600001908051906020019061113692919061409c565b5060208201518160010160006101000a81548173ffffffffffffffffffffffffffffffffffffffff021916908373ffffffffffffffffffffffffffffffffffffffff160217905550604082015181600201908051906020019061119a9291906140e9565b50606082015181600301556080820151816004015560a08201518160050160006101000a81548160ff0219169083151502179055509050506000600854036113db57600760008154809291906111ef90614ee8565b919050555060075460088190555060075460096000600754815260200190815260200160002060000181905550600060096000600754815260200190815260200160002060010160006101000a81548160ff0219169083600281111561125857611257614893565b5b02179055506000600960006007548152602001908152602001600020600e0160146101000a81548160ff0219169083600681111561129957611298614893565b5b02179055508060096000600754815260200190815260200160002060020160008201518160000190805190602001906112d392919061409c565b5060208201518160010160006101000a81548173ffffffffffffffffffffffffffffffffffffffff021916908373ffffffffffffffffffffffffffffffffffffffff16021790555060408201518160020190805190602001906113379291906140e9565b50606082015181600301556080820151816004015560a08201518160050160006101000a81548160ff021916908315150217905550905050600560096000600754815260200190815260200160002060100181905550600754600a60003373ffffffffffffffffffffffffffffffffffffffff1673ffffffffffffffffffffffffffffffffffffffff1681526020019081526020016000206004018190555061166e565b80600960006008548152602001908152602001600020600801600082015181600001908051906020019061141092919061409c565b5060208201518160010160006101000a81548173ffffffffffffffffffffffffffffffffffffffff021916908373ffffffffffffffffffffffffffffffffffffffff16021790555060408201518160020190805190602001906114749291906140e9565b50606082015181600301556080820151816004015560a08201518160050160006101000a81548160ff021916908315150217905550905050600854600a60003373ffffffffffffffffffffffffffffffffffffffff1673ffffffffffffffffffffffffffffffffffffffff16815260200190815260200160002060040181905550600160096000600754815260200190815260200160002060010160006101000a81548160ff0219169083600281111561153157611530614893565b5b02179055506000806115436002611673565b1461154f576000611552565b60015b905080611560576001611563565b60005b60096000600854815260200190815260200160002060110160006101000a81548160ff0219169083600281111561159d5761159c614893565b5b02179055507ffb925f38cdc96c279984870de36c6978101905710183cfe5309a4c5817b30c65816116095760096000600854815260200190815260200160002060080160010160009054906101000a900473ffffffffffffffffffffffffffffffffffffffff16611646565b60096000600854815260200190815260200160002060020160010160009054906101000a900473ffffffffffffffffffffffffffffffffffffffff165b60018060085460405161165c9493929190614c9c565b60405180910390a16000600881905550505b505050565b60006006600081548092919061168890614ee8565b91905055508142336006546040516020016116a593929190614f99565b6040516020818303038152906040528051906020012060001c6116c89190615005565b9050919050565b6000806009600085815260200190815260200160002060020160010160009054906101000a900473ffffffffffffffffffffffffffffffffffffffff1673ffffffffffffffffffffffffffffffffffffffff163373ffffffffffffffffffffffffffffffffffffffff161490506000805b6009600087815260200190815260200160002060100154811015611c91576000805b600a60003373ffffffffffffffffffffffffffffffffffffffff1673ffffffffffffffffffffffffffffffffffffffff168152602001908152602001600020600001805490508110156118ed576000856117f557600960008a815260200190815260200160002060120184815481106117de576117dd614c5e565b5b906000526020600020906006020160040154611830565b600960008a8152602001908152602001600020601201848154811061181d5761181c614c5e565b5b9060005260206000209060060201600301545b9050600a60003373ffffffffffffffffffffffffffffffffffffffff1673ffffffffffffffffffffffffffffffffffffffff168152602001908152602001600020600001828154811061188657611885614c5e565b5b90600052602060002001548882336040516020016118a693929190615036565b60405160208183030381529060405280519060200120036118d9576001925084806118d090614ee8565b955050506118ed565b5080806118e590614ee8565b915050611762565b50600015158115150361198f57611982878561194257600960008a815260200190815260200160002060020160010160009054906101000a900473ffffffffffffffffffffffffffffffffffffffff1661197d565b600960008a815260200190815260200160002060080160010160009054906101000a900473ffffffffffffffffffffffffffffffffffffffff165b61340b565b6000945050505050611c99565b60096000888152602001908152602001600020601001548303611c7d5783156119e95760016009600089815260200190815260200160002060020160050160006101000a81548160ff021916908315150217905550611a1c565b60016009600089815260200190815260200160002060080160050160006101000a81548160ff0219169083151502179055505b60006009600089815260200190815260200160002060020160050160009054906101000a900460ff168015611a7457506009600089815260200190815260200160002060080160050160009054906101000a900460ff165b90508015611b8a576000600960008a815260200190815260200160002060080160030154600960008b8152602001908152602001600020600201600301541115611af957600960008a815260200190815260200160002060020160010160009054906101000a900473ffffffffffffffffffffffffffffffffffffffff169050611b7a565b600960008a815260200190815260200160002060080160030154600960008b8152602001908152602001600020600201600301541015611b7457600960008a815260200190815260200160002060080160010160009054906101000a900473ffffffffffffffffffffffffffffffffffffffff169050611b79565b600090505b5b611b84898261340b565b50611c7b565b8415611c07577fe9c47568e1b416d062662d0c71204572ab2b8ec70c4b425fdd9fe77774a055aa600960008a815260200190815260200160002060080160010160009054906101000a900473ffffffffffffffffffffffffffffffffffffffff1689604051611bfa929190615073565b60405180910390a1611c7a565b7fe9c47568e1b416d062662d0c71204572ab2b8ec70c4b425fdd9fe77774a055aa600960008a815260200190815260200160002060020160010160009054906101000a900473ffffffffffffffffffffffffffffffffffffffff1689604051611c71929190615073565b60405180910390a15b5b505b508080611c8990614ee8565b915050611740565b506001925050505b92915050565b6009600083815260200190815260200160002060020160010160009054906101000a900473ffffffffffffffffffffffffffffffffffffffff1673ffffffffffffffffffffffffffffffffffffffff168173ffffffffffffffffffffffffffffffffffffffff161480611d7657506009600083815260200190815260200160002060080160010160009054906101000a900473ffffffffffffffffffffffffffffffffffffffff1673ffffffffffffffffffffffffffffffffffffffff168173ffffffffffffffffffffffffffffffffffffffff16145b611db5576040517f08c379a0000000000000000000000000000000000000000000000000000000008152600401611dac90614d9b565b60405180910390fd5b60006002811115611dc957611dc8614893565b5b6009600084815260200190815260200160002060010160009054906101000a900460ff166002811115611dff57611dfe614893565b5b03611f6157600160009054906101000a900473ffffffffffffffffffffffffffffffffffffffff1673ffffffffffffffffffffffffffffffffffffffff1663a9059cbb826004546040518363ffffffff1660e01b8152600401611e63929190615073565b6020604051808303816000875af1158015611e82573d6000803e3d6000fd5b505050506040513d601f19601f82011682018060405250810190611ea69190614e8c565b50600a60008273ffffffffffffffffffffffffffffffffffffffff1673ffffffffffffffffffffffffffffffffffffffff16815260200190815260200160002060008082016000611ef79190614136565b6001820160006101000a81549073ffffffffffffffffffffffffffffffffffffffff0219169055600282016000611f2e9190614157565b600382016000905560048201600090556005820160006101000a81549060ff0219169055505060006008819055506120b1565b60016002811115611f7557611f74614893565b5b6009600084815260200190815260200160002060010160009054906101000a900460ff166002811115611fab57611faa614893565b5b036120b05760006009600084815260200190815260200160002060020160010160009054906101000a900473ffffffffffffffffffffffffffffffffffffffff1673ffffffffffffffffffffffffffffffffffffffff168273ffffffffffffffffffffffffffffffffffffffff16149050801561206a57612065836009600086815260200190815260200160002060080160010160009054906101000a900473ffffffffffffffffffffffffffffffffffffffff1661340b565b6120ae565b6120ad836009600086815260200190815260200160002060020160010160009054906101000a900473ffffffffffffffffffffffffffffffffffffffff1661340b565b5b505b5b600960008381526020019081526020016000206000808201600090556001820160006101000a81549060ff021916905560028201600080820160006120f69190614136565b6001820160006101000a81549073ffffffffffffffffffffffffffffffffffffffff021916905560028201600061212d9190614157565b600382016000905560048201600090556005820160006101000a81549060ff0219169055505060088201600080820160006121689190614136565b6001820160006101000a81549073ffffffffffffffffffffffffffffffffffffffff021916905560028201600061219f9190614157565b600382016000905560048201600090556005820160006101000a81549060ff02191690555050600e820160006101000a81549073ffffffffffffffffffffffffffffffffffffffff0219169055600e820160146101000a81549060ff0219169055600f82016000905560108201600090556011820160006101000a81549060ff02191690556012820160006122349190614178565b50505050565b61224261419c565b6009600083815260200190815260200160002060405180610140016040529081600082015481526020016001820160009054906101000a900460ff1660028111156122905761228f614893565b5b60028111156122a2576122a1614893565b5b8152602001600282016040518060c00160405290816000820180548060200260200160405190810160405280929190818152602001828054801561230557602002820191906000526020600020905b8154815260200190600101908083116122f1575b505050505081526020016001820160009054906101000a900473ffffffffffffffffffffffffffffffffffffffff1673ffffffffffffffffffffffffffffffffffffffff1673ffffffffffffffffffffffffffffffffffffffff168152602001600282018054806020026020016040519081016040528092919081815260200182805480156123b357602002820191906000526020600020905b81548152602001906001019080831161239f575b5050505050815260200160038201548152602001600482015481526020016005820160009054906101000a900460ff1615151515815250508152602001600882016040518060c00160405290816000820180548060200260200160405190810160405280929190818152602001828054801561244e57602002820191906000526020600020905b81548152602001906001019080831161243a575b505050505081526020016001820160009054906101000a900473ffffffffffffffffffffffffffffffffffffffff1673ffffffffffffffffffffffffffffffffffffffff1673ffffffffffffffffffffffffffffffffffffffff168152602001600282018054806020026020016040519081016040528092919081815260200182805480156124fc57602002820191906000526020600020905b8154815260200190600101908083116124e8575b5050505050815260200160038201548152602001600482015481526020016005820160009054906101000a900460ff1615151515815250508152602001600e820160009054906101000a900473ffffffffffffffffffffffffffffffffffffffff1673ffffffffffffffffffffffffffffffffffffffff1673ffffffffffffffffffffffffffffffffffffffff168152602001600e820160149054906101000a900460ff1660068111156125b3576125b2614893565b5b60068111156125c5576125c4614893565b5b8152602001600f8201548152602001601082015481526020016011820160009054906101000a900460ff16600281111561260257612601614893565b5b600281111561261457612613614893565b5b815260200160128201805480602002602001604051908101604052809291908181526020016000905b828210156127c057838290600052602060002090600602016040518060c00160405290816000820160009054906101000a900473ffffffffffffffffffffffffffffffffffffffff1673ffffffffffffffffffffffffffffffffffffffff1673ffffffffffffffffffffffffffffffffffffffff1681526020016001820160009054906101000a900473ffffffffffffffffffffffffffffffffffffffff1673ffffffffffffffffffffffffffffffffffffffff1673ffffffffffffffffffffffffffffffffffffffff1681526020016002820160009054906101000a900473ffffffffffffffffffffffffffffffffffffffff1673ffffffffffffffffffffffffffffffffffffffff1673ffffffffffffffffffffffffffffffffffffffff16815260200160038201548152602001600482015481526020016005820160009054906101000a900460ff16600681111561279b5761279a614893565b5b60068111156127ad576127ac614893565b5b815250508152602001906001019061263d565b50505050815250509050919050565b60006009600083815260200190815260200160002060120160096000848152602001908152602001600020600f01548154811061280f5761280e614c5e565b5b90600052602060002090600602016040518060c00160405290816000820160009054906101000a900473ffffffffffffffffffffffffffffffffffffffff1673ffffffffffffffffffffffffffffffffffffffff1673ffffffffffffffffffffffffffffffffffffffff1681526020016001820160009054906101000a900473ffffffffffffffffffffffffffffffffffffffff1673ffffffffffffffffffffffffffffffffffffffff1673ffffffffffffffffffffffffffffffffffffffff1681526020016002820160009054906101000a900473ffffffffffffffffffffffffffffffffffffffff1673ffffffffffffffffffffffffffffffffffffffff1673ffffffffffffffffffffffffffffffffffffffff16815260200160038201548152602001600482015481526020016005820160009054906101000a900460ff16600681111561296357612962614893565b5b600681111561297557612974614893565b5b81525050905060008060009054906101000a900473ffffffffffffffffffffffffffffffffffffffff1673ffffffffffffffffffffffffffffffffffffffff166348d2ab9283606001516040518263ffffffff1660e01b81526004016129db91906147ce565b600060405180830381865afa1580156129f8573d6000803e3d6000fd5b505050506040513d6000823e3d601f19601f82011682018060405250810190612a219190615424565b905060008060009054906101000a900473ffffffffffffffffffffffffffffffffffffffff1673ffffffffffffffffffffffffffffffffffffffff166348d2ab9284608001516040518263ffffffff1660e01b8152600401612a8391906147ce565b600060405180830381865afa158015612aa0573d6000803e3d6000fd5b505050506040513d6000823e3d601f19601f82011682018060405250810190612ac99190615424565b9050612af860096000868152602001908152602001600020600e0160149054906101000a900460ff1682613e66565b612b2560096000878152602001908152602001600020600e0160149054906101000a900460ff1684613e66565b03612cf357600a6000846000015173ffffffffffffffffffffffffffffffffffffffff1673ffffffffffffffffffffffffffffffffffffffff1681526020019081526020016000206003016000815480929190612b8190614ee8565b9190505550600a6000846020015173ffffffffffffffffffffffffffffffffffffffff1673ffffffffffffffffffffffffffffffffffffffff1681526020019081526020016000206003016000815480929190612bdd90614ee8565b9190505550600960008581526020019081526020016000206002016003016000815480929190612c0c90614ee8565b9190505550600960008581526020019081526020016000206008016003016000815480929190612c3b90614ee8565b91905055506000612c4c6002611673565b14612c5b578260200151612c61565b82600001515b6009600086815260200190815260200160002060120160096000878152602001908152602001600020600f015481548110612c9f57612c9e614c5e565b5b906000526020600020906006020160020160006101000a81548173ffffffffffffffffffffffffffffffffffffffff021916908373ffffffffffffffffffffffffffffffffffffffff160217905550612f94565b612d2060096000868152602001908152602001600020600e0160149054906101000a900460ff1682613e66565b612d4d60096000878152602001908152602001600020600e0160149054906101000a900460ff1684613e66565b1115612e7557600a6000846000015173ffffffffffffffffffffffffffffffffffffffff1673ffffffffffffffffffffffffffffffffffffffff1681526020019081526020016000206003016000815480929190612daa90614ee8565b9190505550600960008581526020019081526020016000206002016003016000815480929190612dd990614ee8565b919050555082600001516009600086815260200190815260200160002060120160096000878152602001908152602001600020600f015481548110612e2157612e20614c5e565b5b906000526020600020906006020160020160006101000a81548173ffffffffffffffffffffffffffffffffffffffff021916908373ffffffffffffffffffffffffffffffffffffffff160217905550612f93565b600a6000846020015173ffffffffffffffffffffffffffffffffffffffff1673ffffffffffffffffffffffffffffffffffffffff1681526020019081526020016000206003016000815480929190612ecc90614ee8565b9190505550600960008581526020019081526020016000206008016003016000815480929190612efb90614ee8565b919050555082602001516009600086815260200190815260200160002060120160096000878152602001908152602001600020600f015481548110612f4357612f42614c5e565b5b906000526020600020906006020160020160006101000a81548173ffffffffffffffffffffffffffffffffffffffff021916908373ffffffffffffffffffffffffffffffffffffffff1602179055505b5b60016009600086815260200190815260200160002060100154612fb7919061546d565b60096000868152602001908152602001600020600f0154036130ae57600080612fe06002611673565b14612fec576000612fef565b60015b90507fe9c47568e1b416d062662d0c71204572ab2b8ec70c4b425fdd9fe77774a055aa81613056576009600087815260200190815260200160002060080160010160009054906101000a900473ffffffffffffffffffffffffffffffffffffffff16613091565b6009600087815260200190815260200160002060020160010160009054906101000a900473ffffffffffffffffffffffffffffffffffffffff165b866040516130a0929190615073565b60405180910390a150613213565b6009600085815260200190815260200160002060020160010160009054906101000a900473ffffffffffffffffffffffffffffffffffffffff1673ffffffffffffffffffffffffffffffffffffffff166009600086815260200190815260200160002060120160096000878152602001908152602001600020600f01548154811061313c5761313b614c5e565b5b906000526020600020906006020160020160009054906101000a900473ffffffffffffffffffffffffffffffffffffffff1673ffffffffffffffffffffffffffffffffffffffff1614613190576001613193565b60005b6009600086815260200190815260200160002060110160006101000a81548160ff021916908360028111156131cb576131ca614893565b5b02179055507ffb925f38cdc96c279984870de36c6978101905710183cfe5309a4c5817b30c6583604001516001808760405161320a9493929190614c9c565b60405180910390a15b600060096000868152602001908152602001600020600e0160146101000a81548160ff0219169083600681111561324d5761324c614893565b5b021790555060096000858152602001908152602001600020600f01600081548092919061327990614ee8565b919050555050505050565b60606000600567ffffffffffffffff8111156132a3576132a26150b2565b5b6040519080825280602002602001820160405280156132d15781602001602082028036833780820191505090505b5090506000848480806020026020016040519081016040528093929190818152602001838360200280828437600081840152601f19601f8201169050808301925050505050505090506000805b60058110156133fe5760006133338451611673565b90506000801b84828151811061334c5761334b614c5e565b5b60200260200101510361338e57600a83101561338357818061336d906154a1565b925050828061337b90614ee8565b935050613389565b506133fe565b6133ea565b8787828181106133a1576133a0614c5e565b5b905060200201358583815181106133bb576133ba614c5e565b5b6020026020010181815250508381815181106133da576133d9614c5e565b5b6020026020010160008019168152505b5080806133f690614ee8565b91505061331e565b5082935050505092915050565b60006064600554600454600261342191906154ca565b61342b91906154ca565b6134359190615524565b9050600081600454600261344991906154ca565b613453919061546d565b9050600073ffffffffffffffffffffffffffffffffffffffff168373ffffffffffffffffffffffffffffffffffffffff160361365a57600160009054906101000a900473ffffffffffffffffffffffffffffffffffffffff1673ffffffffffffffffffffffffffffffffffffffff1663a9059cbb6009600087815260200190815260200160002060020160010160009054906101000a900473ffffffffffffffffffffffffffffffffffffffff1660028461350e9190615524565b6040518363ffffffff1660e01b815260040161352b929190615073565b6020604051808303816000875af115801561354a573d6000803e3d6000fd5b505050506040513d601f19601f8201168201806040525081019061356e9190614e8c565b50600160009054906101000a900473ffffffffffffffffffffffffffffffffffffffff1673ffffffffffffffffffffffffffffffffffffffff1663a9059cbb6009600087815260200190815260200160002060080160010160009054906101000a900473ffffffffffffffffffffffffffffffffffffffff166002846135f49190615524565b6040518363ffffffff1660e01b8152600401613611929190615073565b6020604051808303816000875af1158015613630573d6000803e3d6000fd5b505050506040513d601f19601f820116820180604052508101906136549190614e8c565b506136fc565b600160009054906101000a900473ffffffffffffffffffffffffffffffffffffffff1673ffffffffffffffffffffffffffffffffffffffff1663a9059cbb84836040518363ffffffff1660e01b81526004016136b7929190615073565b6020604051808303816000875af11580156136d6573d6000803e3d6000fd5b505050506040513d601f19601f820116820180604052508101906136fa9190614e8c565b505b600160009054906101000a900473ffffffffffffffffffffffffffffffffffffffff1673ffffffffffffffffffffffffffffffffffffffff1663a9059cbb600360009054906101000a900473ffffffffffffffffffffffffffffffffffffffff16846040518363ffffffff1660e01b815260040161377b929190615073565b6020604051808303816000875af115801561379a573d6000803e3d6000fd5b505050506040513d601f19601f820116820180604052508101906137be9190614e8c565b5060026009600086815260200190815260200160002060010160006101000a81548160ff021916908360028111156137f9576137f8614893565b5b021790555060026009600086815260200190815260200160002060110160006101000a81548160ff0219169083600281111561383857613837614893565b5b02179055508260096000868152602001908152602001600020600e0160006101000a81548173ffffffffffffffffffffffffffffffffffffffff021916908373ffffffffffffffffffffffffffffffffffffffff160217905550600a60006009600087815260200190815260200160002060020160010160009054906101000a900473ffffffffffffffffffffffffffffffffffffffff1673ffffffffffffffffffffffffffffffffffffffff1673ffffffffffffffffffffffffffffffffffffffff1681526020019081526020016000206000808201600061391b9190614136565b6001820160006101000a81549073ffffffffffffffffffffffffffffffffffffffff02191690556002820160006139529190614157565b600382016000905560048201600090556005820160006101000a81549060ff02191690555050600a60006009600087815260200190815260200160002060080160010160009054906101000a900473ffffffffffffffffffffffffffffffffffffffff1673ffffffffffffffffffffffffffffffffffffffff1673ffffffffffffffffffffffffffffffffffffffff16815260200190815260200160002060008082016000613a019190614136565b6001820160006101000a81549073ffffffffffffffffffffffffffffffffffffffff0219169055600282016000613a389190614157565b600382016000905560048201600090556005820160006101000a81549060ff02191690555050600073ffffffffffffffffffffffffffffffffffffffff168373ffffffffffffffffffffffffffffffffffffffff1603613c37577f709c98d9df6afff195c798e7a5ad5909248bbe0d828f7c6f8f19154061f2caeb6009600086815260200190815260200160002060020160010160009054906101000a900473ffffffffffffffffffffffffffffffffffffffff166009600087815260200190815260200160002060020160010160009054906101000a900473ffffffffffffffffffffffffffffffffffffffff166009600088815260200190815260200160002060010160009054906101000a900460ff16604051613b5a93929190615564565b60405180910390a17f709c98d9df6afff195c798e7a5ad5909248bbe0d828f7c6f8f19154061f2caeb6009600086815260200190815260200160002060080160010160009054906101000a900473ffffffffffffffffffffffffffffffffffffffff166009600087815260200190815260200160002060080160010160009054906101000a900473ffffffffffffffffffffffffffffffffffffffff166009600088815260200190815260200160002060010160009054906101000a900460ff16604051613c2a93929190615564565b60405180910390a1613e60565b7f709c98d9df6afff195c798e7a5ad5909248bbe0d828f7c6f8f19154061f2caeb6009600086815260200190815260200160002060020160010160009054906101000a900473ffffffffffffffffffffffffffffffffffffffff1673ffffffffffffffffffffffffffffffffffffffff168473ffffffffffffffffffffffffffffffffffffffff1614613d03576009600086815260200190815260200160002060080160010160009054906101000a900473ffffffffffffffffffffffffffffffffffffffff16613d3e565b6009600086815260200190815260200160002060020160010160009054906101000a900473ffffffffffffffffffffffffffffffffffffffff165b6009600087815260200190815260200160002060020160010160009054906101000a900473ffffffffffffffffffffffffffffffffffffffff1673ffffffffffffffffffffffffffffffffffffffff168573ffffffffffffffffffffffffffffffffffffffff1614613de9576009600087815260200190815260200160002060020160010160009054906101000a900473ffffffffffffffffffffffffffffffffffffffff16613e24565b6009600087815260200190815260200160002060080160010160009054906101000a900473ffffffffffffffffffffffffffffffffffffffff165b6009600088815260200190815260200160002060010160009054906101000a900460ff16604051613e5793929190615564565b60405180910390a15b50505050565b600060016006811115613e7c57613e7b614893565b5b836006811115613e8f57613e8e614893565b5b03613ea05781608001519050613fbe565b60026006811115613eb457613eb3614893565b5b836006811115613ec757613ec6614893565b5b03613ed8578160a001519050613fbe565b60036006811115613eec57613eeb614893565b5b836006811115613eff57613efe614893565b5b03613f10578160c001519050613fbe565b60046006811115613f2457613f23614893565b5b836006811115613f3757613f36614893565b5b03613f48578160e001519050613fbe565b60056006811115613f5c57613f5b614893565b5b836006811115613f6f57613f6e614893565b5b03613f81578161010001519050613fbe565b600680811115613f9457613f93614893565b5b836006811115613fa757613fa6614893565b5b03613fb9578161012001519050613fbe565b600090505b92915050565b6040518060c00160405280600073ffffffffffffffffffffffffffffffffffffffff168152602001600073ffffffffffffffffffffffffffffffffffffffff168152602001600073ffffffffffffffffffffffffffffffffffffffff16815260200160008152602001600081526020016000600681111561404857614047614893565b5b81525090565b6040518060c0016040528060608152602001600073ffffffffffffffffffffffffffffffffffffffff1681526020016060815260200160008152602001600081526020016000151581525090565b8280548282559060005260206000209081019282156140d8579160200282015b828111156140d75782518255916020019190600101906140bc565b5b5090506140e59190614247565b5090565b828054828255906000526020600020908101928215614125579160200282015b82811115614124578251825591602001919060010190614109565b5b5090506141329190614264565b5090565b50805460008255906000526020600020908101906141549190614247565b50565b50805460008255906000526020600020908101906141759190614264565b50565b50805460008255600602906000526020600020908101906141999190614281565b50565b60405180610140016040528060008152602001600060028111156141c3576141c2614893565b5b81526020016141d061404e565b81526020016141dd61404e565b8152602001600073ffffffffffffffffffffffffffffffffffffffff1681526020016000600681111561421357614212614893565b5b815260200160008152602001600081526020016000600281111561423a57614239614893565b5b8152602001606081525090565b5b80821115614260576000816000905550600101614248565b5090565b5b8082111561427d576000816000905550600101614265565b5090565b5b8082111561432d57600080820160006101000a81549073ffffffffffffffffffffffffffffffffffffffff02191690556001820160006101000a81549073ffffffffffffffffffffffffffffffffffffffff02191690556002820160006101000a81549073ffffffffffffffffffffffffffffffffffffffff0219169055600382016000905560048201600090556005820160006101000a81549060ff021916905550600601614282565b5090565b6000604051905090565b600080fd5b600080fd5b6000819050919050565b61435881614345565b811461436357600080fd5b50565b6000813590506143758161434f565b92915050565b6007811061438857600080fd5b50565b60008135905061439a8161437b565b92915050565b6000806000606084860312156143b9576143b861433b565b5b60006143c786828701614366565b93505060206143d88682870161438b565b92505060406143e986828701614366565b9150509250925092565b600073ffffffffffffffffffffffffffffffffffffffff82169050919050565b600061441e826143f3565b9050919050565b61442e81614413565b811461443957600080fd5b50565b60008135905061444b81614425565b92915050565b6000602082840312156144675761446661433b565b5b60006144758482850161443c565b91505092915050565b600081519050919050565b600082825260208201905092915050565b6000819050602082019050919050565b6000819050919050565b6144bd816144aa565b82525050565b60006144cf83836144b4565b60208301905092915050565b6000602082019050919050565b60006144f38261447e565b6144fd8185614489565b93506145088361449a565b8060005b8381101561453957815161452088826144c3565b975061452b836144db565b92505060018101905061450c565b5085935050505092915050565b61454f81614413565b82525050565b600081519050919050565b600082825260208201905092915050565b6000819050602082019050919050565b61458a81614345565b82525050565b600061459c8383614581565b60208301905092915050565b6000602082019050919050565b60006145c082614555565b6145ca8185614560565b93506145d583614571565b8060005b838110156146065781516145ed8882614590565b97506145f8836145a8565b9250506001810190506145d9565b5085935050505092915050565b60008115159050919050565b61462881614613565b82525050565b600060c083016000830151848203600086015261464b82826144e8565b91505060208301516146606020860182614546565b506040830151848203604086015261467882826145b5565b915050606083015161468d6060860182614581565b5060808301516146a06080860182614581565b5060a08301516146b360a086018261461f565b508091505092915050565b600060208201905081810360008301526146d8818461462e565b905092915050565b600080fd5b600080fd5b600080fd5b60008083601f840112614705576147046146e0565b5b8235905067ffffffffffffffff811115614722576147216146e5565b5b60208301915083602082028301111561473e5761473d6146ea565b5b9250929050565b6000806020838503121561475c5761475b61433b565b5b600083013567ffffffffffffffff81111561477a57614779614340565b5b614786858286016146ef565b92509250509250929050565b6000602082840312156147a8576147a761433b565b5b60006147b684828501614366565b91505092915050565b6147c881614345565b82525050565b60006020820190506147e360008301846147bf565b92915050565b60008060408385031215614800576147ff61433b565b5b600061480e85828601614366565b925050602061481f85828601614366565b9150509250929050565b61483281614613565b82525050565b600060208201905061484d6000830184614829565b92915050565b6000806040838503121561486a5761486961433b565b5b600061487885828601614366565b92505060206148898582860161443c565b9150509250929050565b7f4e487b7100000000000000000000000000000000000000000000000000000000600052602160045260246000fd5b600381106148d3576148d2614893565b5b50565b60008190506148e4826148c2565b919050565b60006148f4826148d6565b9050919050565b614904816148e9565b82525050565b600060c083016000830151848203600086015261492782826144e8565b915050602083015161493c6020860182614546565b506040830151848203604086015261495482826145b5565b91505060608301516149696060860182614581565b50608083015161497c6080860182614581565b5060a083015161498f60a086018261461f565b508091505092915050565b600781106149ab576149aa614893565b5b50565b60008190506149bc8261499a565b919050565b60006149cc826149ae565b9050919050565b6149dc816149c1565b82525050565b600381106149f3576149f2614893565b5b50565b6000819050614a04826149e2565b919050565b6000614a14826149f6565b9050919050565b614a2481614a09565b82525050565b600081519050919050565b600082825260208201905092915050565b6000819050602082019050919050565b60c082016000820151614a6c6000850182614546565b506020820151614a7f6020850182614546565b506040820151614a926040850182614546565b506060820151614aa56060850182614581565b506080820151614ab86080850182614581565b5060a0820151614acb60a08501826149d3565b50505050565b6000614add8383614a56565b60c08301905092915050565b6000602082019050919050565b6000614b0182614a2a565b614b0b8185614a35565b9350614b1683614a46565b8060005b83811015614b47578151614b2e8882614ad1565b9750614b3983614ae9565b925050600181019050614b1a565b5085935050505092915050565b600061014083016000830151614b6d6000860182614581565b506020830151614b8060208601826148fb565b5060408301518482036040860152614b98828261490a565b91505060608301518482036060860152614bb2828261490a565b9150506080830151614bc76080860182614546565b5060a0830151614bda60a08601826149d3565b5060c0830151614bed60c0860182614581565b5060e0830151614c0060e0860182614581565b50610100830151614c15610100860182614a1b565b50610120830151848203610120860152614c2f8282614af6565b9150508091505092915050565b60006020820190508181036000830152614c568184614b54565b905092915050565b7f4e487b7100000000000000000000000000000000000000000000000000000000600052603260045260246000fd5b614c9681614413565b82525050565b6000608082019050614cb16000830187614c8d565b614cbe6020830186614829565b614ccb6040830185614829565b614cd860608301846147bf565b95945050505050565b6000602082019050614cf66000830184614c8d565b92915050565b600081519050614d0b8161434f565b92915050565b600060208284031215614d2757614d2661433b565b5b6000614d3584828501614cfc565b91505092915050565b600082825260208201905092915050565b7f4e6d000000000000000000000000000000000000000000000000000000000000600082015250565b6000614d85600283614d3e565b9150614d9082614d4f565b602082019050919050565b60006020820190508181036000830152614db481614d78565b9050919050565b6000604082019050614dd06000830185614c8d565b614ddd6020830184614c8d565b9392505050565b6000819050919050565b6000819050919050565b6000614e13614e0e614e0984614de4565b614dee565b614345565b9050919050565b614e2381614df8565b82525050565b6000606082019050614e3e6000830186614c8d565b614e4b6020830185614c8d565b614e586040830184614e1a565b949350505050565b614e6981614613565b8114614e7457600080fd5b50565b600081519050614e8681614e60565b92915050565b600060208284031215614ea257614ea161433b565b5b6000614eb084828501614e77565b91505092915050565b7f4e487b7100000000000000000000000000000000000000000000000000000000600052601160045260246000fd5b6000614ef382614345565b91507fffffffffffffffffffffffffffffffffffffffffffffffffffffffffffffffff8203614f2557614f24614eb9565b5b600182019050919050565b6000819050919050565b614f4b614f4682614345565b614f30565b82525050565b60008160601b9050919050565b6000614f6982614f51565b9050919050565b6000614f7b82614f5e565b9050919050565b614f93614f8e82614413565b614f70565b82525050565b6000614fa58286614f3a565b602082019150614fb58285614f82565b601482019150614fc58284614f3a565b602082019150819050949350505050565b7f4e487b7100000000000000000000000000000000000000000000000000000000600052601260045260246000fd5b600061501082614345565b915061501b83614345565b92508261502b5761502a614fd6565b5b828206905092915050565b60006150428286614f3a565b6020820191506150528285614f3a565b6020820191506150628284614f82565b601482019150819050949350505050565b60006040820190506150886000830185614c8d565b61509560208301846147bf565b9392505050565b600080fd5b6000601f19601f8301169050919050565b7f4e487b7100000000000000000000000000000000000000000000000000000000600052604160045260246000fd5b6150ea826150a1565b810181811067ffffffffffffffff82111715615109576151086150b2565b5b80604052505050565b600061511c614331565b905061512882826150e1565b919050565b600080fd5b600080fd5b600067ffffffffffffffff821115615152576151516150b2565b5b61515b826150a1565b9050602081019050919050565b60005b8381101561518657808201518184015260208101905061516b565b83811115615195576000848401525b50505050565b60006151ae6151a984615137565b615112565b9050828152602081018484840111156151ca576151c9615132565b5b6151d5848285615168565b509392505050565b600082601f8301126151f2576151f16146e0565b5b815161520284826020860161519b565b91505092915050565b600067ffffffffffffffff821115615226576152256150b2565b5b602082029050919050565b600061524461523f8461520b565b615112565b9050806020840283018581111561525e5761525d6146ea565b5b835b818110156152a557805167ffffffffffffffff811115615283576152826146e0565b5b80860161529089826151dd565b85526020850194505050602081019050615260565b5050509392505050565b600082601f8301126152c4576152c36146e0565b5b60026152d1848285615231565b91505092915050565b600061014082840312156152f1576152f061509c565b5b6152fc610140615112565b9050600061530c84828501614cfc565b600083015250602082015167ffffffffffffffff8111156153305761532f61512d565b5b61533c848285016151dd565b602083015250604082015167ffffffffffffffff8111156153605761535f61512d565b5b61536c848285016152af565b604083015250606082015167ffffffffffffffff8111156153905761538f61512d565b5b61539c848285016151dd565b60608301525060806153b084828501614cfc565b60808301525060a06153c484828501614cfc565b60a08301525060c06153d884828501614cfc565b60c08301525060e06153ec84828501614cfc565b60e08301525061010061540184828501614cfc565b6101008301525061012061541784828501614cfc565b6101208301525092915050565b60006020828403121561543a5761543961433b565b5b600082015167ffffffffffffffff81111561545857615457614340565b5b615464848285016152da565b91505092915050565b600061547882614345565b915061548383614345565b92508282101561549657615495614eb9565b5b828203905092915050565b60006154ac82614345565b9150600082036154bf576154be614eb9565b5b600182039050919050565b60006154d582614345565b91506154e083614345565b9250817fffffffffffffffffffffffffffffffffffffffffffffffffffffffffffffffff048311821515161561551957615518614eb9565b5b828202905092915050565b600061552f82614345565b915061553a83614345565b92508261554a57615549614fd6565b5b828204905092915050565b61555e816148e9565b82525050565b60006060820190506155796000830186614c8d565b6155866020830185614c8d565b6155936040830184615555565b94935050505056fea2646970667358221220b2fc69333cadd7d76f0beda12483e098df56669cf2cf4415c08e309535c4ba0964736f6c634300080f0033",
  "immutableReferences": {},
  "source": "// SPDX-License-Identifier: MIT\npragma solidity ^0.8.0;\n\ninterface NowggFTInterface {\n    function allowance(address owner, address spender)\n        external\n        view\n        returns (uint256);\n\n    function transferFrom(\n        address from,\n        address to,\n        uint256 amount\n    ) external returns (bool);\n\n    function transfer(address to, uint256 amount) external returns (bool);\n}\n\ninterface NowggNFTInterface {\n    struct Pokemon {\n        uint256 id;\n        string name;\n        string[2] pokemonType;\n        string image;\n        uint256 hp;\n        uint256 attack;\n        uint256 defense;\n        uint256 spAttack;\n        uint256 spDefense;\n        uint256 speed;\n    }\n\n    function getPokemonMetaData(uint256 token)\n        external\n        view\n        returns (Pokemon memory);\n\n    function ownerOf(uint256 token) external view returns (address);\n\n    function balanceOf(address user) external view returns (uint256);\n}\n\ncontract GamePlay {\n    NowggNFTInterface nowggNftContract;\n    NowggFTInterface nowggFtContract;\n    address private owner;\n    address adminAddress;\n    uint256 entryFees = 1000;\n    uint256 platformFeesPercent = 10;\n\n    constructor(\n        address nftContractAddress,\n        address ftContractAddress,\n        address admin\n    ) {\n        nowggNftContract = NowggNFTInterface(nftContractAddress);\n        nowggFtContract = NowggFTInterface(ftContractAddress);\n        owner = msg.sender;\n        adminAddress = admin;\n    }\n\n    struct Player {\n        bytes32[] encodedNfts;\n        address walletAddress;\n        uint256[] exposedNfts;\n        uint256 points;\n        uint256 gameRoomId;\n        bool cardsVerified;\n    }\n\n    enum Status {\n        WAITING,\n        LIVE,\n        COMPLETED\n    }\n\n    // define enum of  status\n    enum Stat {\n        NULL,\n        HP,\n        ATTACK,\n        DEFENSE,\n        SP_ATTACK,\n        SP_DEFENSE,\n        SPEED\n    }\n\n    enum RoundState {\n        Player1Turn,\n        Player2Turn,\n        ResultDeclared\n    }\n\n    // function to generate random number (to be changed later for better security)\n    uint256 randNonce = 0;\n\n    function randMod(uint256 _modulus) public returns (uint256) {\n        randNonce++;\n        return\n            uint256(\n                keccak256(\n                    abi.encodePacked(block.timestamp, msg.sender, randNonce)\n                )\n            ) % _modulus;\n    }\n\n    struct RoundInfo {\n        address player1;\n        address player2;\n        address winner;\n        uint256 player1Card;\n        uint256 player2Card;\n        Stat exposedStat;\n    }\n\n    struct GameRoom {\n        uint256 id;\n        Status status;\n        Player player1;\n        Player player2;\n        address winner;\n        Stat currentExposedStat;\n        uint256 roundNo;\n        uint256 totalRounds;\n        RoundState roundState;\n        RoundInfo[] previousRoundInfo;\n    }\n\n    uint256 private gameRoomCount;\n    uint256 private waitingGameRoomId;\n\n    mapping(uint256 => GameRoom) private gameRoomMap;\n    mapping(address => Player) private playerMap;\n\n    function getPlayerData(address playerAddress)\n        public\n        view\n        returns (Player memory)\n    {\n        return playerMap[playerAddress];\n    }\n\n    function _selectRandomCards(bytes32[] calldata cards)\n        internal\n        returns (bytes32[] memory)\n    {\n        bytes32[] memory selectedCards = new bytes32[](5);\n        bytes32[] memory userCards = cards;\n        uint256 backTrackCount = 0;\n        for (uint256 i = 0; i < 5; i++) {\n            uint256 selectedCardIndex = randMod(userCards.length);\n            if (userCards[selectedCardIndex] == bytes32(0x00)) {\n                if (backTrackCount < 10) {\n                    i--;\n                    backTrackCount++;\n                } else break;\n            } else {\n                selectedCards[i] = cards[selectedCardIndex];\n                delete userCards[selectedCardIndex];\n            }\n        }\n        return selectedCards;\n    }\n\n    event PlayerTurn(\n        address receiver,\n        bool cardTobexposed,\n        bool exposeStat,\n        uint256 gameRoomId\n    );\n\n    function registerPlayer(bytes32[] calldata encodedCards) public {\n        // do various validations\n        require(nowggNftContract.balanceOf(msg.sender) > 5, \"Nm\");\n        require(\n            nowggFtContract.allowance(msg.sender, address(this)) >= 1000,\n            \"Nm\"\n        );\n        nowggFtContract.transferFrom(msg.sender, address(this), 1000);\n        // register player\n        Player memory _player;\n        _player.walletAddress = msg.sender;\n        // select random cards and save them in encoded form\n        _player.encodedNfts = _selectRandomCards(encodedCards);\n        playerMap[msg.sender] = _player;\n        // initialise game room\n        if (waitingGameRoomId == 0) {\n            gameRoomCount++;\n            waitingGameRoomId = gameRoomCount;\n            gameRoomMap[gameRoomCount].id = gameRoomCount;\n            gameRoomMap[gameRoomCount].status = Status.WAITING;\n            gameRoomMap[gameRoomCount].currentExposedStat = Stat.NULL;\n            gameRoomMap[gameRoomCount].player1 = _player;\n            gameRoomMap[gameRoomCount].totalRounds = 5;\n            playerMap[msg.sender].gameRoomId = gameRoomCount;\n        } else {\n            gameRoomMap[waitingGameRoomId].player2 = _player;\n            playerMap[msg.sender].gameRoomId = waitingGameRoomId;\n            gameRoomMap[gameRoomCount].status = Status.LIVE;\n            bool player1Turn = (randMod(2) == 0) ? true : false;\n            gameRoomMap[waitingGameRoomId].roundState = player1Turn\n                ? RoundState.Player1Turn\n                : RoundState.Player2Turn;\n            emit PlayerTurn(\n                player1Turn\n                    ? gameRoomMap[waitingGameRoomId].player1.walletAddress\n                    : gameRoomMap[waitingGameRoomId].player2.walletAddress,\n                true,\n                true,\n                waitingGameRoomId\n            );\n            waitingGameRoomId = 0;\n        }\n    }\n\n    event GameEnded(address winner, address loser, Status status);\n\n    function _distributePrizesAndEmitEndGame(uint256 gameRoomId, address winner)\n        internal\n    {\n        uint256 platformCut = ((2 * entryFees * platformFeesPercent) / 100);\n        uint256 winningAmount = (2 * entryFees - platformCut);\n        if (winner == address(0)) {\n            nowggFtContract.transfer(\n                gameRoomMap[gameRoomId].player1.walletAddress,\n                (winningAmount / 2)\n            );\n            nowggFtContract.transfer(\n                gameRoomMap[gameRoomId].player2.walletAddress,\n                (winningAmount / 2)\n            );\n        } else {\n            nowggFtContract.transfer(winner, winningAmount);\n        }\n        nowggFtContract.transfer(adminAddress, platformCut);\n        gameRoomMap[gameRoomId].status = Status.COMPLETED;\n        gameRoomMap[gameRoomId].roundState = RoundState.ResultDeclared;\n        gameRoomMap[gameRoomId].winner = winner;\n        delete playerMap[gameRoomMap[gameRoomId].player1.walletAddress];\n        delete playerMap[gameRoomMap[gameRoomId].player2.walletAddress];\n        if (winner == address(0)) {\n            emit GameEnded(\n                gameRoomMap[gameRoomId].player1.walletAddress,\n                gameRoomMap[gameRoomId].player1.walletAddress,\n                gameRoomMap[gameRoomId].status\n            );\n            emit GameEnded(\n                gameRoomMap[gameRoomId].player2.walletAddress,\n                gameRoomMap[gameRoomId].player2.walletAddress,\n                gameRoomMap[gameRoomId].status\n            );\n        } else {\n            emit GameEnded(\n                winner == gameRoomMap[gameRoomId].player1.walletAddress\n                    ? gameRoomMap[gameRoomId].player1.walletAddress\n                    : gameRoomMap[gameRoomId].player2.walletAddress,\n                winner == gameRoomMap[gameRoomId].player1.walletAddress\n                    ? gameRoomMap[gameRoomId].player2.walletAddress\n                    : gameRoomMap[gameRoomId].player1.walletAddress,\n                gameRoomMap[gameRoomId].status\n            );\n        }\n    }\n\n    /**\n     *  triggered from front end when other player doesn't respond\n     */\n    function triggerEndMatch(uint256 gameRoomId, address playerAddress)\n        public\n        payable\n    {\n        require(\n            (playerAddress == gameRoomMap[gameRoomId].player1.walletAddress ||\n                playerAddress == gameRoomMap[gameRoomId].player2.walletAddress),\n            \"Nm\"\n        );\n        if (gameRoomMap[gameRoomId].status == Status.WAITING) {\n            nowggFtContract.transfer(playerAddress, entryFees);\n            delete playerMap[playerAddress];\n            waitingGameRoomId = 0;\n        } else if (gameRoomMap[gameRoomId].status == Status.LIVE) {\n            bool isPlayer1 = playerAddress ==\n                gameRoomMap[gameRoomId].player1.walletAddress;\n            if (isPlayer1) {\n                _distributePrizesAndEmitEndGame(\n                    gameRoomId,\n                    gameRoomMap[gameRoomId].player2.walletAddress\n                );\n            } else\n                _distributePrizesAndEmitEndGame(\n                    gameRoomId,\n                    gameRoomMap[gameRoomId].player1.walletAddress\n                );\n        }\n        delete gameRoomMap[gameRoomId];\n    }\n\n    function checkMatchState(uint256 gameRoomId)\n        public\n        view\n        returns (GameRoom memory)\n    {\n        // get the state of the match\n        return gameRoomMap[gameRoomId];\n    }\n\n    function getStatByEnum(\n        Stat _stat,\n        NowggNFTInterface.Pokemon memory _pokemon\n    ) private pure returns (uint256) {\n        if (_stat == Stat.HP) {\n            return _pokemon.hp;\n        } else if (_stat == Stat.ATTACK) {\n            return _pokemon.attack;\n        } else if (_stat == Stat.DEFENSE) {\n            return _pokemon.defense;\n        } else if (_stat == Stat.SP_ATTACK) {\n            return _pokemon.spAttack;\n        } else if (_stat == Stat.SP_DEFENSE) {\n            return _pokemon.spDefense;\n        } else if (_stat == Stat.SPEED) {\n            return _pokemon.speed;\n        } else return 0;\n    }\n\n    function _processRound(uint256 gameRoomId) internal {\n        RoundInfo memory _round = gameRoomMap[gameRoomId].previousRoundInfo[\n            gameRoomMap[gameRoomId].roundNo\n        ];\n        NowggNFTInterface.Pokemon memory A = nowggNftContract\n            .getPokemonMetaData(_round.player1Card);\n        NowggNFTInterface.Pokemon memory B = nowggNftContract\n            .getPokemonMetaData(_round.player2Card);\n        // Compare cards and declare winner for that round\n        if (\n            getStatByEnum(gameRoomMap[gameRoomId].currentExposedStat, A) ==\n            getStatByEnum(gameRoomMap[gameRoomId].currentExposedStat, B)\n        ) {\n            playerMap[_round.player1].points++;\n            playerMap[_round.player2].points++;\n            gameRoomMap[gameRoomId].player1.points++;\n            gameRoomMap[gameRoomId].player2.points++;\n            gameRoomMap[gameRoomId]\n                .previousRoundInfo[gameRoomMap[gameRoomId].roundNo]\n                .winner = randMod(2) == 0 ? _round.player1 : _round.player2;\n        } else if (\n            getStatByEnum(gameRoomMap[gameRoomId].currentExposedStat, A) >\n            getStatByEnum(gameRoomMap[gameRoomId].currentExposedStat, B)\n        ) {\n            playerMap[_round.player1].points++;\n            gameRoomMap[gameRoomId].player1.points++;\n            gameRoomMap[gameRoomId]\n                .previousRoundInfo[gameRoomMap[gameRoomId].roundNo]\n                .winner = _round.player1;\n        } else {\n            playerMap[_round.player2].points++;\n            gameRoomMap[gameRoomId].player2.points++;\n            gameRoomMap[gameRoomId]\n                .previousRoundInfo[gameRoomMap[gameRoomId].roundNo]\n                .winner = _round.player2;\n        }\n        // TODO: If last round trigger verify cards event\n        // For now skipping this step\n        if (\n            gameRoomMap[gameRoomId].roundNo ==\n            (gameRoomMap[gameRoomId].totalRounds - 1)\n        ) {\n            bool sendToPlayer1 = randMod(2) == 0 ? true : false;\n            emit VerifyCards(\n                sendToPlayer1\n                    ? gameRoomMap[gameRoomId].player1.walletAddress\n                    : gameRoomMap[gameRoomId].player2.walletAddress,\n                gameRoomId\n            );\n        }\n        // else fire next round event\n        else {\n            gameRoomMap[gameRoomId].roundState = gameRoomMap[gameRoomId]\n                .previousRoundInfo[gameRoomMap[gameRoomId].roundNo]\n                .winner == gameRoomMap[gameRoomId].player1.walletAddress\n                ? RoundState.Player1Turn\n                : RoundState.Player2Turn;\n            emit PlayerTurn(_round.winner, true, true, gameRoomId);\n        }\n        gameRoomMap[gameRoomId].currentExposedStat = Stat.NULL;\n        gameRoomMap[gameRoomId].roundNo++;\n    }\n\n    event VerifyCards(address to, uint256 gameRoomId);\n\n    function verifyPlayerCards(uint256 gameRoomId, uint256 blindingFactor)\n        public\n        returns (bool)\n    {\n        bool isPlayer1 = msg.sender ==\n            gameRoomMap[gameRoomId].player1.walletAddress;\n        uint256 verifiedRounds = 0;\n        for (uint256 i = 0; i < gameRoomMap[gameRoomId].totalRounds; i++) {\n            bool roundVerified = false;\n            for (\n                uint256 j = 0;\n                j < playerMap[msg.sender].encodedNfts.length;\n                j++\n            ) {\n                uint256 card = isPlayer1\n                    ? gameRoomMap[gameRoomId].previousRoundInfo[i].player1Card\n                    : gameRoomMap[gameRoomId].previousRoundInfo[i].player2Card;\n                if (\n                    keccak256(\n                        abi.encodePacked(blindingFactor, card, msg.sender)\n                    ) == playerMap[msg.sender].encodedNfts[j]\n                ) {\n                    roundVerified = true;\n                    verifiedRounds++;\n                    break;\n                }\n            }\n            if (roundVerified == false) {\n                _distributePrizesAndEmitEndGame(\n                    gameRoomId,\n                    isPlayer1\n                        ? gameRoomMap[gameRoomId].player2.walletAddress\n                        : gameRoomMap[gameRoomId].player1.walletAddress\n                );\n                return false;\n            }\n            if (verifiedRounds == gameRoomMap[gameRoomId].totalRounds) {\n                if (isPlayer1) {\n                    gameRoomMap[gameRoomId].player1.cardsVerified = true;\n                } else {\n                    gameRoomMap[gameRoomId].player2.cardsVerified = true;\n                }\n                bool bothPlayerCardsVerified = gameRoomMap[gameRoomId]\n                    .player1\n                    .cardsVerified &&\n                    gameRoomMap[gameRoomId].player2.cardsVerified;\n                if (bothPlayerCardsVerified) {\n                    address winner;\n                    if (\n                        gameRoomMap[gameRoomId].player1.points >\n                        gameRoomMap[gameRoomId].player2.points\n                    ) {\n                        winner = gameRoomMap[gameRoomId].player1.walletAddress;\n                    } else if (\n                        gameRoomMap[gameRoomId].player1.points <\n                        gameRoomMap[gameRoomId].player2.points\n                    ) {\n                        winner = gameRoomMap[gameRoomId].player2.walletAddress;\n                    } else {\n                        winner = address(0);\n                    }\n                    _distributePrizesAndEmitEndGame(gameRoomId, winner);\n                } else {\n                    if (isPlayer1) {\n                        emit VerifyCards(\n                            gameRoomMap[gameRoomId].player2.walletAddress,\n                            gameRoomId\n                        );\n                    } else {\n                        emit VerifyCards(\n                            gameRoomMap[gameRoomId].player1.walletAddress,\n                            gameRoomId\n                        );\n                    }\n                }\n            }\n        }\n        return true;\n    }\n\n    function executeMove(\n        uint256 cardTypeId,\n        Stat exposedStat,\n        uint256 gameRoomId\n    ) public {\n        // nftTypeId: charizard, HorsePower, 1\n        // acknowledege and save move\n        if (gameRoomMap[gameRoomId].currentExposedStat == Stat.NULL) {\n            RoundInfo memory _currentRound;\n            gameRoomMap[gameRoomId].previousRoundInfo.push(_currentRound);\n        }\n        if (gameRoomMap[gameRoomId].roundState == RoundState.Player1Turn) {\n            gameRoomMap[gameRoomId]\n                .previousRoundInfo[gameRoomMap[gameRoomId].roundNo]\n                .player1 = msg.sender;\n            gameRoomMap[gameRoomId]\n                .previousRoundInfo[gameRoomMap[gameRoomId].roundNo]\n                .player1Card = cardTypeId;\n            gameRoomMap[gameRoomId]\n                .previousRoundInfo[gameRoomMap[gameRoomId].roundNo]\n                .exposedStat = exposedStat;\n            gameRoomMap[gameRoomId].player1.exposedNfts.push(cardTypeId);\n        } else if (\n            gameRoomMap[gameRoomId].roundState == RoundState.Player2Turn\n        ) {\n            gameRoomMap[gameRoomId]\n                .previousRoundInfo[gameRoomMap[gameRoomId].roundNo]\n                .player2 = msg.sender;\n            gameRoomMap[gameRoomId]\n                .previousRoundInfo[gameRoomMap[gameRoomId].roundNo]\n                .player2Card = cardTypeId;\n            gameRoomMap[gameRoomId]\n                .previousRoundInfo[gameRoomMap[gameRoomId].roundNo]\n                .exposedStat = exposedStat;\n            gameRoomMap[gameRoomId].player2.exposedNfts.push(cardTypeId);\n        }\n        playerMap[msg.sender].exposedNfts.push(cardTypeId);\n        if (gameRoomMap[gameRoomId].currentExposedStat == Stat.NULL) {\n            gameRoomMap[gameRoomId].currentExposedStat = exposedStat;\n            // trigger further move events\n            emit PlayerTurn(\n                gameRoomMap[gameRoomId].roundState == RoundState.Player1Turn\n                    ? gameRoomMap[gameRoomId].player2.walletAddress\n                    : gameRoomMap[gameRoomId].player1.walletAddress,\n                true,\n                false,\n                gameRoomId\n            );\n            if (gameRoomMap[gameRoomId].roundState == RoundState.Player1Turn) {\n                gameRoomMap[gameRoomId].roundState = RoundState.Player2Turn;\n            } else if (\n                gameRoomMap[gameRoomId].roundState == RoundState.Player2Turn\n            ) {\n                gameRoomMap[gameRoomId].roundState = RoundState.Player1Turn;\n            }\n        }\n\n        // if last move of the round then call _processRound\n        if (\n            gameRoomMap[gameRoomId]\n                .previousRoundInfo[gameRoomMap[gameRoomId].roundNo]\n                .player1Card !=\n            0 &&\n            gameRoomMap[gameRoomId]\n                .previousRoundInfo[gameRoomMap[gameRoomId].roundNo]\n                .player2Card !=\n            0 &&\n            gameRoomMap[gameRoomId]\n                .previousRoundInfo[gameRoomMap[gameRoomId].roundNo]\n                .player1 !=\n            address(0) &&\n            gameRoomMap[gameRoomId]\n                .previousRoundInfo[gameRoomMap[gameRoomId].roundNo]\n                .player2 !=\n            address(0)\n        ) {\n            _processRound(gameRoomId);\n        }\n    }\n}\n",
  "sourcePath": "/Users/bluestacksmac/Documents/GitHub/game-poc/src/contracts/GamePlay.sol",
  "compiler": {
    "name": "solc",
    "version": "0.8.15+commit.e14f2714.Emscripten.clang"
  },
  "schemaVersion": "3.4.8",
  "updatedAt": "2022-07-18T12:26:24.320Z",
  "networkType": "ethereum",
  "devdoc": {
    "kind": "dev",
    "methods": {},
    "version": 1
  },
  "userdoc": {
    "kind": "user",
    "methods": {
      "triggerEndMatch(uint256,address)": {
        "notice": "triggered from front end when other player doesn't respond"
      }
    },
    "version": 1
  }
}