{
  "contractName": "IdentityNft",
  "abi": [
    {
      "inputs": [],
      "stateMutability": "nonpayable",
      "type": "constructor"
    },
    {
      "anonymous": false,
      "inputs": [
        {
          "indexed": true,
          "internalType": "address",
          "name": "owner",
          "type": "address"
        },
        {
          "indexed": true,
          "internalType": "address",
          "name": "approved",
          "type": "address"
        },
        {
          "indexed": true,
          "internalType": "uint256",
          "name": "tokenId",
          "type": "uint256"
        }
      ],
      "name": "Approval",
      "type": "event"
    },
    {
      "anonymous": false,
      "inputs": [
        {
          "indexed": true,
          "internalType": "address",
          "name": "owner",
          "type": "address"
        },
        {
          "indexed": true,
          "internalType": "address",
          "name": "operator",
          "type": "address"
        },
        {
          "indexed": false,
          "internalType": "bool",
          "name": "approved",
          "type": "bool"
        }
      ],
      "name": "ApprovalForAll",
      "type": "event"
    },
    {
      "anonymous": false,
      "inputs": [
        {
          "indexed": true,
          "internalType": "address",
          "name": "from",
          "type": "address"
        },
        {
          "indexed": true,
          "internalType": "address",
          "name": "to",
          "type": "address"
        },
        {
          "indexed": true,
          "internalType": "uint256",
          "name": "tokenId",
          "type": "uint256"
        }
      ],
      "name": "Transfer",
      "type": "event"
    },
    {
      "inputs": [
        {
          "internalType": "address",
          "name": "to",
          "type": "address"
        },
        {
          "internalType": "uint256",
          "name": "tokenId",
          "type": "uint256"
        }
      ],
      "name": "approve",
      "outputs": [],
      "stateMutability": "nonpayable",
      "type": "function"
    },
    {
      "inputs": [
        {
          "internalType": "address",
          "name": "owner",
          "type": "address"
        }
      ],
      "name": "balanceOf",
      "outputs": [
        {
          "internalType": "uint256",
          "name": "",
          "type": "uint256"
        }
      ],
      "stateMutability": "view",
      "type": "function",
      "constant": true
    },
    {
      "inputs": [
        {
          "internalType": "uint256",
          "name": "tokenId",
          "type": "uint256"
        }
      ],
      "name": "getApproved",
      "outputs": [
        {
          "internalType": "address",
          "name": "",
          "type": "address"
        }
      ],
      "stateMutability": "view",
      "type": "function",
      "constant": true
    },
    {
      "inputs": [
        {
          "internalType": "address",
          "name": "owner",
          "type": "address"
        },
        {
          "internalType": "address",
          "name": "operator",
          "type": "address"
        }
      ],
      "name": "isApprovedForAll",
      "outputs": [
        {
          "internalType": "bool",
          "name": "",
          "type": "bool"
        }
      ],
      "stateMutability": "view",
      "type": "function",
      "constant": true
    },
    {
      "inputs": [],
      "name": "name",
      "outputs": [
        {
          "internalType": "string",
          "name": "",
          "type": "string"
        }
      ],
      "stateMutability": "view",
      "type": "function",
      "constant": true
    },
    {
      "inputs": [
        {
          "internalType": "uint256",
          "name": "tokenId",
          "type": "uint256"
        }
      ],
      "name": "ownerOf",
      "outputs": [
        {
          "internalType": "address",
          "name": "",
          "type": "address"
        }
      ],
      "stateMutability": "view",
      "type": "function",
      "constant": true
    },
    {
      "inputs": [
        {
          "internalType": "address",
          "name": "operator",
          "type": "address"
        },
        {
          "internalType": "bool",
          "name": "approved",
          "type": "bool"
        }
      ],
      "name": "setApprovalForAll",
      "outputs": [],
      "stateMutability": "nonpayable",
      "type": "function"
    },
    {
      "inputs": [],
      "name": "symbol",
      "outputs": [
        {
          "internalType": "string",
          "name": "",
          "type": "string"
        }
      ],
      "stateMutability": "view",
      "type": "function",
      "constant": true
    },
    {
      "inputs": [
        {
          "internalType": "uint256",
          "name": "index",
          "type": "uint256"
        }
      ],
      "name": "tokenByIndex",
      "outputs": [
        {
          "internalType": "uint256",
          "name": "",
          "type": "uint256"
        }
      ],
      "stateMutability": "view",
      "type": "function",
      "constant": true
    },
    {
      "inputs": [
        {
          "internalType": "address",
          "name": "owner",
          "type": "address"
        },
        {
          "internalType": "uint256",
          "name": "index",
          "type": "uint256"
        }
      ],
      "name": "tokenOfOwnerByIndex",
      "outputs": [
        {
          "internalType": "uint256",
          "name": "",
          "type": "uint256"
        }
      ],
      "stateMutability": "view",
      "type": "function",
      "constant": true
    },
    {
      "inputs": [
        {
          "internalType": "uint256",
          "name": "tokenId",
          "type": "uint256"
        }
      ],
      "name": "tokenURI",
      "outputs": [
        {
          "internalType": "string",
          "name": "",
          "type": "string"
        }
      ],
      "stateMutability": "view",
      "type": "function",
      "constant": true
    },
    {
      "inputs": [],
      "name": "totalSupply",
      "outputs": [
        {
          "internalType": "uint256",
          "name": "",
          "type": "uint256"
        }
      ],
      "stateMutability": "view",
      "type": "function",
      "constant": true
    },
    {
      "inputs": [
        {
          "internalType": "address",
          "name": "_to",
          "type": "address"
        }
      ],
      "name": "mint",
      "outputs": [
        {
          "internalType": "bool",
          "name": "",
          "type": "bool"
        }
      ],
      "stateMutability": "payable",
      "type": "function",
      "payable": true
    },
    {
      "inputs": [
        {
          "internalType": "address",
          "name": "_from",
          "type": "address"
        },
        {
          "internalType": "address",
          "name": "_to",
          "type": "address"
        },
        {
          "internalType": "uint256",
          "name": "_tokenId",
          "type": "uint256"
        }
      ],
      "name": "transferFrom",
      "outputs": [],
      "stateMutability": "view",
      "type": "function",
      "constant": true
    },
    {
      "inputs": [
        {
          "internalType": "address",
          "name": "from",
          "type": "address"
        },
        {
          "internalType": "address",
          "name": "to",
          "type": "address"
        },
        {
          "internalType": "uint256",
          "name": "tokenId",
          "type": "uint256"
        }
      ],
      "name": "safeTransferFrom",
      "outputs": [],
      "stateMutability": "nonpayable",
      "type": "function"
    },
    {
      "inputs": [
        {
          "internalType": "address",
          "name": "_from",
          "type": "address"
        },
        {
          "internalType": "address",
          "name": "_to",
          "type": "address"
        },
        {
          "internalType": "uint256",
          "name": "_tokenId",
          "type": "uint256"
        },
        {
          "internalType": "bytes",
          "name": "_data",
          "type": "bytes"
        }
      ],
      "name": "safeTransferFrom",
      "outputs": [],
      "stateMutability": "view",
      "type": "function",
      "constant": true
    },
    {
      "inputs": [
        {
          "internalType": "bytes4",
          "name": "interfaceId",
          "type": "bytes4"
        }
      ],
      "name": "supportsInterface",
      "outputs": [
        {
          "internalType": "bool",
          "name": "",
          "type": "bool"
        }
      ],
      "stateMutability": "view",
      "type": "function",
      "constant": true
    }
  ],
  "bytecode": "0x60806040526001600b60006101000a81548160ff0219169083151502179055503480156200002c57600080fd5b506040518060400160405280600c81526020017f4964656e746974795f4e667400000000000000000000000000000000000000008152506040518060400160405280600881526020017f4944454e544954590000000000000000000000000000000000000000000000008152508160009081620000aa91906200033f565b508060019081620000bc91906200033f565b50505062000426565b600081519050919050565b7f4e487b7100000000000000000000000000000000000000000000000000000000600052604160045260246000fd5b7f4e487b7100000000000000000000000000000000000000000000000000000000600052602260045260246000fd5b600060028204905060018216806200014757607f821691505b6020821081036200015d576200015c620000ff565b5b50919050565b60008190508160005260206000209050919050565b60006020601f8301049050919050565b600082821b905092915050565b600060088302620001c77fffffffffffffffffffffffffffffffffffffffffffffffffffffffffffffffff8262000188565b620001d3868362000188565b95508019841693508086168417925050509392505050565b6000819050919050565b6000819050919050565b6000620002206200021a6200021484620001eb565b620001f5565b620001eb565b9050919050565b6000819050919050565b6200023c83620001ff565b620002546200024b8262000227565b84845462000195565b825550505050565b600090565b6200026b6200025c565b6200027881848462000231565b505050565b5b81811015620002a0576200029460008262000261565b6001810190506200027e565b5050565b601f821115620002ef57620002b98162000163565b620002c48462000178565b81016020851015620002d4578190505b620002ec620002e38562000178565b8301826200027d565b50505b505050565b600082821c905092915050565b60006200031460001984600802620002f4565b1980831691505092915050565b60006200032f838362000301565b9150826002028217905092915050565b6200034a82620000c5565b67ffffffffffffffff811115620003665762000365620000d0565b5b6200037282546200012e565b6200037f828285620002a4565b600060209050601f831160018114620003b75760008415620003a2578287015190505b620003ae858262000321565b8655506200041e565b601f198416620003c78662000163565b60005b82811015620003f157848901518255600182019150602085019450602081019050620003ca565b868310156200041157848901516200040d601f89168262000301565b8355505b6001600288020188555050505b505050505050565b61258180620004366000396000f3fe6080604052600436106100fe5760003560e01c80634f6ccce71161009557806395d89b411161006457806395d89b4114610372578063a22cb4651461039d578063b88d4fde146103c6578063c87b56dd146103ef578063e985e9c51461042c576100fe565b80634f6ccce71461028b5780636352211e146102c85780636a6278421461030557806370a0823114610335576100fe565b806318160ddd116100d157806318160ddd146101d157806323b872dd146101fc5780632f745c591461022557806342842e0e14610262576100fe565b806301ffc9a71461010357806306fdde0314610140578063081812fc1461016b578063095ea7b3146101a8575b600080fd5b34801561010f57600080fd5b5061012a6004803603810190610125919061184e565b610469565b6040516101379190611896565b60405180910390f35b34801561014c57600080fd5b5061015561047b565b604051610162919061194a565b60405180910390f35b34801561017757600080fd5b50610192600480360381019061018d91906119a2565b61050d565b60405161019f9190611a10565b60405180910390f35b3480156101b457600080fd5b506101cf60048036038101906101ca9190611a57565b610553565b005b3480156101dd57600080fd5b506101e661066a565b6040516101f39190611aa6565b60405180910390f35b34801561020857600080fd5b50610223600480360381019061021e9190611ac1565b610677565b005b34801561023157600080fd5b5061024c60048036038101906102479190611a57565b6106cc565b6040516102599190611aa6565b60405180910390f35b34801561026e57600080fd5b5061028960048036038101906102849190611ac1565b610771565b005b34801561029757600080fd5b506102b260048036038101906102ad91906119a2565b610791565b6040516102bf9190611aa6565b60405180910390f35b3480156102d457600080fd5b506102ef60048036038101906102ea91906119a2565b610802565b6040516102fc9190611a10565b60405180910390f35b61031f600480360381019061031a9190611b14565b6108b3565b60405161032c9190611896565b60405180910390f35b34801561034157600080fd5b5061035c60048036038101906103579190611b14565b6108e1565b6040516103699190611aa6565b60405180910390f35b34801561037e57600080fd5b50610387610998565b604051610394919061194a565b60405180910390f35b3480156103a957600080fd5b506103c460048036038101906103bf9190611b6d565b610a2a565b005b3480156103d257600080fd5b506103ed60048036038101906103e89190611ce2565b610a40565b005b3480156103fb57600080fd5b50610416600480360381019061041191906119a2565b610a96565b604051610423919061194a565b60405180910390f35b34801561043857600080fd5b50610453600480360381019061044e9190611d65565b610afe565b6040516104609190611896565b60405180910390f35b600061047482610b92565b9050919050565b60606000805461048a90611dd4565b80601f01602080910402602001604051908101604052809291908181526020018280546104b690611dd4565b80156105035780601f106104d857610100808354040283529160200191610503565b820191906000526020600020905b8154815290600101906020018083116104e657829003601f168201915b5050505050905090565b600061051882610c0c565b6004600083815260200190815260200160002060009054906101000a900473ffffffffffffffffffffffffffffffffffffffff169050919050565b600061055e82610802565b90508073ffffffffffffffffffffffffffffffffffffffff168373ffffffffffffffffffffffffffffffffffffffff16036105ce576040517f08c379a00000000000000000000000000000000000000000000000000000000081526004016105c590611e77565b60405180910390fd5b8073ffffffffffffffffffffffffffffffffffffffff166105ed610c57565b73ffffffffffffffffffffffffffffffffffffffff16148061061c575061061b81610616610c57565b610afe565b5b61065b576040517f08c379a000000000000000000000000000000000000000000000000000000000815260040161065290611f09565b60405180910390fd5b6106658383610c5f565b505050565b6000600880549050905090565b600b60009054906101000a900460ff16156106c7576040517f08c379a00000000000000000000000000000000000000000000000000000000081526004016106be90611f75565b60405180910390fd5b505050565b60006106d7836108e1565b8210610718576040517f08c379a000000000000000000000000000000000000000000000000000000000815260040161070f90612007565b60405180910390fd5b600660008473ffffffffffffffffffffffffffffffffffffffff1673ffffffffffffffffffffffffffffffffffffffff168152602001908152602001600020600083815260200190815260200160002054905092915050565b61078c83838360405180602001604052806000815250610a40565b505050565b600061079b61066a565b82106107dc576040517f08c379a00000000000000000000000000000000000000000000000000000000081526004016107d390612099565b60405180910390fd5b600882815481106107f0576107ef6120b9565b5b90600052602060002001549050919050565b6000806002600084815260200190815260200160002060009054906101000a900473ffffffffffffffffffffffffffffffffffffffff169050600073ffffffffffffffffffffffffffffffffffffffff168173ffffffffffffffffffffffffffffffffffffffff16036108aa576040517f08c379a00000000000000000000000000000000000000000000000000000000081526004016108a190612134565b60405180910390fd5b80915050919050565b60006108bf600a610d18565b60006108cb600a610d2e565b90506108d78382610d3c565b6001915050919050565b60008073ffffffffffffffffffffffffffffffffffffffff168273ffffffffffffffffffffffffffffffffffffffff1603610951576040517f08c379a0000000000000000000000000000000000000000000000000000000008152600401610948906121c6565b60405180910390fd5b600360008373ffffffffffffffffffffffffffffffffffffffff1673ffffffffffffffffffffffffffffffffffffffff168152602001908152602001600020549050919050565b6060600180546109a790611dd4565b80601f01602080910402602001604051908101604052809291908181526020018280546109d390611dd4565b8015610a205780601f106109f557610100808354040283529160200191610a20565b820191906000526020600020905b815481529060010190602001808311610a0357829003601f168201915b5050505050905090565b610a3c610a35610c57565b8383610f15565b5050565b600b60009054906101000a900460ff1615610a90576040517f08c379a0000000000000000000000000000000000000000000000000000000008152600401610a8790611f75565b60405180910390fd5b50505050565b6060610aa182610c0c565b6000610aab611081565b90506000815111610acb5760405180602001604052806000815250610af6565b80610ad584611098565b604051602001610ae6929190612222565b6040516020818303038152906040525b915050919050565b6000600560008473ffffffffffffffffffffffffffffffffffffffff1673ffffffffffffffffffffffffffffffffffffffff16815260200190815260200160002060008373ffffffffffffffffffffffffffffffffffffffff1673ffffffffffffffffffffffffffffffffffffffff16815260200190815260200160002060009054906101000a900460ff16905092915050565b60007f780e9d63000000000000000000000000000000000000000000000000000000007bffffffffffffffffffffffffffffffffffffffffffffffffffffffff1916827bffffffffffffffffffffffffffffffffffffffffffffffffffffffff19161480610c055750610c04826111f8565b5b9050919050565b610c15816112da565b610c54576040517f08c379a0000000000000000000000000000000000000000000000000000000008152600401610c4b90612134565b60405180910390fd5b50565b600033905090565b816004600083815260200190815260200160002060006101000a81548173ffffffffffffffffffffffffffffffffffffffff021916908373ffffffffffffffffffffffffffffffffffffffff160217905550808273ffffffffffffffffffffffffffffffffffffffff16610cd283610802565b73ffffffffffffffffffffffffffffffffffffffff167f8c5be1e5ebec7d5bd14f71427d1e84f3dd0314c0f7b2291e5b200ac8c7c3b92560405160405180910390a45050565b6001816000016000828254019250508190555050565b600081600001549050919050565b600073ffffffffffffffffffffffffffffffffffffffff168273ffffffffffffffffffffffffffffffffffffffff1603610dab576040517f08c379a0000000000000000000000000000000000000000000000000000000008152600401610da290612292565b60405180910390fd5b610db4816112da565b15610df4576040517f08c379a0000000000000000000000000000000000000000000000000000000008152600401610deb906122fe565b60405180910390fd5b610e0060008383611346565b6001600360008473ffffffffffffffffffffffffffffffffffffffff1673ffffffffffffffffffffffffffffffffffffffff1681526020019081526020016000206000828254610e50919061234d565b92505081905550816002600083815260200190815260200160002060006101000a81548173ffffffffffffffffffffffffffffffffffffffff021916908373ffffffffffffffffffffffffffffffffffffffff160217905550808273ffffffffffffffffffffffffffffffffffffffff16600073ffffffffffffffffffffffffffffffffffffffff167fddf252ad1be2c89b69c2b068fc378daa952ba7f163c4a11628f55a4df523b3ef60405160405180910390a4610f1160008383611356565b5050565b8173ffffffffffffffffffffffffffffffffffffffff168373ffffffffffffffffffffffffffffffffffffffff1603610f83576040517f08c379a0000000000000000000000000000000000000000000000000000000008152600401610f7a906123ef565b60405180910390fd5b80600560008573ffffffffffffffffffffffffffffffffffffffff1673ffffffffffffffffffffffffffffffffffffffff16815260200190815260200160002060008473ffffffffffffffffffffffffffffffffffffffff1673ffffffffffffffffffffffffffffffffffffffff16815260200190815260200160002060006101000a81548160ff0219169083151502179055508173ffffffffffffffffffffffffffffffffffffffff168373ffffffffffffffffffffffffffffffffffffffff167f17307eab39ab6107e8899845ad3d59bd9653f200f220920489ca2b5937696c31836040516110749190611896565b60405180910390a3505050565b606060405180602001604052806000815250905090565b6060600082036110df576040518060400160405280600181526020017f300000000000000000000000000000000000000000000000000000000000000081525090506111f3565b600082905060005b600082146111115780806110fa9061240f565b915050600a8261110a9190612486565b91506110e7565b60008167ffffffffffffffff81111561112d5761112c611bb7565b5b6040519080825280601f01601f19166020018201604052801561115f5781602001600182028036833780820191505090505b5090505b600085146111ec5760018261117891906124b7565b9150600a8561118791906124eb565b6030611193919061234d565b60f81b8183815181106111a9576111a86120b9565b5b60200101907effffffffffffffffffffffffffffffffffffffffffffffffffffffffffffff1916908160001a905350600a856111e59190612486565b9450611163565b8093505050505b919050565b60007f80ac58cd000000000000000000000000000000000000000000000000000000007bffffffffffffffffffffffffffffffffffffffffffffffffffffffff1916827bffffffffffffffffffffffffffffffffffffffffffffffffffffffff191614806112c357507f5b5e139f000000000000000000000000000000000000000000000000000000007bffffffffffffffffffffffffffffffffffffffffffffffffffffffff1916827bffffffffffffffffffffffffffffffffffffffffffffffffffffffff1916145b806112d357506112d28261135b565b5b9050919050565b60008073ffffffffffffffffffffffffffffffffffffffff166002600084815260200190815260200160002060009054906101000a900473ffffffffffffffffffffffffffffffffffffffff1673ffffffffffffffffffffffffffffffffffffffff1614159050919050565b6113518383836113c5565b505050565b505050565b60007f01ffc9a7000000000000000000000000000000000000000000000000000000007bffffffffffffffffffffffffffffffffffffffffffffffffffffffff1916827bffffffffffffffffffffffffffffffffffffffffffffffffffffffff1916149050919050565b6113d08383836114d7565b600073ffffffffffffffffffffffffffffffffffffffff168373ffffffffffffffffffffffffffffffffffffffff16036114125761140d816114dc565b611451565b8173ffffffffffffffffffffffffffffffffffffffff168373ffffffffffffffffffffffffffffffffffffffff16146114505761144f8382611525565b5b5b600073ffffffffffffffffffffffffffffffffffffffff168273ffffffffffffffffffffffffffffffffffffffff16036114935761148e81611692565b6114d2565b8273ffffffffffffffffffffffffffffffffffffffff168273ffffffffffffffffffffffffffffffffffffffff16146114d1576114d08282611763565b5b5b505050565b505050565b6008805490506009600083815260200190815260200160002081905550600881908060018154018082558091505060019003906000526020600020016000909190919091505550565b60006001611532846108e1565b61153c91906124b7565b9050600060076000848152602001908152602001600020549050818114611621576000600660008673ffffffffffffffffffffffffffffffffffffffff1673ffffffffffffffffffffffffffffffffffffffff168152602001908152602001600020600084815260200190815260200160002054905080600660008773ffffffffffffffffffffffffffffffffffffffff1673ffffffffffffffffffffffffffffffffffffffff168152602001908152602001600020600084815260200190815260200160002081905550816007600083815260200190815260200160002081905550505b6007600084815260200190815260200160002060009055600660008573ffffffffffffffffffffffffffffffffffffffff1673ffffffffffffffffffffffffffffffffffffffff16815260200190815260200160002060008381526020019081526020016000206000905550505050565b600060016008805490506116a691906124b7565b90506000600960008481526020019081526020016000205490506000600883815481106116d6576116d56120b9565b5b9060005260206000200154905080600883815481106116f8576116f76120b9565b5b9060005260206000200181905550816009600083815260200190815260200160002081905550600960008581526020019081526020016000206000905560088054806117475761174661251c565b5b6001900381819060005260206000200160009055905550505050565b600061176e836108e1565b905081600660008573ffffffffffffffffffffffffffffffffffffffff1673ffffffffffffffffffffffffffffffffffffffff168152602001908152602001600020600083815260200190815260200160002081905550806007600084815260200190815260200160002081905550505050565b6000604051905090565b600080fd5b600080fd5b60007fffffffff0000000000000000000000000000000000000000000000000000000082169050919050565b61182b816117f6565b811461183657600080fd5b50565b60008135905061184881611822565b92915050565b600060208284031215611864576118636117ec565b5b600061187284828501611839565b91505092915050565b60008115159050919050565b6118908161187b565b82525050565b60006020820190506118ab6000830184611887565b92915050565b600081519050919050565b600082825260208201905092915050565b60005b838110156118eb5780820151818401526020810190506118d0565b838111156118fa576000848401525b50505050565b6000601f19601f8301169050919050565b600061191c826118b1565b61192681856118bc565b93506119368185602086016118cd565b61193f81611900565b840191505092915050565b600060208201905081810360008301526119648184611911565b905092915050565b6000819050919050565b61197f8161196c565b811461198a57600080fd5b50565b60008135905061199c81611976565b92915050565b6000602082840312156119b8576119b76117ec565b5b60006119c68482850161198d565b91505092915050565b600073ffffffffffffffffffffffffffffffffffffffff82169050919050565b60006119fa826119cf565b9050919050565b611a0a816119ef565b82525050565b6000602082019050611a256000830184611a01565b92915050565b611a34816119ef565b8114611a3f57600080fd5b50565b600081359050611a5181611a2b565b92915050565b60008060408385031215611a6e57611a6d6117ec565b5b6000611a7c85828601611a42565b9250506020611a8d8582860161198d565b9150509250929050565b611aa08161196c565b82525050565b6000602082019050611abb6000830184611a97565b92915050565b600080600060608486031215611ada57611ad96117ec565b5b6000611ae886828701611a42565b9350506020611af986828701611a42565b9250506040611b0a8682870161198d565b9150509250925092565b600060208284031215611b2a57611b296117ec565b5b6000611b3884828501611a42565b91505092915050565b611b4a8161187b565b8114611b5557600080fd5b50565b600081359050611b6781611b41565b92915050565b60008060408385031215611b8457611b836117ec565b5b6000611b9285828601611a42565b9250506020611ba385828601611b58565b9150509250929050565b600080fd5b600080fd5b7f4e487b7100000000000000000000000000000000000000000000000000000000600052604160045260246000fd5b611bef82611900565b810181811067ffffffffffffffff82111715611c0e57611c0d611bb7565b5b80604052505050565b6000611c216117e2565b9050611c2d8282611be6565b919050565b600067ffffffffffffffff821115611c4d57611c4c611bb7565b5b611c5682611900565b9050602081019050919050565b82818337600083830152505050565b6000611c85611c8084611c32565b611c17565b905082815260208101848484011115611ca157611ca0611bb2565b5b611cac848285611c63565b509392505050565b600082601f830112611cc957611cc8611bad565b5b8135611cd9848260208601611c72565b91505092915050565b60008060008060808587031215611cfc57611cfb6117ec565b5b6000611d0a87828801611a42565b9450506020611d1b87828801611a42565b9350506040611d2c8782880161198d565b925050606085013567ffffffffffffffff811115611d4d57611d4c6117f1565b5b611d5987828801611cb4565b91505092959194509250565b60008060408385031215611d7c57611d7b6117ec565b5b6000611d8a85828601611a42565b9250506020611d9b85828601611a42565b9150509250929050565b7f4e487b7100000000000000000000000000000000000000000000000000000000600052602260045260246000fd5b60006002820490506001821680611dec57607f821691505b602082108103611dff57611dfe611da5565b5b50919050565b7f4552433732313a20617070726f76616c20746f2063757272656e74206f776e6560008201527f7200000000000000000000000000000000000000000000000000000000000000602082015250565b6000611e616021836118bc565b9150611e6c82611e05565b604082019050919050565b60006020820190508181036000830152611e9081611e54565b9050919050565b7f4552433732313a20617070726f76652063616c6c6572206973206e6f7420746f60008201527f6b656e206f776e6572206e6f7220617070726f76656420666f7220616c6c0000602082015250565b6000611ef3603e836118bc565b9150611efe82611e97565b604082019050919050565b60006020820190508181036000830152611f2281611ee6565b9050919050565b7f54686973204e4654206973206e6f74207472617366657261626c650000000000600082015250565b6000611f5f601b836118bc565b9150611f6a82611f29565b602082019050919050565b60006020820190508181036000830152611f8e81611f52565b9050919050565b7f455243373231456e756d657261626c653a206f776e657220696e646578206f7560008201527f74206f6620626f756e6473000000000000000000000000000000000000000000602082015250565b6000611ff1602b836118bc565b9150611ffc82611f95565b604082019050919050565b6000602082019050818103600083015261202081611fe4565b9050919050565b7f455243373231456e756d657261626c653a20676c6f62616c20696e646578206f60008201527f7574206f6620626f756e64730000000000000000000000000000000000000000602082015250565b6000612083602c836118bc565b915061208e82612027565b604082019050919050565b600060208201905081810360008301526120b281612076565b9050919050565b7f4e487b7100000000000000000000000000000000000000000000000000000000600052603260045260246000fd5b7f4552433732313a20696e76616c696420746f6b656e2049440000000000000000600082015250565b600061211e6018836118bc565b9150612129826120e8565b602082019050919050565b6000602082019050818103600083015261214d81612111565b9050919050565b7f4552433732313a2061646472657373207a65726f206973206e6f74206120766160008201527f6c6964206f776e65720000000000000000000000000000000000000000000000602082015250565b60006121b06029836118bc565b91506121bb82612154565b604082019050919050565b600060208201905081810360008301526121df816121a3565b9050919050565b600081905092915050565b60006121fc826118b1565b61220681856121e6565b93506122168185602086016118cd565b80840191505092915050565b600061222e82856121f1565b915061223a82846121f1565b91508190509392505050565b7f4552433732313a206d696e7420746f20746865207a65726f2061646472657373600082015250565b600061227c6020836118bc565b915061228782612246565b602082019050919050565b600060208201905081810360008301526122ab8161226f565b9050919050565b7f4552433732313a20746f6b656e20616c7265616479206d696e74656400000000600082015250565b60006122e8601c836118bc565b91506122f3826122b2565b602082019050919050565b60006020820190508181036000830152612317816122db565b9050919050565b7f4e487b7100000000000000000000000000000000000000000000000000000000600052601160045260246000fd5b60006123588261196c565b91506123638361196c565b9250827fffffffffffffffffffffffffffffffffffffffffffffffffffffffffffffffff038211156123985761239761231e565b5b828201905092915050565b7f4552433732313a20617070726f766520746f2063616c6c657200000000000000600082015250565b60006123d96019836118bc565b91506123e4826123a3565b602082019050919050565b60006020820190508181036000830152612408816123cc565b9050919050565b600061241a8261196c565b91507fffffffffffffffffffffffffffffffffffffffffffffffffffffffffffffffff820361244c5761244b61231e565b5b600182019050919050565b7f4e487b7100000000000000000000000000000000000000000000000000000000600052601260045260246000fd5b60006124918261196c565b915061249c8361196c565b9250826124ac576124ab612457565b5b828204905092915050565b60006124c28261196c565b91506124cd8361196c565b9250828210156124e0576124df61231e565b5b828203905092915050565b60006124f68261196c565b91506125018361196c565b92508261251157612510612457565b5b828206905092915050565b7f4e487b7100000000000000000000000000000000000000000000000000000000600052603160045260246000fdfea264697066735822122062e1092a6b43148a5ddf31f11f06cde1f477a325c22a3fdcb9fe21e7a07624cb64736f6c634300080f0033",
  "immutableReferences": {},
  "source": "// SPDX-License-Identifier: MIT\npragma solidity ^0.8.0;\n\nimport \"@openzeppelin/contracts/token/ERC721/ERC721.sol\";\nimport \"@openzeppelin/contracts/token/ERC721/extensions/ERC721Enumerable.sol\";\nimport \"@openzeppelin/contracts/utils/Counters.sol\";\n\n\ncontract IdentityNft is ERC721,ERC721Enumerable {\n    using Counters for Counters.Counter;\n    Counters.Counter private _tokenIdCounter;\n    bool nonTransferableNonBurnable = true;\n\n    constructor() ERC721(\"Identity_Nft\", \"IDENTITY\") {}\n\n    function mint(address _to) public payable returns (bool) {\n        _tokenIdCounter.increment();\n        uint256 tokenId = _tokenIdCounter.current();\n        _mint(_to, tokenId);\n        // doubt: set the token uri as a url?\n        // can also be some concatenated string:\n        // string(abi.encodePacked(tempURI, uintToString(newItemId)))\n        //_setTokenURI(_tokenId, \"Identity_NFT\");\n        return true;\n    }\n\n    //make this token non transferable non burnable\n    function transferFrom(\n        address _from,\n        address _to,\n        uint256 _tokenId\n    ) public view override(IERC721,ERC721) {\n        require(!nonTransferableNonBurnable, \"This NFT is not trasferable\");\n    }\n\n    function safeTransferFrom(\n        address _from,\n        address _to,\n        uint256 _tokenId,\n        bytes memory _data\n    ) public view override(IERC721,ERC721) {\n        require(!nonTransferableNonBurnable, \"This NFT is not trasferable\");\n    }\n\n    function _burn(uint256 tokenId) internal virtual override(ERC721) {\n        require(!nonTransferableNonBurnable, \"This NFT is not burnable\");\n    }\n    function _beforeTokenTransfer(\n        address from,\n        address to,\n        uint256 tokenId\n    ) internal override(ERC721,ERC721Enumerable) {\n        super._beforeTokenTransfer(from, to, tokenId);\n    }\n\n    function supportsInterface(bytes4 interfaceId)\n        public\n        view\n        override(ERC721,ERC721Enumerable)\n        returns (bool)\n    {\n        return super.supportsInterface(interfaceId);\n    }\n}",
  "sourcePath": "/Users/bluestacksmac/Documents/GitHub/game-poc/src/contracts/IdentityNft.sol",
  "compiler": {
    "name": "solc",
    "version": "0.8.15+commit.e14f2714.Emscripten.clang"
  },
  "schemaVersion": "3.4.8",
  "updatedAt": "2022-07-18T12:26:24.256Z",
  "networkType": "ethereum",
  "devdoc": {
    "kind": "dev",
    "methods": {
      "approve(address,uint256)": {
        "details": "See {IERC721-approve}."
      },
      "balanceOf(address)": {
        "details": "See {IERC721-balanceOf}."
      },
      "getApproved(uint256)": {
        "details": "See {IERC721-getApproved}."
      },
      "isApprovedForAll(address,address)": {
        "details": "See {IERC721-isApprovedForAll}."
      },
      "name()": {
        "details": "See {IERC721Metadata-name}."
      },
      "ownerOf(uint256)": {
        "details": "See {IERC721-ownerOf}."
      },
      "safeTransferFrom(address,address,uint256)": {
        "details": "See {IERC721-safeTransferFrom}."
      },
      "setApprovalForAll(address,bool)": {
        "details": "See {IERC721-setApprovalForAll}."
      },
      "symbol()": {
        "details": "See {IERC721Metadata-symbol}."
      },
      "tokenByIndex(uint256)": {
        "details": "See {IERC721Enumerable-tokenByIndex}."
      },
      "tokenOfOwnerByIndex(address,uint256)": {
        "details": "See {IERC721Enumerable-tokenOfOwnerByIndex}."
      },
      "tokenURI(uint256)": {
        "details": "See {IERC721Metadata-tokenURI}."
      },
      "totalSupply()": {
        "details": "See {IERC721Enumerable-totalSupply}."
      }
    },
    "version": 1
  },
  "userdoc": {
    "kind": "user",
    "methods": {},
    "version": 1
  }
}