{
  "contractName": "NowggMarketPlace",
  "abi": [
    {
      "inputs": [
        {
          "internalType": "address",
          "name": "nowggFTAddress",
          "type": "address"
        },
        {
          "internalType": "address",
          "name": "nowggNFTAddress",
          "type": "address"
        },
        {
          "internalType": "address",
          "name": "identityTokenAddress",
          "type": "address"
        },
        {
          "internalType": "address",
          "name": "adminAddress",
          "type": "address"
        }
      ],
      "stateMutability": "nonpayable",
      "type": "constructor"
    },
    {
      "inputs": [],
      "name": "registerUser",
      "outputs": [],
      "stateMutability": "nonpayable",
      "type": "function"
    },
    {
      "inputs": [],
      "name": "purchaseCards",
      "outputs": [],
      "stateMutability": "nonpayable",
      "type": "function"
    },
    {
      "inputs": [
        {
          "internalType": "uint256",
          "name": "amount",
          "type": "uint256"
        }
      ],
      "name": "addCurrency",
      "outputs": [],
      "stateMutability": "nonpayable",
      "type": "function"
    }
  ],
  "bytecode": "0x608060405234801561001057600080fd5b50604051610ccf380380610ccf833981810160405281019061003291906101a1565b836000806101000a81548173ffffffffffffffffffffffffffffffffffffffff021916908373ffffffffffffffffffffffffffffffffffffffff16021790555082600260006101000a81548173ffffffffffffffffffffffffffffffffffffffff021916908373ffffffffffffffffffffffffffffffffffffffff16021790555081600160006101000a81548173ffffffffffffffffffffffffffffffffffffffff021916908373ffffffffffffffffffffffffffffffffffffffff16021790555080600360006101000a81548173ffffffffffffffffffffffffffffffffffffffff021916908373ffffffffffffffffffffffffffffffffffffffff16021790555050505050610208565b600080fd5b600073ffffffffffffffffffffffffffffffffffffffff82169050919050565b600061016e82610143565b9050919050565b61017e81610163565b811461018957600080fd5b50565b60008151905061019b81610175565b92915050565b600080600080608085870312156101bb576101ba61013e565b5b60006101c98782880161018c565b94505060206101da8782880161018c565b93505060406101eb8782880161018c565b92505060606101fc8782880161018c565b91505092959194509250565b610ab8806102176000396000f3fe608060405234801561001057600080fd5b50600436106100415760003560e01c80634d3820eb14610046578063afb2635914610050578063cbbcdf771461005a575b600080fd5b61004e610076565b005b6100586102ee565b005b610074600480360381019061006f91906106a3565b6105c6565b005b6000600160009054906101000a900473ffffffffffffffffffffffffffffffffffffffff1673ffffffffffffffffffffffffffffffffffffffff166370a08231336040518263ffffffff1660e01b81526004016100d39190610711565b6020604051808303816000875af11580156100f2573d6000803e3d6000fd5b505050506040513d601f19601f820116820180604052508101906101169190610741565b036102ec57600160009054906101000a900473ffffffffffffffffffffffffffffffffffffffff1673ffffffffffffffffffffffffffffffffffffffff16636a627842336040518263ffffffff1660e01b81526004016101769190610711565b6020604051808303816000875af1158015610195573d6000803e3d6000fd5b505050506040513d601f19601f820116820180604052508101906101b991906107a6565b5060008054906101000a900473ffffffffffffffffffffffffffffffffffffffff1673ffffffffffffffffffffffffffffffffffffffff166340c10f19336127106040518363ffffffff1660e01b8152600401610217929190610818565b6020604051808303816000875af1158015610236573d6000803e3d6000fd5b505050506040513d601f19601f8201168201806040525081019061025a91906107a6565b50600260009054906101000a900473ffffffffffffffffffffffffffffffffffffffff1673ffffffffffffffffffffffffffffffffffffffff16631b34dd6533600a6040518363ffffffff1660e01b81526004016102b992919061087c565b600060405180830381600087803b1580156102d357600080fd5b505af11580156102e7573d6000803e3d6000fd5b505050505b565b61138860008054906101000a900473ffffffffffffffffffffffffffffffffffffffff1673ffffffffffffffffffffffffffffffffffffffff1663dd62ed3e33306040518363ffffffff1660e01b815260040161034c9291906108a5565b602060405180830381865afa158015610369573d6000803e3d6000fd5b505050506040513d601f19601f8201168201806040525081019061038d9190610741565b10156103ce576040517f08c379a00000000000000000000000000000000000000000000000000000000081526004016103c59061092b565b60405180910390fd5b60008054906101000a900473ffffffffffffffffffffffffffffffffffffffff1673ffffffffffffffffffffffffffffffffffffffff166323b872dd33306113886040518463ffffffff1660e01b815260040161042d93929190610986565b6020604051808303816000875af115801561044c573d6000803e3d6000fd5b505050506040513d601f19601f8201168201806040525081019061047091906107a6565b5060008054906101000a900473ffffffffffffffffffffffffffffffffffffffff1673ffffffffffffffffffffffffffffffffffffffff1663a9059cbb600360009054906101000a900473ffffffffffffffffffffffffffffffffffffffff166113886040518363ffffffff1660e01b81526004016104f09291906109bd565b6020604051808303816000875af115801561050f573d6000803e3d6000fd5b505050506040513d601f19601f8201168201806040525081019061053391906107a6565b50600260009054906101000a900473ffffffffffffffffffffffffffffffffffffffff1673ffffffffffffffffffffffffffffffffffffffff16631b34dd653360056040518363ffffffff1660e01b8152600401610592929190610a21565b600060405180830381600087803b1580156105ac57600080fd5b505af11580156105c0573d6000803e3d6000fd5b50505050565b60008054906101000a900473ffffffffffffffffffffffffffffffffffffffff1673ffffffffffffffffffffffffffffffffffffffff166340c10f1933836040518363ffffffff1660e01b8152600401610621929190610a59565b6020604051808303816000875af1158015610640573d6000803e3d6000fd5b505050506040513d601f19601f8201168201806040525081019061066491906107a6565b5050565b600080fd5b6000819050919050565b6106808161066d565b811461068b57600080fd5b50565b60008135905061069d81610677565b92915050565b6000602082840312156106b9576106b8610668565b5b60006106c78482850161068e565b91505092915050565b600073ffffffffffffffffffffffffffffffffffffffff82169050919050565b60006106fb826106d0565b9050919050565b61070b816106f0565b82525050565b60006020820190506107266000830184610702565b92915050565b60008151905061073b81610677565b92915050565b60006020828403121561075757610756610668565b5b60006107658482850161072c565b91505092915050565b60008115159050919050565b6107838161076e565b811461078e57600080fd5b50565b6000815190506107a08161077a565b92915050565b6000602082840312156107bc576107bb610668565b5b60006107ca84828501610791565b91505092915050565b6000819050919050565b6000819050919050565b60006108026107fd6107f8846107d3565b6107dd565b61066d565b9050919050565b610812816107e7565b82525050565b600060408201905061082d6000830185610702565b61083a6020830184610809565b9392505050565b6000819050919050565b600061086661086161085c84610841565b6107dd565b61066d565b9050919050565b6108768161084b565b82525050565b60006040820190506108916000830185610702565b61089e602083018461086d565b9392505050565b60006040820190506108ba6000830185610702565b6108c76020830184610702565b9392505050565b600082825260208201905092915050565b7f496e73756666696369656e7420416c6c6f77616e636500000000000000000000600082015250565b60006109156016836108ce565b9150610920826108df565b602082019050919050565b6000602082019050818103600083015261094481610908565b9050919050565b6000819050919050565b600061097061096b6109668461094b565b6107dd565b61066d565b9050919050565b61098081610955565b82525050565b600060608201905061099b6000830186610702565b6109a86020830185610702565b6109b56040830184610977565b949350505050565b60006040820190506109d26000830185610702565b6109df6020830184610977565b9392505050565b6000819050919050565b6000610a0b610a06610a01846109e6565b6107dd565b61066d565b9050919050565b610a1b816109f0565b82525050565b6000604082019050610a366000830185610702565b610a436020830184610a12565b9392505050565b610a538161066d565b82525050565b6000604082019050610a6e6000830185610702565b610a7b6020830184610a4a565b939250505056fea2646970667358221220460e1a43178c4a5a62a2269e70664346e4e1ac20d9a1d06c0e1801f9d939acaf64736f6c634300080f0033",
  "immutableReferences": {},
  "source": "// SPDX-License-Identifier: MIT\npragma solidity ^0.8.0;\n\ninterface NowggNFTInterface {\n    function registerPlayerCards(address player, uint256 quantity) external;\n}\n\ninterface IdentityNftInterface {\n    function mint(address _to) external payable returns (bool);\n\n    function balanceOf(address user) external returns (uint256);\n}\n\ninterface NowggFTInterface {\n    function mint(address to, uint256 amount) external returns (bool);\n\n    function allowance(address owner, address spender)\n        external\n        view\n        returns (uint256);\n\n    function transferFrom(\n        address from,\n        address to,\n        uint256 amount\n    ) external returns (bool);\n\n    function transfer(address to, uint256 amount) external returns (bool);\n}\n\ncontract NowggMarketPlace {\n    NowggFTInterface token;\n    IdentityNftInterface identityToken;\n    NowggNFTInterface nowggNFT;\n    address admin;\n\n    constructor(\n        address nowggFTAddress,\n        address nowggNFTAddress,\n        address identityTokenAddress,\n        address adminAddress\n    ) {\n        token = NowggFTInterface(nowggFTAddress);\n        nowggNFT = NowggNFTInterface(nowggNFTAddress);\n        identityToken = IdentityNftInterface(identityTokenAddress);\n        admin = adminAddress;\n    }\n\n    // if identity nft exists, then user is authenticated.\n    // todo: error handling needs to be done\n    function registerUser() public {\n        if (identityToken.balanceOf(msg.sender) == 0) {\n            // mint the NFT and assign it to the user.\n            identityToken.mint(msg.sender);\n            token.mint(msg.sender, 10000);\n            nowggNFT.registerPlayerCards(msg.sender, 10);\n        }\n    }\n\n    function purchaseCards() public {\n        require(\n            token.allowance(msg.sender, address(this)) >= 5000,\n            \"Insufficient Allowance\"\n        );\n        token.transferFrom(msg.sender, address(this), 5000);\n        token.transfer(admin, 5000);\n        nowggNFT.registerPlayerCards(msg.sender, 5);\n    }\n\n    function addCurrency(uint256 amount) public {\n        token.mint(msg.sender, amount);\n    }\n}\n",
  "sourcePath": "/Users/bluestacksmac/Documents/GitHub/game-poc/src/contracts/NowggMarketplace.sol",
  "compiler": {
    "name": "solc",
    "version": "0.8.15+commit.e14f2714.Emscripten.clang"
  },
  "schemaVersion": "3.4.8",
  "updatedAt": "2022-07-18T12:26:24.339Z",
  "networkType": "ethereum",
  "devdoc": {
    "kind": "dev",
    "methods": {},
    "version": 1
  },
  "userdoc": {
    "kind": "user",
    "methods": {},
    "version": 1
  }
}