{
  "contractName": "NowggNFT",
  "abi": [
    {
      "inputs": [],
      "stateMutability": "nonpayable",
      "type": "constructor"
    },
    {
      "anonymous": false,
      "inputs": [
        {
          "indexed": true,
          "internalType": "address",
          "name": "owner",
          "type": "address"
        },
        {
          "indexed": true,
          "internalType": "address",
          "name": "approved",
          "type": "address"
        },
        {
          "indexed": true,
          "internalType": "uint256",
          "name": "tokenId",
          "type": "uint256"
        }
      ],
      "name": "Approval",
      "type": "event"
    },
    {
      "anonymous": false,
      "inputs": [
        {
          "indexed": true,
          "internalType": "address",
          "name": "owner",
          "type": "address"
        },
        {
          "indexed": true,
          "internalType": "address",
          "name": "operator",
          "type": "address"
        },
        {
          "indexed": false,
          "internalType": "bool",
          "name": "approved",
          "type": "bool"
        }
      ],
      "name": "ApprovalForAll",
      "type": "event"
    },
    {
      "anonymous": false,
      "inputs": [
        {
          "indexed": true,
          "internalType": "address",
          "name": "previousOwner",
          "type": "address"
        },
        {
          "indexed": true,
          "internalType": "address",
          "name": "newOwner",
          "type": "address"
        }
      ],
      "name": "OwnershipTransferred",
      "type": "event"
    },
    {
      "anonymous": false,
      "inputs": [
        {
          "indexed": true,
          "internalType": "address",
          "name": "from",
          "type": "address"
        },
        {
          "indexed": true,
          "internalType": "address",
          "name": "to",
          "type": "address"
        },
        {
          "indexed": true,
          "internalType": "uint256",
          "name": "tokenId",
          "type": "uint256"
        }
      ],
      "name": "Transfer",
      "type": "event"
    },
    {
      "inputs": [],
      "name": "_pokemons",
      "outputs": [
        {
          "internalType": "uint256",
          "name": "totalPokemons",
          "type": "uint256"
        }
      ],
      "stateMutability": "view",
      "type": "function",
      "constant": true
    },
    {
      "inputs": [
        {
          "internalType": "address",
          "name": "to",
          "type": "address"
        },
        {
          "internalType": "uint256",
          "name": "tokenId",
          "type": "uint256"
        }
      ],
      "name": "approve",
      "outputs": [],
      "stateMutability": "nonpayable",
      "type": "function"
    },
    {
      "inputs": [
        {
          "internalType": "address",
          "name": "owner",
          "type": "address"
        }
      ],
      "name": "balanceOf",
      "outputs": [
        {
          "internalType": "uint256",
          "name": "",
          "type": "uint256"
        }
      ],
      "stateMutability": "view",
      "type": "function",
      "constant": true
    },
    {
      "inputs": [
        {
          "internalType": "uint256",
          "name": "tokenId",
          "type": "uint256"
        }
      ],
      "name": "getApproved",
      "outputs": [
        {
          "internalType": "address",
          "name": "",
          "type": "address"
        }
      ],
      "stateMutability": "view",
      "type": "function",
      "constant": true
    },
    {
      "inputs": [
        {
          "internalType": "address",
          "name": "owner",
          "type": "address"
        },
        {
          "internalType": "address",
          "name": "operator",
          "type": "address"
        }
      ],
      "name": "isApprovedForAll",
      "outputs": [
        {
          "internalType": "bool",
          "name": "",
          "type": "bool"
        }
      ],
      "stateMutability": "view",
      "type": "function",
      "constant": true
    },
    {
      "inputs": [],
      "name": "name",
      "outputs": [
        {
          "internalType": "string",
          "name": "",
          "type": "string"
        }
      ],
      "stateMutability": "view",
      "type": "function",
      "constant": true
    },
    {
      "inputs": [],
      "name": "owner",
      "outputs": [
        {
          "internalType": "address",
          "name": "",
          "type": "address"
        }
      ],
      "stateMutability": "view",
      "type": "function",
      "constant": true
    },
    {
      "inputs": [
        {
          "internalType": "uint256",
          "name": "tokenId",
          "type": "uint256"
        }
      ],
      "name": "ownerOf",
      "outputs": [
        {
          "internalType": "address",
          "name": "",
          "type": "address"
        }
      ],
      "stateMutability": "view",
      "type": "function",
      "constant": true
    },
    {
      "inputs": [
        {
          "internalType": "address",
          "name": "",
          "type": "address"
        },
        {
          "internalType": "uint256",
          "name": "",
          "type": "uint256"
        }
      ],
      "name": "playerOwnedNfts",
      "outputs": [
        {
          "internalType": "uint256",
          "name": "",
          "type": "uint256"
        }
      ],
      "stateMutability": "view",
      "type": "function",
      "constant": true
    },
    {
      "inputs": [
        {
          "internalType": "uint256",
          "name": "",
          "type": "uint256"
        }
      ],
      "name": "pokemonMetaData",
      "outputs": [
        {
          "internalType": "uint256",
          "name": "id",
          "type": "uint256"
        },
        {
          "internalType": "string",
          "name": "name",
          "type": "string"
        },
        {
          "internalType": "string",
          "name": "image",
          "type": "string"
        },
        {
          "internalType": "uint8",
          "name": "hp",
          "type": "uint8"
        },
        {
          "internalType": "uint8",
          "name": "attack",
          "type": "uint8"
        },
        {
          "internalType": "uint8",
          "name": "defense",
          "type": "uint8"
        },
        {
          "internalType": "uint8",
          "name": "spAttack",
          "type": "uint8"
        },
        {
          "internalType": "uint8",
          "name": "spDefense",
          "type": "uint8"
        },
        {
          "internalType": "uint8",
          "name": "speed",
          "type": "uint8"
        }
      ],
      "stateMutability": "view",
      "type": "function",
      "constant": true
    },
    {
      "inputs": [],
      "name": "renounceOwnership",
      "outputs": [],
      "stateMutability": "nonpayable",
      "type": "function"
    },
    {
      "inputs": [
        {
          "internalType": "address",
          "name": "from",
          "type": "address"
        },
        {
          "internalType": "address",
          "name": "to",
          "type": "address"
        },
        {
          "internalType": "uint256",
          "name": "tokenId",
          "type": "uint256"
        }
      ],
      "name": "safeTransferFrom",
      "outputs": [],
      "stateMutability": "nonpayable",
      "type": "function"
    },
    {
      "inputs": [
        {
          "internalType": "address",
          "name": "from",
          "type": "address"
        },
        {
          "internalType": "address",
          "name": "to",
          "type": "address"
        },
        {
          "internalType": "uint256",
          "name": "tokenId",
          "type": "uint256"
        },
        {
          "internalType": "bytes",
          "name": "data",
          "type": "bytes"
        }
      ],
      "name": "safeTransferFrom",
      "outputs": [],
      "stateMutability": "nonpayable",
      "type": "function"
    },
    {
      "inputs": [
        {
          "internalType": "address",
          "name": "operator",
          "type": "address"
        },
        {
          "internalType": "bool",
          "name": "approved",
          "type": "bool"
        }
      ],
      "name": "setApprovalForAll",
      "outputs": [],
      "stateMutability": "nonpayable",
      "type": "function"
    },
    {
      "inputs": [],
      "name": "symbol",
      "outputs": [
        {
          "internalType": "string",
          "name": "",
          "type": "string"
        }
      ],
      "stateMutability": "view",
      "type": "function",
      "constant": true
    },
    {
      "inputs": [
        {
          "internalType": "address",
          "name": "from",
          "type": "address"
        },
        {
          "internalType": "address",
          "name": "to",
          "type": "address"
        },
        {
          "internalType": "uint256",
          "name": "tokenId",
          "type": "uint256"
        }
      ],
      "name": "transferFrom",
      "outputs": [],
      "stateMutability": "nonpayable",
      "type": "function"
    },
    {
      "inputs": [
        {
          "internalType": "address",
          "name": "newOwner",
          "type": "address"
        }
      ],
      "name": "transferOwnership",
      "outputs": [],
      "stateMutability": "nonpayable",
      "type": "function"
    },
    {
      "inputs": [
        {
          "internalType": "address",
          "name": "deployedContractAddress",
          "type": "address"
        }
      ],
      "name": "setNowggMarketPlaceAddress",
      "outputs": [],
      "stateMutability": "nonpayable",
      "type": "function"
    },
    {
      "inputs": [
        {
          "internalType": "uint256",
          "name": "index",
          "type": "uint256"
        }
      ],
      "name": "getPokemon",
      "outputs": [
        {
          "components": [
            {
              "internalType": "uint256",
              "name": "id",
              "type": "uint256"
            },
            {
              "internalType": "string",
              "name": "name",
              "type": "string"
            },
            {
              "internalType": "string[2]",
              "name": "pokemonType",
              "type": "string[2]"
            },
            {
              "internalType": "string",
              "name": "image",
              "type": "string"
            },
            {
              "internalType": "uint8",
              "name": "hp",
              "type": "uint8"
            },
            {
              "internalType": "uint8",
              "name": "attack",
              "type": "uint8"
            },
            {
              "internalType": "uint8",
              "name": "defense",
              "type": "uint8"
            },
            {
              "internalType": "uint8",
              "name": "spAttack",
              "type": "uint8"
            },
            {
              "internalType": "uint8",
              "name": "spDefense",
              "type": "uint8"
            },
            {
              "internalType": "uint8",
              "name": "speed",
              "type": "uint8"
            }
          ],
          "internalType": "struct NowggNFT.Pokemon",
          "name": "",
          "type": "tuple"
        }
      ],
      "stateMutability": "view",
      "type": "function",
      "constant": true
    },
    {
      "inputs": [
        {
          "internalType": "uint256",
          "name": "_modulus",
          "type": "uint256"
        }
      ],
      "name": "randMod",
      "outputs": [
        {
          "internalType": "uint256",
          "name": "",
          "type": "uint256"
        }
      ],
      "stateMutability": "nonpayable",
      "type": "function"
    },
    {
      "inputs": [
        {
          "internalType": "address",
          "name": "player",
          "type": "address"
        },
        {
          "internalType": "uint256",
          "name": "quantity",
          "type": "uint256"
        }
      ],
      "name": "registerPlayerCards",
      "outputs": [],
      "stateMutability": "nonpayable",
      "type": "function"
    },
    {
      "inputs": [],
      "name": "getAllTokensByOwner",
      "outputs": [
        {
          "internalType": "uint256[]",
          "name": "",
          "type": "uint256[]"
        }
      ],
      "stateMutability": "view",
      "type": "function",
      "constant": true
    },
    {
      "inputs": [
        {
          "internalType": "uint256",
          "name": "token",
          "type": "uint256"
        }
      ],
      "name": "getPokemonMetaData",
      "outputs": [
        {
          "components": [
            {
              "internalType": "uint256",
              "name": "id",
              "type": "uint256"
            },
            {
              "internalType": "string",
              "name": "name",
              "type": "string"
            },
            {
              "internalType": "string[2]",
              "name": "pokemonType",
              "type": "string[2]"
            },
            {
              "internalType": "string",
              "name": "image",
              "type": "string"
            },
            {
              "internalType": "uint8",
              "name": "hp",
              "type": "uint8"
            },
            {
              "internalType": "uint8",
              "name": "attack",
              "type": "uint8"
            },
            {
              "internalType": "uint8",
              "name": "defense",
              "type": "uint8"
            },
            {
              "internalType": "uint8",
              "name": "spAttack",
              "type": "uint8"
            },
            {
              "internalType": "uint8",
              "name": "spDefense",
              "type": "uint8"
            },
            {
              "internalType": "uint8",
              "name": "speed",
              "type": "uint8"
            }
          ],
          "internalType": "struct NowggNFT.Pokemon",
          "name": "",
          "type": "tuple"
        }
      ],
      "stateMutability": "view",
      "type": "function",
      "constant": true
    },
    {
      "inputs": [
        {
          "internalType": "bytes4",
          "name": "interfaceId",
          "type": "bytes4"
        }
      ],
      "name": "supportsInterface",
      "outputs": [
        {
          "internalType": "bool",
          "name": "",
          "type": "bool"
        }
      ],
      "stateMutability": "view",
      "type": "function",
      "constant": true
    },
    {
      "inputs": [
        {
          "internalType": "address",
          "name": "to",
          "type": "address"
        },
        {
          "internalType": "uint256",
          "name": "tokenId",
          "type": "uint256"
        },
        {
          "components": [
            {
              "internalType": "uint256",
              "name": "id",
              "type": "uint256"
            },
            {
              "internalType": "string",
              "name": "name",
              "type": "string"
            },
            {
              "internalType": "string[2]",
              "name": "pokemonType",
              "type": "string[2]"
            },
            {
              "internalType": "string",
              "name": "image",
              "type": "string"
            },
            {
              "internalType": "uint8",
              "name": "hp",
              "type": "uint8"
            },
            {
              "internalType": "uint8",
              "name": "attack",
              "type": "uint8"
            },
            {
              "internalType": "uint8",
              "name": "defense",
              "type": "uint8"
            },
            {
              "internalType": "uint8",
              "name": "spAttack",
              "type": "uint8"
            },
            {
              "internalType": "uint8",
              "name": "spDefense",
              "type": "uint8"
            },
            {
              "internalType": "uint8",
              "name": "speed",
              "type": "uint8"
            }
          ],
          "internalType": "struct NowggNFT.Pokemon",
          "name": "_pokemon",
          "type": "tuple"
        }
      ],
      "name": "mint",
      "outputs": [],
      "stateMutability": "nonpayable",
      "type": "function"
    },
    {
      "inputs": [
        {
          "internalType": "uint256",
          "name": "tokenId",
          "type": "uint256"
        }
      ],
      "name": "tokenURI",
      "outputs": [
        {
          "internalType": "string",
          "name": "",
          "type": "string"
        }
      ],
      "stateMutability": "view",
      "type": "function",
      "constant": true
    }
  ],
  "bytecode": "0x60806040526000600d553480156200001657600080fd5b506040518060400160405280600881526020017f4e6f7767674e46540000000000000000000000000000000000000000000000008152506040518060400160405280600281526020017f4e5400000000000000000000000000000000000000000000000000000000000081525081600090816200009491906200feef565b508060019081620000a691906200feef565b505050620000c9620000bd6200fac760201b60201c565b6200facf60201b60201c565b604051806101400160405280601081526020016040518060400160405280600681526020017f5069646765790000000000000000000000000000000000000000000000000000815250815260200160405180604001604052806040518060400160405280600681526020017f4e6f726d616c000000000000000000000000000000000000000000000000000081525081526020016040518060400160405280600681526020017f466c79696e67000000000000000000000000000000000000000000000000000081525081525081526020016040518060600160405280603d815260200162015927603d91398152602001602860ff168152602001602d60ff168152602001602860ff168152602001602360ff168152602001602360ff168152602001603860ff16815250600b60000160008081526020019081526020016000206000820151816000015560208201518160010190816200022b91906200feef565b50604082015181600201906002620002459291906200fb95565b5060608201518160040190816200025d91906200feef565b5060808201518160050160006101000a81548160ff021916908360ff16021790555060a08201518160050160016101000a81548160ff021916908360ff16021790555060c08201518160050160026101000a81548160ff021916908360ff16021790555060e08201518160050160036101000a81548160ff021916908360ff1602179055506101008201518160050160046101000a81548160ff021916908360ff1602179055506101208201518160050160056101000a81548160ff021916908360ff160217905550905050604051806101400160405280601181526020016040518060400160405280600981526020017f50696467656f74746f0000000000000000000000000000000000000000000000815250815260200160405180604001604052806040518060400160405280600681526020017f4e6f726d616c000000000000000000000000000000000000000000000000000081525081526020016040518060400160405280600681526020017f466c79696e67000000000000000000000000000000000000000000000000000081525081525081526020016040518060600160405280603d815260200162014cc3603d91398152602001603f60ff168152602001603c60ff168152602001603760ff168152602001603260ff168152602001603260ff168152602001604760ff16815250600b6000016000600181526020019081526020016000206000820151816000015560208201518160010190816200048c91906200feef565b50604082015181600201906002620004a69291906200fb95565b506060820151816004019081620004be91906200feef565b5060808201518160050160006101000a81548160ff021916908360ff16021790555060a08201518160050160016101000a81548160ff021916908360ff16021790555060c08201518160050160026101000a81548160ff021916908360ff16021790555060e08201518160050160036101000a81548160ff021916908360ff1602179055506101008201518160050160046101000a81548160ff021916908360ff1602179055506101208201518160050160056101000a81548160ff021916908360ff160217905550905050604051806101400160405280601281526020016040518060400160405280600781526020017f50696467656f7400000000000000000000000000000000000000000000000000815250815260200160405180604001604052806040518060400160405280600681526020017f4e6f726d616c000000000000000000000000000000000000000000000000000081525081526020016040518060400160405280600681526020017f466c79696e67000000000000000000000000000000000000000000000000000081525081525081526020016040518060600160405280603d8152602001620160c7603d91398152602001605360ff168152602001605060ff168152602001604b60ff168152602001604660ff168152602001604660ff168152602001606560ff16815250600b600001600060028152602001908152602001600020600082015181600001556020820151816001019081620006ed91906200feef565b50604082015181600201906002620007079291906200fb95565b5060608201518160040190816200071f91906200feef565b5060808201518160050160006101000a81548160ff021916908360ff16021790555060a08201518160050160016101000a81548160ff021916908360ff16021790555060c08201518160050160026101000a81548160ff021916908360ff16021790555060e08201518160050160036101000a81548160ff021916908360ff1602179055506101008201518160050160046101000a81548160ff021916908360ff1602179055506101208201518160050160056101000a81548160ff021916908360ff160217905550905050604051806101400160405280601381526020016040518060400160405280600781526020017f5261747461746100000000000000000000000000000000000000000000000000815250815260200160405180604001604052806040518060400160405280600681526020017f4e6f726d616c000000000000000000000000000000000000000000000000000081525081526020016040518060200160405280600081525081525081526020016040518060600160405280603d815260200162014bcf603d91398152602001601e60ff168152602001603860ff168152602001602360ff168152602001601960ff168152602001602360ff168152602001604860ff16815250600b6000016000600381526020019081526020016000206000820151816000015560208201518160010190816200092891906200feef565b50604082015181600201906002620009429291906200fb95565b5060608201518160040190816200095a91906200feef565b5060808201518160050160006101000a81548160ff021916908360ff16021790555060a08201518160050160016101000a81548160ff021916908360ff16021790555060c08201518160050160026101000a81548160ff021916908360ff16021790555060e08201518160050160036101000a81548160ff021916908360ff1602179055506101008201518160050160046101000a81548160ff021916908360ff1602179055506101208201518160050160056101000a81548160ff021916908360ff160217905550905050604051806101400160405280601481526020016040518060400160405280600881526020017f5261746963617465000000000000000000000000000000000000000000000000815250815260200160405180604001604052806040518060400160405280600681526020017f4e6f726d616c000000000000000000000000000000000000000000000000000081525081526020016040518060200160405280600081525081525081526020016040518060600160405280603d815260200162015332603d91398152602001603760ff168152602001605160ff168152602001603c60ff168152602001603260ff168152602001604660ff168152602001606160ff16815250600b60000160006004815260200190815260200160002060008201518160000155602082015181600101908162000b6391906200feef565b5060408201518160020190600262000b7d9291906200fb95565b50606082015181600401908162000b9591906200feef565b5060808201518160050160006101000a81548160ff021916908360ff16021790555060a08201518160050160016101000a81548160ff021916908360ff16021790555060c08201518160050160026101000a81548160ff021916908360ff16021790555060e08201518160050160036101000a81548160ff021916908360ff1602179055506101008201518160050160046101000a81548160ff021916908360ff1602179055506101208201518160050160056101000a81548160ff021916908360ff160217905550905050604051806101400160405280601581526020016040518060400160405280600781526020017f53706561726f7700000000000000000000000000000000000000000000000000815250815260200160405180604001604052806040518060400160405280600681526020017f4e6f726d616c000000000000000000000000000000000000000000000000000081525081526020016040518060400160405280600681526020017f466c79696e67000000000000000000000000000000000000000000000000000081525081525081526020016040518060600160405280603d815260200162015e28603d91398152602001602860ff168152602001603c60ff168152602001601e60ff168152602001601f60ff168152602001601f60ff168152602001604660ff16815250600b60000160006005815260200190815260200160002060008201518160000155602082015181600101908162000dc491906200feef565b5060408201518160020190600262000dde9291906200fb95565b50606082015181600401908162000df691906200feef565b5060808201518160050160006101000a81548160ff021916908360ff16021790555060a08201518160050160016101000a81548160ff021916908360ff16021790555060c08201518160050160026101000a81548160ff021916908360ff16021790555060e08201518160050160036101000a81548160ff021916908360ff1602179055506101008201518160050160046101000a81548160ff021916908360ff1602179055506101208201518160050160056101000a81548160ff021916908360ff160217905550905050604051806101400160405280601681526020016040518060400160405280600681526020017f466561726f770000000000000000000000000000000000000000000000000000815250815260200160405180604001604052806040518060400160405280600681526020017f4e6f726d616c000000000000000000000000000000000000000000000000000081525081526020016040518060400160405280600681526020017f466c79696e67000000000000000000000000000000000000000000000000000081525081525081526020016040518060600160405280603d81526020016201560e603d91398152602001604160ff168152602001605a60ff168152602001604160ff168152602001603d60ff168152602001603d60ff168152602001606460ff16815250600b6000016000600681526020019081526020016000206000820151816000015560208201518160010190816200102591906200feef565b506040820151816002019060026200103f9291906200fb95565b5060608201518160040190816200105791906200feef565b5060808201518160050160006101000a81548160ff021916908360ff16021790555060a08201518160050160016101000a81548160ff021916908360ff16021790555060c08201518160050160026101000a81548160ff021916908360ff16021790555060e08201518160050160036101000a81548160ff021916908360ff1602179055506101008201518160050160046101000a81548160ff021916908360ff1602179055506101208201518160050160056101000a81548160ff021916908360ff160217905550905050604051806101400160405280602781526020016040518060400160405280600a81526020017f4a6967676c797075666600000000000000000000000000000000000000000000815250815260200160405180604001604052806040518060400160405280600681526020017f4e6f726d616c000000000000000000000000000000000000000000000000000081525081526020016040518060400160405280600581526020017f466169727900000000000000000000000000000000000000000000000000000081525081525081526020016040518060600160405280603d815260200162015557603d91398152602001607360ff168152602001602d60ff168152602001601460ff168152602001602d60ff168152602001601960ff168152602001601460ff16815250600b6000016000600781526020019081526020016000206000820151816000015560208201518160010190816200128691906200feef565b50604082015181600201906002620012a09291906200fb95565b506060820151816004019081620012b891906200feef565b5060808201518160050160006101000a81548160ff021916908360ff16021790555060a08201518160050160016101000a81548160ff021916908360ff16021790555060c08201518160050160026101000a81548160ff021916908360ff16021790555060e08201518160050160036101000a81548160ff021916908360ff1602179055506101008201518160050160046101000a81548160ff021916908360ff1602179055506101208201518160050160056101000a81548160ff021916908360ff160217905550905050604051806101400160405280602881526020016040518060400160405280600a81526020017f576967676c797475666600000000000000000000000000000000000000000000815250815260200160405180604001604052806040518060400160405280600681526020017f4e6f726d616c000000000000000000000000000000000000000000000000000081525081526020016040518060400160405280600581526020017f466169727900000000000000000000000000000000000000000000000000000081525081525081526020016040518060600160405280603d81526020016201654e603d91398152602001608c60ff168152602001604660ff168152602001602d60ff168152602001605560ff168152602001603260ff168152602001602d60ff16815250600b600001600060088152602001908152602001600020600082015181600001556020820151816001019081620014e791906200feef565b50604082015181600201906002620015019291906200fb95565b5060608201518160040190816200151991906200feef565b5060808201518160050160006101000a81548160ff021916908360ff16021790555060a08201518160050160016101000a81548160ff021916908360ff16021790555060c08201518160050160026101000a81548160ff021916908360ff16021790555060e08201518160050160036101000a81548160ff021916908360ff1602179055506101008201518160050160046101000a81548160ff021916908360ff1602179055506101208201518160050160056101000a81548160ff021916908360ff160217905550905050604051806101400160405280603481526020016040518060400160405280600681526020017f4d656f7774680000000000000000000000000000000000000000000000000000815250815260200160405180604001604052806040518060400160405280600681526020017f4e6f726d616c000000000000000000000000000000000000000000000000000081525081526020016040518060200160405280600081525081525081526020016040518060600160405280603d815260200162016010603d91398152602001602860ff168152602001602d60ff168152602001602360ff168152602001602860ff168152602001602860ff168152602001605a60ff16815250600b6000016000600981526020019081526020016000206000820151816000015560208201518160010190816200172291906200feef565b506040820151816002019060026200173c9291906200fb95565b5060608201518160040190816200175491906200feef565b5060808201518160050160006101000a81548160ff021916908360ff16021790555060a08201518160050160016101000a81548160ff021916908360ff16021790555060c08201518160050160026101000a81548160ff021916908360ff16021790555060e08201518160050160036101000a81548160ff021916908360ff1602179055506101008201518160050160046101000a81548160ff021916908360ff1602179055506101208201518160050160056101000a81548160ff021916908360ff160217905550905050604051806101400160405280603581526020016040518060400160405280600781526020017f5065727369616e00000000000000000000000000000000000000000000000000815250815260200160405180604001604052806040518060400160405280600681526020017f4e6f726d616c000000000000000000000000000000000000000000000000000081525081526020016040518060200160405280600081525081525081526020016040518060600160405280603d81526020016201617e603d91398152602001604160ff168152602001604660ff168152602001603c60ff168152602001604160ff168152602001604160ff168152602001607360ff16815250600b6000016000600a81526020019081526020016000206000820151816000015560208201518160010190816200195d91906200feef565b50604082015181600201906002620019779291906200fb95565b5060608201518160040190816200198f91906200feef565b5060808201518160050160006101000a81548160ff021916908360ff16021790555060a08201518160050160016101000a81548160ff021916908360ff16021790555060c08201518160050160026101000a81548160ff021916908360ff16021790555060e08201518160050160036101000a81548160ff021916908360ff1602179055506101008201518160050160046101000a81548160ff021916908360ff1602179055506101208201518160050160056101000a81548160ff021916908360ff160217905550905050604051806101400160405280605381526020016040518060400160405280600a81526020017f4661726665746368656400000000000000000000000000000000000000000000815250815260200160405180604001604052806040518060400160405280600681526020017f4e6f726d616c000000000000000000000000000000000000000000000000000081525081526020016040518060400160405280600681526020017f466c79696e67000000000000000000000000000000000000000000000000000081525081525081526020016040518060600160405280603d8152602001620157b9603d91398152602001603460ff168152602001605a60ff168152602001603760ff168152602001603a60ff168152602001603e60ff168152602001603c60ff16815250600b6000016000600b815260200190815260200160002060008201518160000155602082015181600101908162001bbe91906200feef565b5060408201518160020190600262001bd89291906200fb95565b50606082015181600401908162001bf091906200feef565b5060808201518160050160006101000a81548160ff021916908360ff16021790555060a08201518160050160016101000a81548160ff021916908360ff16021790555060c08201518160050160026101000a81548160ff021916908360ff16021790555060e08201518160050160036101000a81548160ff021916908360ff1602179055506101008201518160050160046101000a81548160ff021916908360ff1602179055506101208201518160050160056101000a81548160ff021916908360ff160217905550905050604051806101400160405280605481526020016040518060400160405280600581526020017f446f64756f000000000000000000000000000000000000000000000000000000815250815260200160405180604001604052806040518060400160405280600681526020017f4e6f726d616c000000000000000000000000000000000000000000000000000081525081526020016040518060400160405280600681526020017f466c79696e67000000000000000000000000000000000000000000000000000081525081525081526020016040518060600160405280603d815260200162015870603d91398152602001602360ff168152602001605560ff168152602001602d60ff168152602001602360ff168152602001602360ff168152602001604b60ff16815250600b6000016000600c815260200190815260200160002060008201518160000155602082015181600101908162001e1f91906200feef565b5060408201518160020190600262001e399291906200fb95565b50606082015181600401908162001e5191906200feef565b5060808201518160050160006101000a81548160ff021916908360ff16021790555060a08201518160050160016101000a81548160ff021916908360ff16021790555060c08201518160050160026101000a81548160ff021916908360ff16021790555060e08201518160050160036101000a81548160ff021916908360ff1602179055506101008201518160050160046101000a81548160ff021916908360ff1602179055506101208201518160050160056101000a81548160ff021916908360ff160217905550905050604051806101400160405280605581526020016040518060400160405280600681526020017f446f6472696f0000000000000000000000000000000000000000000000000000815250815260200160405180604001604052806040518060400160405280600681526020017f4e6f726d616c000000000000000000000000000000000000000000000000000081525081526020016040518060400160405280600681526020017f466c79696e67000000000000000000000000000000000000000000000000000081525081525081526020016040518060600160405280603d815260200162014d3d603d91398152602001603c60ff168152602001606e60ff168152602001604660ff168152602001603c60ff168152602001603c60ff168152602001606e60ff16815250600b6000016000600d81526020019081526020016000206000820151816000015560208201518160010190816200208091906200feef565b506040820151816002019060026200209a9291906200fb95565b506060820151816004019081620020b291906200feef565b5060808201518160050160006101000a81548160ff021916908360ff16021790555060a08201518160050160016101000a81548160ff021916908360ff16021790555060c08201518160050160026101000a81548160ff021916908360ff16021790555060e08201518160050160036101000a81548160ff021916908360ff1602179055506101008201518160050160046101000a81548160ff021916908360ff1602179055506101208201518160050160056101000a81548160ff021916908360ff160217905550905050604051806101400160405280606c81526020016040518060400160405280600981526020017f4c69636b6974756e670000000000000000000000000000000000000000000000815250815260200160405180604001604052806040518060400160405280600681526020017f4e6f726d616c000000000000000000000000000000000000000000000000000081525081526020016040518060200160405280600081525081525081526020016040518060600160405280603d815260200162014eab603d91398152602001605a60ff168152602001603760ff168152602001604b60ff168152602001603c60ff168152602001604b60ff168152602001601e60ff16815250600b6000016000600e8152602001908152602001600020600082015181600001556020820151816001019081620022bb91906200feef565b50604082015181600201906002620022d59291906200fb95565b506060820151816004019081620022ed91906200feef565b5060808201518160050160006101000a81548160ff021916908360ff16021790555060a08201518160050160016101000a81548160ff021916908360ff16021790555060c08201518160050160026101000a81548160ff021916908360ff16021790555060e08201518160050160036101000a81548160ff021916908360ff1602179055506101008201518160050160046101000a81548160ff021916908360ff1602179055506101208201518160050160056101000a81548160ff021916908360ff160217905550905050604051806101400160405280607181526020016040518060400160405280600781526020017f4368616e73657900000000000000000000000000000000000000000000000000815250815260200160405180604001604052806040518060400160405280600681526020017f4e6f726d616c000000000000000000000000000000000000000000000000000081525081526020016040518060200160405280600081525081525081526020016040518060600160405280603d8152602001620153ac603d9139815260200160fa60ff168152602001600560ff168152602001600560ff168152602001602360ff168152602001606960ff168152602001603260ff16815250600b6000016000600f8152602001908152602001600020600082015181600001556020820151816001019081620024f691906200feef565b50604082015181600201906002620025109291906200fb95565b5060608201518160040190816200252891906200feef565b5060808201518160050160006101000a81548160ff021916908360ff16021790555060a08201518160050160016101000a81548160ff021916908360ff16021790555060c08201518160050160026101000a81548160ff021916908360ff16021790555060e08201518160050160036101000a81548160ff021916908360ff1602179055506101008201518160050160046101000a81548160ff021916908360ff1602179055506101208201518160050160056101000a81548160ff021916908360ff160217905550905050604051806101400160405280607381526020016040518060400160405280600a81526020017f4b616e6761736b68616e00000000000000000000000000000000000000000000815250815260200160405180604001604052806040518060400160405280600681526020017f4e6f726d616c000000000000000000000000000000000000000000000000000081525081526020016040518060200160405280600081525081525081526020016040518060600160405280603d815260200162015b4c603d91398152602001606960ff168152602001605f60ff168152602001605060ff168152602001602860ff168152602001605060ff168152602001605a60ff16815250600b6000016000601081526020019081526020016000206000820151816000015560208201518160010190816200273191906200feef565b506040820151816002019060026200274b9291906200fb95565b5060608201518160040190816200276391906200feef565b5060808201518160050160006101000a81548160ff021916908360ff16021790555060a08201518160050160016101000a81548160ff021916908360ff16021790555060c08201518160050160026101000a81548160ff021916908360ff16021790555060e08201518160050160036101000a81548160ff021916908360ff1602179055506101008201518160050160046101000a81548160ff021916908360ff1602179055506101208201518160050160056101000a81548160ff021916908360ff160217905550905050604051806101400160405280608081526020016040518060400160405280600681526020017f546175726f730000000000000000000000000000000000000000000000000000815250815260200160405180604001604052806040518060400160405280600681526020017f4e6f726d616c000000000000000000000000000000000000000000000000000081525081526020016040518060200160405280600081525081525081526020016040518060600160405280603d81526020016201527b603d91398152602001604b60ff168152602001606460ff168152602001605f60ff168152602001602860ff168152602001604660ff168152602001606e60ff16815250600b6000016000601181526020019081526020016000206000820151816000015560208201518160010190816200296c91906200feef565b50604082015181600201906002620029869291906200fb95565b5060608201518160040190816200299e91906200feef565b5060808201518160050160006101000a81548160ff021916908360ff16021790555060a08201518160050160016101000a81548160ff021916908360ff16021790555060c08201518160050160026101000a81548160ff021916908360ff16021790555060e08201518160050160036101000a81548160ff021916908360ff1602179055506101008201518160050160046101000a81548160ff021916908360ff1602179055506101208201518160050160056101000a81548160ff021916908360ff160217905550905050604051806101400160405280608481526020016040518060400160405280600581526020017f446974746f000000000000000000000000000000000000000000000000000000815250815260200160405180604001604052806040518060400160405280600681526020017f4e6f726d616c000000000000000000000000000000000000000000000000000081525081526020016040518060200160405280600081525081525081526020016040518060600160405280603d815260200162015019603d91398152602001603060ff168152602001603060ff168152602001603060ff168152602001603060ff168152602001603060ff168152602001603060ff16815250600b60000160006012815260200190815260200160002060008201518160000155602082015181600101908162002ba791906200feef565b5060408201518160020190600262002bc19291906200fb95565b50606082015181600401908162002bd991906200feef565b5060808201518160050160006101000a81548160ff021916908360ff16021790555060a08201518160050160016101000a81548160ff021916908360ff16021790555060c08201518160050160026101000a81548160ff021916908360ff16021790555060e08201518160050160036101000a81548160ff021916908360ff1602179055506101008201518160050160046101000a81548160ff021916908360ff1602179055506101208201518160050160056101000a81548160ff021916908360ff160217905550905050604051806101400160405280608581526020016040518060400160405280600581526020017f4565766565000000000000000000000000000000000000000000000000000000815250815260200160405180604001604052806040518060400160405280600681526020017f4e6f726d616c000000000000000000000000000000000000000000000000000081525081526020016040518060200160405280600081525081525081526020016040518060600160405280603d815260200162015702603d91398152602001603760ff168152602001603760ff168152602001603260ff168152602001602d60ff168152602001604160ff168152602001603760ff16815250600b60000160006013815260200190815260200160002060008201518160000155602082015181600101908162002de291906200feef565b5060408201518160020190600262002dfc9291906200fb95565b50606082015181600401908162002e1491906200feef565b5060808201518160050160006101000a81548160ff021916908360ff16021790555060a08201518160050160016101000a81548160ff021916908360ff16021790555060c08201518160050160026101000a81548160ff021916908360ff16021790555060e08201518160050160036101000a81548160ff021916908360ff1602179055506101008201518160050160046101000a81548160ff021916908360ff1602179055506101208201518160050160056101000a81548160ff021916908360ff160217905550905050604051806101400160405280608981526020016040518060400160405280600781526020017f506f7279676f6e00000000000000000000000000000000000000000000000000815250815260200160405180604001604052806040518060400160405280600681526020017f4e6f726d616c000000000000000000000000000000000000000000000000000081525081526020016040518060200160405280600081525081525081526020016040518060600160405280603d81526020016201645a603d91398152602001604160ff168152602001603c60ff168152602001604660ff168152602001605560ff168152602001604b60ff168152602001602860ff16815250600b6000016000601481526020019081526020016000206000820151816000015560208201518160010190816200301d91906200feef565b50604082015181600201906002620030379291906200fb95565b5060608201518160040190816200304f91906200feef565b5060808201518160050160006101000a81548160ff021916908360ff16021790555060a08201518160050160016101000a81548160ff021916908360ff16021790555060c08201518160050160026101000a81548160ff021916908360ff16021790555060e08201518160050160036101000a81548160ff021916908360ff1602179055506101008201518160050160046101000a81548160ff021916908360ff1602179055506101208201518160050160056101000a81548160ff021916908360ff160217905550905050604051806101400160405280608f81526020016040518060400160405280600781526020017f536e6f726c617800000000000000000000000000000000000000000000000000815250815260200160405180604001604052806040518060400160405280600681526020017f4e6f726d616c000000000000000000000000000000000000000000000000000081525081526020016040518060200160405280600081525081525081526020016040518060600160405280603d815260200162015187603d9139815260200160a060ff168152602001606e60ff168152602001604160ff168152602001604160ff168152602001606e60ff168152602001601e60ff16815250600b6000016000601581526020019081526020016000206000820151816000015560208201518160010190816200325891906200feef565b50604082015181600201906002620032729291906200fb95565b5060608201518160040190816200328a91906200feef565b5060808201518160050160006101000a81548160ff021916908360ff16021790555060a08201518160050160016101000a81548160ff021916908360ff16021790555060c08201518160050160026101000a81548160ff021916908360ff16021790555060e08201518160050160036101000a81548160ff021916908360ff1602179055506101008201518160050160046101000a81548160ff021916908360ff1602179055506101208201518160050160056101000a81548160ff021916908360ff16021790555090505060405180610140016040528060a181526020016040518060400160405280600781526020017f53656e7472657400000000000000000000000000000000000000000000000000815250815260200160405180604001604052806040518060400160405280600681526020017f4e6f726d616c000000000000000000000000000000000000000000000000000081525081526020016040518060200160405280600081525081525081526020016040518060600160405280603d815260200162015e65603d91398152602001602360ff168152602001602e60ff168152602001602260ff168152602001602360ff168152602001602d60ff168152602001601460ff16815250600b6000016000601681526020019081526020016000206000820151816000015560208201518160010190816200349391906200feef565b50604082015181600201906002620034ad9291906200fb95565b506060820151816004019081620034c591906200feef565b5060808201518160050160006101000a81548160ff021916908360ff16021790555060a08201518160050160016101000a81548160ff021916908360ff16021790555060c08201518160050160026101000a81548160ff021916908360ff16021790555060e08201518160050160036101000a81548160ff021916908360ff1602179055506101008201518160050160046101000a81548160ff021916908360ff1602179055506101208201518160050160056101000a81548160ff021916908360ff16021790555090505060405180610140016040528060a281526020016040518060400160405280600681526020017f4675727265740000000000000000000000000000000000000000000000000000815250815260200160405180604001604052806040518060400160405280600681526020017f4e6f726d616c000000000000000000000000000000000000000000000000000081525081526020016040518060200160405280600081525081525081526020016040518060600160405280603d815260200162015833603d91398152602001605560ff168152602001604c60ff168152602001604060ff168152602001602d60ff168152602001603760ff168152602001605a60ff16815250600b600001600060178152602001908152602001600020600082015181600001556020820151816001019081620036ce91906200feef565b50604082015181600201906002620036e89291906200fb95565b5060608201518160040190816200370091906200feef565b5060808201518160050160006101000a81548160ff021916908360ff16021790555060a08201518160050160016101000a81548160ff021916908360ff16021790555060c08201518160050160026101000a81548160ff021916908360ff16021790555060e08201518160050160036101000a81548160ff021916908360ff1602179055506101008201518160050160046101000a81548160ff021916908360ff1602179055506101208201518160050160056101000a81548160ff021916908360ff16021790555090505060405180610140016040528060a381526020016040518060400160405280600881526020017f486f6f74686f6f74000000000000000000000000000000000000000000000000815250815260200160405180604001604052806040518060400160405280600681526020017f4e6f726d616c000000000000000000000000000000000000000000000000000081525081526020016040518060400160405280600681526020017f466c79696e67000000000000000000000000000000000000000000000000000081525081525081526020016040518060600160405280603d81526020016201641d603d91398152602001603c60ff168152602001601e60ff168152602001601e60ff168152602001602460ff168152602001603860ff168152602001603260ff16815250600b6000016000601881526020019081526020016000206000820151816000015560208201518160010190816200392f91906200feef565b50604082015181600201906002620039499291906200fb95565b5060608201518160040190816200396191906200feef565b5060808201518160050160006101000a81548160ff021916908360ff16021790555060a08201518160050160016101000a81548160ff021916908360ff16021790555060c08201518160050160026101000a81548160ff021916908360ff16021790555060e08201518160050160036101000a81548160ff021916908360ff1602179055506101008201518160050160046101000a81548160ff021916908360ff1602179055506101208201518160050160056101000a81548160ff021916908360ff16021790555090505060405180610140016040528060a481526020016040518060400160405280600781526020017f4e6f63746f776c00000000000000000000000000000000000000000000000000815250815260200160405180604001604052806040518060400160405280600681526020017f4e6f726d616c000000000000000000000000000000000000000000000000000081525081526020016040518060400160405280600681526020017f466c79696e67000000000000000000000000000000000000000000000000000081525081525081526020016040518060600160405280603d815260200162016272603d91398152602001606460ff168152602001603260ff168152602001603260ff168152602001605660ff168152602001606060ff168152602001604660ff16815250600b60000160006019815260200190815260200160002060008201518160000155602082015181600101908162003b9091906200feef565b5060408201518160020190600262003baa9291906200fb95565b50606082015181600401908162003bc291906200feef565b5060808201518160050160006101000a81548160ff021916908360ff16021790555060a08201518160050160016101000a81548160ff021916908360ff16021790555060c08201518160050160026101000a81548160ff021916908360ff16021790555060e08201518160050160036101000a81548160ff021916908360ff1602179055506101008201518160050160046101000a81548160ff021916908360ff1602179055506101208201518160050160056101000a81548160ff021916908360ff16021790555090505060405180610140016040528060ae81526020016040518060400160405280600981526020017f4967676c79627566660000000000000000000000000000000000000000000000815250815260200160405180604001604052806040518060400160405280600681526020017f4e6f726d616c000000000000000000000000000000000000000000000000000081525081526020016040518060400160405280600581526020017f466169727900000000000000000000000000000000000000000000000000000081525081525081526020016040518060600160405280603d815260200162014f25603d91398152602001605a60ff168152602001601e60ff168152602001600f60ff168152602001602860ff168152602001601460ff168152602001600f60ff16815250600b6000016000601a815260200190815260200160002060008201518160000155602082015181600101908162003df191906200feef565b5060408201518160020190600262003e0b9291906200fb95565b50606082015181600401908162003e2391906200feef565b5060808201518160050160006101000a81548160ff021916908360ff16021790555060a08201518160050160016101000a81548160ff021916908360ff16021790555060c08201518160050160026101000a81548160ff021916908360ff16021790555060e08201518160050160036101000a81548160ff021916908360ff1602179055506101008201518160050160046101000a81548160ff021916908360ff1602179055506101208201518160050160056101000a81548160ff021916908360ff16021790555090505060405180610140016040528060be81526020016040518060400160405280600581526020017f4169706f6d000000000000000000000000000000000000000000000000000000815250815260200160405180604001604052806040518060400160405280600681526020017f4e6f726d616c000000000000000000000000000000000000000000000000000081525081526020016040518060200160405280600081525081525081526020016040518060600160405280603d8152602001620155d1603d91398152602001603760ff168152602001604660ff168152602001603760ff168152602001602860ff168152602001603760ff168152602001605560ff16815250600b6000016000601b81526020019081526020016000206000820151816000015560208201518160010190816200402c91906200feef565b50604082015181600201906002620040469291906200fb95565b5060608201518160040190816200405e91906200feef565b5060808201518160050160006101000a81548160ff021916908360ff16021790555060a08201518160050160016101000a81548160ff021916908360ff16021790555060c08201518160050160026101000a81548160ff021916908360ff16021790555060e08201518160050160036101000a81548160ff021916908360ff1602179055506101008201518160050160046101000a81548160ff021916908360ff1602179055506101208201518160050160056101000a81548160ff021916908360ff16021790555090505060405180610140016040528060cb81526020016040518060400160405280600981526020017f4769726166617269670000000000000000000000000000000000000000000000815250815260200160405180604001604052806040518060400160405280600681526020017f4e6f726d616c000000000000000000000000000000000000000000000000000081525081526020016040518060400160405280600781526020017f507379636869630000000000000000000000000000000000000000000000000081525081525081526020016040518060600160405280603d8152602001620158ad603d91398152602001604660ff168152602001605060ff168152602001604160ff168152602001605a60ff168152602001604160ff168152602001605560ff16815250600b6000016000601c81526020019081526020016000206000820151816000015560208201518160010190816200428d91906200feef565b50604082015181600201906002620042a79291906200fb95565b506060820151816004019081620042bf91906200feef565b5060808201518160050160006101000a81548160ff021916908360ff16021790555060a08201518160050160016101000a81548160ff021916908360ff16021790555060c08201518160050160026101000a81548160ff021916908360ff16021790555060e08201518160050160036101000a81548160ff021916908360ff1602179055506101008201518160050160046101000a81548160ff021916908360ff1602179055506101208201518160050160056101000a81548160ff021916908360ff16021790555090505060405180610140016040528060ce81526020016040518060400160405280600981526020017f44756e7370617263650000000000000000000000000000000000000000000000815250815260200160405180604001604052806040518060400160405280600681526020017f4e6f726d616c000000000000000000000000000000000000000000000000000081525081526020016040518060200160405280600081525081525081526020016040518060600160405280603d815260200162016497603d91398152602001606460ff168152602001604660ff168152602001604660ff168152602001604160ff168152602001604160ff168152602001602d60ff16815250600b6000016000601d8152602001908152602001600020600082015181600001556020820151816001019081620044c891906200feef565b50604082015181600201906002620044e29291906200fb95565b506060820151816004019081620044fa91906200feef565b5060808201518160050160006101000a81548160ff021916908360ff16021790555060a08201518160050160016101000a81548160ff021916908360ff16021790555060c08201518160050160026101000a81548160ff021916908360ff16021790555060e08201518160050160036101000a81548160ff021916908360ff1602179055506101008201518160050160046101000a81548160ff021916908360ff1602179055506101208201518160050160056101000a81548160ff021916908360ff16021790555090505060405180610140016040528060d881526020016040518060400160405280600981526020017f5465646469757273610000000000000000000000000000000000000000000000815250815260200160405180604001604052806040518060400160405280600681526020017f4e6f726d616c000000000000000000000000000000000000000000000000000081525081526020016040518060200160405280600081525081525081526020016040518060600160405280603d815260200162015a58603d91398152602001603c60ff168152602001605060ff168152602001603260ff168152602001603260ff168152602001603260ff168152602001602860ff16815250600b6000016000601e81526020019081526020016000206000820151816000015560208201518160010190816200470391906200feef565b506040820151816002019060026200471d9291906200fb95565b5060608201518160040190816200473591906200feef565b5060808201518160050160006101000a81548160ff021916908360ff16021790555060a08201518160050160016101000a81548160ff021916908360ff16021790555060c08201518160050160026101000a81548160ff021916908360ff16021790555060e08201518160050160036101000a81548160ff021916908360ff1602179055506101008201518160050160046101000a81548160ff021916908360ff1602179055506101208201518160050160056101000a81548160ff021916908360ff16021790555090505060405180610140016040528060d981526020016040518060400160405280600881526020017f5572736172696e67000000000000000000000000000000000000000000000000815250815260200160405180604001604052806040518060400160405280600681526020017f4e6f726d616c000000000000000000000000000000000000000000000000000081525081526020016040518060200160405280600081525081525081526020016040518060600160405280603d815260200162014ee8603d91398152602001605a60ff168152602001608260ff168152602001604b60ff168152602001604b60ff168152602001604b60ff168152602001603760ff16815250600b6000016000601f81526020019081526020016000206000820151816000015560208201518160010190816200493e91906200feef565b50604082015181600201906002620049589291906200fb95565b5060608201518160040190816200497091906200feef565b5060808201518160050160006101000a81548160ff021916908360ff16021790555060a08201518160050160016101000a81548160ff021916908360ff16021790555060c08201518160050160026101000a81548160ff021916908360ff16021790555060e08201518160050160036101000a81548160ff021916908360ff1602179055506101008201518160050160046101000a81548160ff021916908360ff1602179055506101208201518160050160056101000a81548160ff021916908360ff16021790555090505060405180610140016040528060e981526020016040518060400160405280600881526020017f506f7279676f6e32000000000000000000000000000000000000000000000000815250815260200160405180604001604052806040518060400160405280600681526020017f4e6f726d616c000000000000000000000000000000000000000000000000000081525081526020016040518060200160405280600081525081525081526020016040518060600160405280603d815260200162016104603d91398152602001605560ff168152602001605060ff168152602001605a60ff168152602001606960ff168152602001605f60ff168152602001603c60ff16815250600b60000160006020815260200190815260200160002060008201518160000155602082015181600101908162004b7991906200feef565b5060408201518160020190600262004b939291906200fb95565b50606082015181600401908162004bab91906200feef565b5060808201518160050160006101000a81548160ff021916908360ff16021790555060a08201518160050160016101000a81548160ff021916908360ff16021790555060c08201518160050160026101000a81548160ff021916908360ff16021790555060e08201518160050160036101000a81548160ff021916908360ff1602179055506101008201518160050160046101000a81548160ff021916908360ff1602179055506101208201518160050160056101000a81548160ff021916908360ff16021790555090505060405180610140016040528060ea81526020016040518060400160405280600881526020017f5374616e746c6572000000000000000000000000000000000000000000000000815250815260200160405180604001604052806040518060400160405280600681526020017f4e6f726d616c000000000000000000000000000000000000000000000000000081525081526020016040518060200160405280600081525081525081526020016040518060600160405280603d815260200162015cf7603d91398152602001604960ff168152602001605f60ff168152602001603e60ff168152602001605560ff168152602001604160ff168152602001605560ff16815250600b60000160006021815260200190815260200160002060008201518160000155602082015181600101908162004db491906200feef565b5060408201518160020190600262004dce9291906200fb95565b50606082015181600401908162004de691906200feef565b5060808201518160050160006101000a81548160ff021916908360ff16021790555060a08201518160050160016101000a81548160ff021916908360ff16021790555060c08201518160050160026101000a81548160ff021916908360ff16021790555060e08201518160050160036101000a81548160ff021916908360ff1602179055506101008201518160050160046101000a81548160ff021916908360ff1602179055506101208201518160050160056101000a81548160ff021916908360ff16021790555090505060405180610140016040528060eb81526020016040518060400160405280600881526020017f536d656172676c65000000000000000000000000000000000000000000000000815250815260200160405180604001604052806040518060400160405280600681526020017f4e6f726d616c000000000000000000000000000000000000000000000000000081525081526020016040518060200160405280600081525081525081526020016040518060600160405280603d8152602001620154a0603d91398152602001603760ff168152602001601460ff168152602001602360ff168152602001601460ff168152602001602d60ff168152602001604b60ff16815250600b60000160006022815260200190815260200160002060008201518160000155602082015181600101908162004fef91906200feef565b50604082015181600201906002620050099291906200fb95565b5060608201518160040190816200502191906200feef565b5060808201518160050160006101000a81548160ff021916908360ff16021790555060a08201518160050160016101000a81548160ff021916908360ff16021790555060c08201518160050160026101000a81548160ff021916908360ff16021790555060e08201518160050160036101000a81548160ff021916908360ff1602179055506101008201518160050160046101000a81548160ff021916908360ff1602179055506101208201518160050160056101000a81548160ff021916908360ff16021790555090505060405180610140016040528060f181526020016040518060400160405280600781526020017f4d696c74616e6b00000000000000000000000000000000000000000000000000815250815260200160405180604001604052806040518060400160405280600681526020017f4e6f726d616c000000000000000000000000000000000000000000000000000081525081526020016040518060200160405280600081525081525081526020016040518060600160405280603d81526020016201536f603d91398152602001605f60ff168152602001605060ff168152602001606960ff168152602001602860ff168152602001604660ff168152602001606460ff16815250600b6000016000602381526020019081526020016000206000820151816000015560208201518160010190816200522a91906200feef565b50604082015181600201906002620052449291906200fb95565b5060608201518160040190816200525c91906200feef565b5060808201518160050160006101000a81548160ff021916908360ff16021790555060a08201518160050160016101000a81548160ff021916908360ff16021790555060c08201518160050160026101000a81548160ff021916908360ff16021790555060e08201518160050160036101000a81548160ff021916908360ff1602179055506101008201518160050160046101000a81548160ff021916908360ff1602179055506101208201518160050160056101000a81548160ff021916908360ff16021790555090505060405180610140016040528060f281526020016040518060400160405280600781526020017f426c697373657900000000000000000000000000000000000000000000000000815250815260200160405180604001604052806040518060400160405280600681526020017f4e6f726d616c000000000000000000000000000000000000000000000000000081525081526020016040518060200160405280600081525081525081526020016040518060600160405280603d81526020016201577c603d9139815260200160ff80168152602001600a60ff168152602001600a60ff168152602001604b60ff168152602001608760ff168152602001603760ff16815250600b6000016000602481526020019081526020016000206000820151816000015560208201518160010190816200546491906200feef565b506040820151816002019060026200547e9291906200fb95565b5060608201518160040190816200549691906200feef565b5060808201518160050160006101000a81548160ff021916908360ff16021790555060a08201518160050160016101000a81548160ff021916908360ff16021790555060c08201518160050160026101000a81548160ff021916908360ff16021790555060e08201518160050160036101000a81548160ff021916908360ff1602179055506101008201518160050160046101000a81548160ff021916908360ff1602179055506101208201518160050160056101000a81548160ff021916908360ff16021790555090505060405180610140016040528061010781526020016040518060400160405280600981526020017f5a69677a61676f6f6e0000000000000000000000000000000000000000000000815250815260200160405180604001604052806040518060400160405280600681526020017f4e6f726d616c000000000000000000000000000000000000000000000000000081525081526020016040518060200160405280600081525081525081526020016040518060600160405280603d815260200162016511603d91398152602001602660ff168152602001601e60ff168152602001602960ff168152602001601e60ff168152602001602960ff168152602001603c60ff16815250600b600001600060258152602001908152602001600020600082015181600001556020820151816001019081620056a091906200feef565b50604082015181600201906002620056ba9291906200fb95565b506060820151816004019081620056d291906200feef565b5060808201518160050160006101000a81548160ff021916908360ff16021790555060a08201518160050160016101000a81548160ff021916908360ff16021790555060c08201518160050160026101000a81548160ff021916908360ff16021790555060e08201518160050160036101000a81548160ff021916908360ff1602179055506101008201518160050160046101000a81548160ff021916908360ff1602179055506101208201518160050160056101000a81548160ff021916908360ff16021790555090505060405180610140016040528061010881526020016040518060400160405280600781526020017f4c696e6f6f6e6500000000000000000000000000000000000000000000000000815250815260200160405180604001604052806040518060400160405280600681526020017f4e6f726d616c000000000000000000000000000000000000000000000000000081525081526020016040518060200160405280600081525081525081526020016040518060600160405280603d81526020016201514a603d91398152602001604e60ff168152602001604660ff168152602001603d60ff168152602001603260ff168152602001603d60ff168152602001606460ff16815250600b600001600060268152602001908152602001600020600082015181600001556020820151816001019081620058dc91906200feef565b50604082015181600201906002620058f69291906200fb95565b5060608201518160040190816200590e91906200feef565b5060808201518160050160006101000a81548160ff021916908360ff16021790555060a08201518160050160016101000a81548160ff021916908360ff16021790555060c08201518160050160026101000a81548160ff021916908360ff16021790555060e08201518160050160036101000a81548160ff021916908360ff1602179055506101008201518160050160046101000a81548160ff021916908360ff1602179055506101208201518160050160056101000a81548160ff021916908360ff16021790555090505060405180610140016040528061011481526020016040518060400160405280600781526020017f5461696c6c6f7700000000000000000000000000000000000000000000000000815250815260200160405180604001604052806040518060400160405280600681526020017f4e6f726d616c000000000000000000000000000000000000000000000000000081525081526020016040518060400160405280600681526020017f466c79696e67000000000000000000000000000000000000000000000000000081525081525081526020016040518060600160405280603d815260200162014df4603d91398152602001602860ff168152602001603760ff168152602001601e60ff168152602001601e60ff168152602001601e60ff168152602001605560ff16815250600b60000160006027815260200190815260200160002060008201518160000155602082015181600101908162005b3e91906200feef565b5060408201518160020190600262005b589291906200fb95565b50606082015181600401908162005b7091906200feef565b5060808201518160050160006101000a81548160ff021916908360ff16021790555060a08201518160050160016101000a81548160ff021916908360ff16021790555060c08201518160050160026101000a81548160ff021916908360ff16021790555060e08201518160050160036101000a81548160ff021916908360ff1602179055506101008201518160050160046101000a81548160ff021916908360ff1602179055506101208201518160050160056101000a81548160ff021916908360ff16021790555090505060405180610140016040528061011581526020016040518060400160405280600781526020017f5377656c6c6f7700000000000000000000000000000000000000000000000000815250815260200160405180604001604052806040518060400160405280600681526020017f4e6f726d616c000000000000000000000000000000000000000000000000000081525081526020016040518060400160405280600681526020017f466c79696e67000000000000000000000000000000000000000000000000000081525081525081526020016040518060600160405280603d815260200162014f9f603d91398152602001603c60ff168152602001605560ff168152602001603c60ff168152602001604b60ff168152602001603260ff168152602001607d60ff16815250600b60000160006028815260200190815260200160002060008201518160000155602082015181600101908162005da091906200feef565b5060408201518160020190600262005dba9291906200fb95565b50606082015181600401908162005dd291906200feef565b5060808201518160050160006101000a81548160ff021916908360ff16021790555060a08201518160050160016101000a81548160ff021916908360ff16021790555060c08201518160050160026101000a81548160ff021916908360ff16021790555060e08201518160050160036101000a81548160ff021916908360ff1602179055506101008201518160050160046101000a81548160ff021916908360ff1602179055506101208201518160050160056101000a81548160ff021916908360ff16021790555090505060405180610140016040528061011f81526020016040518060400160405280600781526020017f536c616b6f746800000000000000000000000000000000000000000000000000815250815260200160405180604001604052806040518060400160405280600681526020017f4e6f726d616c000000000000000000000000000000000000000000000000000081525081526020016040518060200160405280600081525081525081526020016040518060600160405280603d815260200162016329603d91398152602001603c60ff168152602001603c60ff168152602001603c60ff168152602001602360ff168152602001602360ff168152602001601e60ff16815250600b60000160006029815260200190815260200160002060008201518160000155602082015181600101908162005fdc91906200feef565b5060408201518160020190600262005ff69291906200fb95565b5060608201518160040190816200600e91906200feef565b5060808201518160050160006101000a81548160ff021916908360ff16021790555060a08201518160050160016101000a81548160ff021916908360ff16021790555060c08201518160050160026101000a81548160ff021916908360ff16021790555060e08201518160050160036101000a81548160ff021916908360ff1602179055506101008201518160050160046101000a81548160ff021916908360ff1602179055506101208201518160050160056101000a81548160ff021916908360ff16021790555090505060405180610140016040528061012081526020016040518060400160405280600881526020017f5669676f726f7468000000000000000000000000000000000000000000000000815250815260200160405180604001604052806040518060400160405280600681526020017f4e6f726d616c000000000000000000000000000000000000000000000000000081525081526020016040518060200160405280600081525081525081526020016040518060600160405280603d8152602001620159a1603d91398152602001605060ff168152602001605060ff168152602001605060ff168152602001603760ff168152602001603760ff168152602001605a60ff16815250600b6000016000602a81526020019081526020016000206000820151816000015560208201518160010190816200621891906200feef565b50604082015181600201906002620062329291906200fb95565b5060608201518160040190816200624a91906200feef565b5060808201518160050160006101000a81548160ff021916908360ff16021790555060a08201518160050160016101000a81548160ff021916908360ff16021790555060c08201518160050160026101000a81548160ff021916908360ff16021790555060e08201518160050160036101000a81548160ff021916908360ff1602179055506101008201518160050160046101000a81548160ff021916908360ff1602179055506101208201518160050160056101000a81548160ff021916908360ff16021790555090505060405180610140016040528061012181526020016040518060400160405280600781526020017f536c616b696e6700000000000000000000000000000000000000000000000000815250815260200160405180604001604052806040518060400160405280600681526020017f4e6f726d616c000000000000000000000000000000000000000000000000000081525081526020016040518060200160405280600081525081525081526020016040518060600160405280603d8152602001620164d4603d91398152602001609660ff16815260200160a060ff168152602001606460ff168152602001605f60ff168152602001604160ff168152602001606460ff16815250600b6000016000602b81526020019081526020016000206000820151816000015560208201518160010190816200645491906200feef565b506040820151816002019060026200646e9291906200fb95565b5060608201518160040190816200648691906200feef565b5060808201518160050160006101000a81548160ff021916908360ff16021790555060a08201518160050160016101000a81548160ff021916908360ff16021790555060c08201518160050160026101000a81548160ff021916908360ff16021790555060e08201518160050160036101000a81548160ff021916908360ff1602179055506101008201518160050160046101000a81548160ff021916908360ff1602179055506101208201518160050160056101000a81548160ff021916908360ff16021790555090505060405180610140016040528061012581526020016040518060400160405280600781526020017f576869736d757200000000000000000000000000000000000000000000000000815250815260200160405180604001604052806040518060400160405280600681526020017f4e6f726d616c000000000000000000000000000000000000000000000000000081525081526020016040518060200160405280600081525081525081526020016040518060600160405280603d815260200162015d34603d91398152602001604060ff168152602001603360ff168152602001601760ff168152602001603360ff168152602001601760ff168152602001601c60ff16815250600b6000016000602c81526020019081526020016000206000820151816000015560208201518160010190816200669091906200feef565b50604082015181600201906002620066aa9291906200fb95565b506060820151816004019081620066c291906200feef565b5060808201518160050160006101000a81548160ff021916908360ff16021790555060a08201518160050160016101000a81548160ff021916908360ff16021790555060c08201518160050160026101000a81548160ff021916908360ff16021790555060e08201518160050160036101000a81548160ff021916908360ff1602179055506101008201518160050160046101000a81548160ff021916908360ff1602179055506101208201518160050160056101000a81548160ff021916908360ff16021790555090505060405180610140016040528061012681526020016040518060400160405280600781526020017f4c6f756472656400000000000000000000000000000000000000000000000000815250815260200160405180604001604052806040518060400160405280600681526020017f4e6f726d616c000000000000000000000000000000000000000000000000000081525081526020016040518060200160405280600081525081525081526020016040518060600160405280603d81526020016201523e603d91398152602001605460ff168152602001604760ff168152602001602b60ff168152602001604760ff168152602001602b60ff168152602001603060ff16815250600b6000016000602d8152602001908152602001600020600082015181600001556020820151816001019081620068cc91906200feef565b50604082015181600201906002620068e69291906200fb95565b506060820151816004019081620068fe91906200feef565b5060808201518160050160006101000a81548160ff021916908360ff16021790555060a08201518160050160016101000a81548160ff021916908360ff16021790555060c08201518160050160026101000a81548160ff021916908360ff16021790555060e08201518160050160036101000a81548160ff021916908360ff1602179055506101008201518160050160046101000a81548160ff021916908360ff1602179055506101208201518160050160056101000a81548160ff021916908360ff16021790555090505060405180610140016040528061012781526020016040518060400160405280600781526020017f4578706c6f756400000000000000000000000000000000000000000000000000815250815260200160405180604001604052806040518060400160405280600681526020017f4e6f726d616c000000000000000000000000000000000000000000000000000081525081526020016040518060200160405280600081525081525081526020016040518060600160405280603d8152602001620163e0603d91398152602001606860ff168152602001605b60ff168152602001603f60ff168152602001605b60ff168152602001604960ff168152602001604460ff16815250600b6000016000602e815260200190815260200160002060008201518160000155602082015181600101908162006b0891906200feef565b5060408201518160020190600262006b229291906200fb95565b50606082015181600401908162006b3a91906200feef565b5060808201518160050160006101000a81548160ff021916908360ff16021790555060a08201518160050160016101000a81548160ff021916908360ff16021790555060c08201518160050160026101000a81548160ff021916908360ff16021790555060e08201518160050160036101000a81548160ff021916908360ff1602179055506101008201518160050160046101000a81548160ff021916908360ff1602179055506101208201518160050160056101000a81548160ff021916908360ff16021790555090505060405180610140016040528061012a81526020016040518060400160405280600781526020017f417a7572696c6c00000000000000000000000000000000000000000000000000815250815260200160405180604001604052806040518060400160405280600681526020017f4e6f726d616c000000000000000000000000000000000000000000000000000081525081526020016040518060400160405280600581526020017f466169727900000000000000000000000000000000000000000000000000000081525081525081526020016040518060600160405280603d8152602001620157f6603d91398152602001603260ff168152602001601460ff168152602001602860ff168152602001601460ff168152602001602860ff168152602001601460ff16815250600b6000016000602f815260200190815260200160002060008201518160000155602082015181600101908162006d6a91906200feef565b5060408201518160020190600262006d849291906200fb95565b50606082015181600401908162006d9c91906200feef565b5060808201518160050160006101000a81548160ff021916908360ff16021790555060a08201518160050160016101000a81548160ff021916908360ff16021790555060c08201518160050160026101000a81548160ff021916908360ff16021790555060e08201518160050160036101000a81548160ff021916908360ff1602179055506101008201518160050160046101000a81548160ff021916908360ff1602179055506101208201518160050160056101000a81548160ff021916908360ff16021790555090505060405180610140016040528061012c81526020016040518060400160405280600681526020017f536b697474790000000000000000000000000000000000000000000000000000815250815260200160405180604001604052806040518060400160405280600681526020017f4e6f726d616c000000000000000000000000000000000000000000000000000081525081526020016040518060200160405280600081525081525081526020016040518060600160405280603d8152602001620162af603d91398152602001603260ff168152602001602d60ff168152602001602d60ff168152602001602360ff168152602001602360ff168152602001603260ff16815250600b60000160006030815260200190815260200160002060008201518160000155602082015181600101908162006fa691906200feef565b5060408201518160020190600262006fc09291906200fb95565b50606082015181600401908162006fd891906200feef565b5060808201518160050160006101000a81548160ff021916908360ff16021790555060a08201518160050160016101000a81548160ff021916908360ff16021790555060c08201518160050160026101000a81548160ff021916908360ff16021790555060e08201518160050160036101000a81548160ff021916908360ff1602179055506101008201518160050160046101000a81548160ff021916908360ff1602179055506101208201518160050160056101000a81548160ff021916908360ff16021790555090505060405180610140016040528061012d81526020016040518060400160405280600881526020017f44656c6361747479000000000000000000000000000000000000000000000000815250815260200160405180604001604052806040518060400160405280600681526020017f4e6f726d616c000000000000000000000000000000000000000000000000000081525081526020016040518060200160405280600081525081525081526020016040518060600160405280603d815260200162015056603d91398152602001604660ff168152602001604160ff168152602001604160ff168152602001603760ff168152602001603760ff168152602001605a60ff16815250600b600001600060318152602001908152602001600020600082015181600001556020820151816001019081620071e291906200feef565b50604082015181600201906002620071fc9291906200fb95565b5060608201518160040190816200721491906200feef565b5060808201518160050160006101000a81548160ff021916908360ff16021790555060a08201518160050160016101000a81548160ff021916908360ff16021790555060c08201518160050160026101000a81548160ff021916908360ff16021790555060e08201518160050160036101000a81548160ff021916908360ff1602179055506101008201518160050160046101000a81548160ff021916908360ff1602179055506101208201518160050160056101000a81548160ff021916908360ff16021790555090505060405180610140016040528061014781526020016040518060400160405280600681526020017f5370696e64610000000000000000000000000000000000000000000000000000815250815260200160405180604001604052806040518060400160405280600681526020017f4e6f726d616c000000000000000000000000000000000000000000000000000081525081526020016040518060200160405280600081525081525081526020016040518060600160405280603d8152602001620156c5603d91398152602001603c60ff168152602001603c60ff168152602001603c60ff168152602001603c60ff168152602001603c60ff168152602001603c60ff16815250600b6000016000603281526020019081526020016000206000820151816000015560208201518160010190816200741e91906200feef565b50604082015181600201906002620074389291906200fb95565b5060608201518160040190816200745091906200feef565b5060808201518160050160006101000a81548160ff021916908360ff16021790555060a08201518160050160016101000a81548160ff021916908360ff16021790555060c08201518160050160026101000a81548160ff021916908360ff16021790555060e08201518160050160036101000a81548160ff021916908360ff1602179055506101008201518160050160046101000a81548160ff021916908360ff1602179055506101208201518160050160056101000a81548160ff021916908360ff16021790555090505060405180610140016040528061014d81526020016040518060400160405280600681526020017f537761626c750000000000000000000000000000000000000000000000000000815250815260200160405180604001604052806040518060400160405280600681526020017f4e6f726d616c000000000000000000000000000000000000000000000000000081525081526020016040518060400160405280600681526020017f466c79696e67000000000000000000000000000000000000000000000000000081525081525081526020016040518060600160405280603d81526020016201573f603d91398152602001602d60ff168152602001602860ff168152602001603c60ff168152602001602860ff168152602001604b60ff168152602001603260ff16815250600b6000016000603381526020019081526020016000206000820151816000015560208201518160010190816200768091906200feef565b506040820151816002019060026200769a9291906200fb95565b506060820151816004019081620076b291906200feef565b5060808201518160050160006101000a81548160ff021916908360ff16021790555060a08201518160050160016101000a81548160ff021916908360ff16021790555060c08201518160050160026101000a81548160ff021916908360ff16021790555060e08201518160050160036101000a81548160ff021916908360ff1602179055506101008201518160050160046101000a81548160ff021916908360ff1602179055506101208201518160050160056101000a81548160ff021916908360ff16021790555090505060405180610140016040528061014f81526020016040518060400160405280600881526020017f5a616e676f6f7365000000000000000000000000000000000000000000000000815250815260200160405180604001604052806040518060400160405280600681526020017f4e6f726d616c000000000000000000000000000000000000000000000000000081525081526020016040518060200160405280600081525081525081526020016040518060600160405280603d8152602001620161bb603d91398152602001604960ff168152602001607360ff168152602001603c60ff168152602001603c60ff168152602001603c60ff168152602001605a60ff16815250600b600001600060348152602001908152602001600020600082015181600001556020820151816001019081620078bc91906200feef565b50604082015181600201906002620078d69291906200fb95565b506060820151816004019081620078ee91906200feef565b5060808201518160050160006101000a81548160ff021916908360ff16021790555060a08201518160050160016101000a81548160ff021916908360ff16021790555060c08201518160050160026101000a81548160ff021916908360ff16021790555060e08201518160050160036101000a81548160ff021916908360ff1602179055506101008201518160050160046101000a81548160ff021916908360ff1602179055506101208201518160050160056101000a81548160ff021916908360ff16021790555090505060405180610140016040528061015f81526020016040518060400160405280600881526020017f43617374666f726d000000000000000000000000000000000000000000000000815250815260200160405180604001604052806040518060400160405280600681526020017f4e6f726d616c000000000000000000000000000000000000000000000000000081525081526020016040518060200160405280600081525081525081526020016040518060600160405280603d815260200162015a1b603d91398152602001604660ff168152602001604660ff168152602001604660ff168152602001604660ff168152602001604660ff168152602001604660ff16815250600b60000160006035815260200190815260200160002060008201518160000155602082015181600101908162007af891906200feef565b5060408201518160020190600262007b129291906200fb95565b50606082015181600401908162007b2a91906200feef565b5060808201518160050160006101000a81548160ff021916908360ff16021790555060a08201518160050160016101000a81548160ff021916908360ff16021790555060c08201518160050160026101000a81548160ff021916908360ff16021790555060e08201518160050160036101000a81548160ff021916908360ff1602179055506101008201518160050160046101000a81548160ff021916908360ff1602179055506101208201518160050160056101000a81548160ff021916908360ff16021790555090505060405180610140016040528061016081526020016040518060400160405280600781526020017f4b65636c656f6e00000000000000000000000000000000000000000000000000815250815260200160405180604001604052806040518060400160405280600681526020017f4e6f726d616c000000000000000000000000000000000000000000000000000081525081526020016040518060200160405280600081525081525081526020016040518060600160405280603d815260200162015594603d91398152602001603c60ff168152602001605a60ff168152602001604660ff168152602001603c60ff168152602001607860ff168152602001602860ff16815250600b60000160006036815260200190815260200160002060008201518160000155602082015181600101908162007d3491906200feef565b5060408201518160020190600262007d4e9291906200fb95565b50606082015181600401908162007d6691906200feef565b5060808201518160050160006101000a81548160ff021916908360ff16021790555060a08201518160050160016101000a81548160ff021916908360ff16021790555060c08201518160050160026101000a81548160ff021916908360ff16021790555060e08201518160050160036101000a81548160ff021916908360ff1602179055506101008201518160050160046101000a81548160ff021916908360ff1602179055506101208201518160050160056101000a81548160ff021916908360ff16021790555090505060405180610140016040528061018c81526020016040518060400160405280600681526020017f537461726c790000000000000000000000000000000000000000000000000000815250815260200160405180604001604052806040518060400160405280600681526020017f4e6f726d616c000000000000000000000000000000000000000000000000000081525081526020016040518060400160405280600681526020017f466c79696e67000000000000000000000000000000000000000000000000000081525081525081526020016040518060600160405280603d815260200162015964603d91398152602001602860ff168152602001603760ff168152602001601e60ff168152602001601e60ff168152602001601e60ff168152602001603c60ff16815250600b60000160006037815260200190815260200160002060008201518160000155602082015181600101908162007f9691906200feef565b5060408201518160020190600262007fb09291906200fb95565b50606082015181600401908162007fc891906200feef565b5060808201518160050160006101000a81548160ff021916908360ff16021790555060a08201518160050160016101000a81548160ff021916908360ff16021790555060c08201518160050160026101000a81548160ff021916908360ff16021790555060e08201518160050160036101000a81548160ff021916908360ff1602179055506101008201518160050160046101000a81548160ff021916908360ff1602179055506101208201518160050160056101000a81548160ff021916908360ff16021790555090505060405180610140016040528061018d81526020016040518060400160405280600881526020017f5374617261766961000000000000000000000000000000000000000000000000815250815260200160405180604001604052806040518060400160405280600681526020017f4e6f726d616c000000000000000000000000000000000000000000000000000081525081526020016040518060400160405280600681526020017f466c79696e67000000000000000000000000000000000000000000000000000081525081525081526020016040518060600160405280603d81526020016201564b603d91398152602001603760ff168152602001604b60ff168152602001603260ff168152602001602860ff168152602001602860ff168152602001605060ff16815250600b600001600060388152602001908152602001600020600082015181600001556020820151816001019081620081f891906200feef565b50604082015181600201906002620082129291906200fb95565b5060608201518160040190816200822a91906200feef565b5060808201518160050160006101000a81548160ff021916908360ff16021790555060a08201518160050160016101000a81548160ff021916908360ff16021790555060c08201518160050160026101000a81548160ff021916908360ff16021790555060e08201518160050160036101000a81548160ff021916908360ff1602179055506101008201518160050160046101000a81548160ff021916908360ff1602179055506101208201518160050160056101000a81548160ff021916908360ff16021790555090505060405180610140016040528061018e81526020016040518060400160405280600981526020017f537461726170746f720000000000000000000000000000000000000000000000815250815260200160405180604001604052806040518060400160405280600681526020017f4e6f726d616c000000000000000000000000000000000000000000000000000081525081526020016040518060400160405280600681526020017f466c79696e67000000000000000000000000000000000000000000000000000081525081525081526020016040518060600160405280603d815260200162015688603d91398152602001605560ff168152602001607860ff168152602001604660ff168152602001603260ff168152602001603c60ff168152602001606460ff16815250600b6000016000603981526020019081526020016000206000820151816000015560208201518160010190816200845a91906200feef565b50604082015181600201906002620084749291906200fb95565b5060608201518160040190816200848c91906200feef565b5060808201518160050160006101000a81548160ff021916908360ff16021790555060a08201518160050160016101000a81548160ff021916908360ff16021790555060c08201518160050160026101000a81548160ff021916908360ff16021790555060e08201518160050160036101000a81548160ff021916908360ff1602179055506101008201518160050160046101000a81548160ff021916908360ff1602179055506101208201518160050160056101000a81548160ff021916908360ff16021790555090505060405180610140016040528061018f81526020016040518060400160405280600681526020017f4269646f6f660000000000000000000000000000000000000000000000000000815250815260200160405180604001604052806040518060400160405280600681526020017f4e6f726d616c000000000000000000000000000000000000000000000000000081525081526020016040518060200160405280600081525081525081526020016040518060600160405280603d81526020016201510d603d91398152602001603b60ff168152602001602d60ff168152602001602860ff168152602001602360ff168152602001602860ff168152602001601f60ff16815250600b6000016000603a81526020019081526020016000206000820151816000015560208201518160010190816200869691906200feef565b50604082015181600201906002620086b09291906200fb95565b506060820151816004019081620086c891906200feef565b5060808201518160050160006101000a81548160ff021916908360ff16021790555060a08201518160050160016101000a81548160ff021916908360ff16021790555060c08201518160050160026101000a81548160ff021916908360ff16021790555060e08201518160050160036101000a81548160ff021916908360ff1602179055506101008201518160050160046101000a81548160ff021916908360ff1602179055506101208201518160050160056101000a81548160ff021916908360ff16021790555090505060405180610140016040528061019081526020016040518060400160405280600781526020017f4269626172656c00000000000000000000000000000000000000000000000000815250815260200160405180604001604052806040518060400160405280600681526020017f4e6f726d616c000000000000000000000000000000000000000000000000000081525081526020016040518060400160405280600581526020017f576174657200000000000000000000000000000000000000000000000000000081525081525081526020016040518060600160405280603d815260200162015b0f603d91398152602001604f60ff168152602001605560ff168152602001603c60ff168152602001603760ff168152602001603c60ff168152602001604760ff16815250600b6000016000603b8152602001908152602001600020600082015181600001556020820151816001019081620088f891906200feef565b50604082015181600201906002620089129291906200fb95565b5060608201518160040190816200892a91906200feef565b5060808201518160050160006101000a81548160ff021916908360ff16021790555060a08201518160050160016101000a81548160ff021916908360ff16021790555060c08201518160050160026101000a81548160ff021916908360ff16021790555060e08201518160050160036101000a81548160ff021916908360ff1602179055506101008201518160050160046101000a81548160ff021916908360ff1602179055506101208201518160050160056101000a81548160ff021916908360ff1602179055509050506040518061014001604052806101a881526020016040518060400160405280600781526020017f416d6269706f6d00000000000000000000000000000000000000000000000000815250815260200160405180604001604052806040518060400160405280600681526020017f4e6f726d616c000000000000000000000000000000000000000000000000000081525081526020016040518060200160405280600081525081525081526020016040518060600160405280603d815260200162014f62603d91398152602001604b60ff168152602001606460ff168152602001604260ff168152602001603c60ff168152602001604260ff168152602001607360ff16815250600b6000016000603c815260200190815260200160002060008201518160000155602082015181600101908162008b3491906200feef565b5060408201518160020190600262008b4e9291906200fb95565b50606082015181600401908162008b6691906200feef565b5060808201518160050160006101000a81548160ff021916908360ff16021790555060a08201518160050160016101000a81548160ff021916908360ff16021790555060c08201518160050160026101000a81548160ff021916908360ff16021790555060e08201518160050160036101000a81548160ff021916908360ff1602179055506101008201518160050160046101000a81548160ff021916908360ff1602179055506101208201518160050160056101000a81548160ff021916908360ff1602179055509050506040518061014001604052806101ab81526020016040518060400160405280600781526020017f42756e6561727900000000000000000000000000000000000000000000000000815250815260200160405180604001604052806040518060400160405280600681526020017f4e6f726d616c000000000000000000000000000000000000000000000000000081525081526020016040518060200160405280600081525081525081526020016040518060600160405280603d815260200162015093603d91398152602001603760ff168152602001604260ff168152602001602c60ff168152602001602c60ff168152602001603860ff168152602001605560ff16815250600b6000016000603d815260200190815260200160002060008201518160000155602082015181600101908162008d7091906200feef565b5060408201518160020190600262008d8a9291906200fb95565b50606082015181600401908162008da291906200feef565b5060808201518160050160006101000a81548160ff021916908360ff16021790555060a08201518160050160016101000a81548160ff021916908360ff16021790555060c08201518160050160026101000a81548160ff021916908360ff16021790555060e08201518160050160036101000a81548160ff021916908360ff1602179055506101008201518160050160046101000a81548160ff021916908360ff1602179055506101208201518160050160056101000a81548160ff021916908360ff1602179055509050506040518061014001604052806101ac81526020016040518060400160405280600781526020017f4c6f70756e6e7900000000000000000000000000000000000000000000000000815250815260200160405180604001604052806040518060400160405280600681526020017f4e6f726d616c000000000000000000000000000000000000000000000000000081525081526020016040518060200160405280600081525081525081526020016040518060600160405280603d815260200162014c86603d91398152602001604160ff168152602001604c60ff168152602001605460ff168152602001603660ff168152602001606060ff168152602001606960ff16815250600b6000016000603e815260200190815260200160002060008201518160000155602082015181600101908162008fac91906200feef565b5060408201518160020190600262008fc69291906200fb95565b50606082015181600401908162008fde91906200feef565b5060808201518160050160006101000a81548160ff021916908360ff16021790555060a08201518160050160016101000a81548160ff021916908360ff16021790555060c08201518160050160026101000a81548160ff021916908360ff16021790555060e08201518160050160036101000a81548160ff021916908360ff1602179055506101008201518160050160046101000a81548160ff021916908360ff1602179055506101208201518160050160056101000a81548160ff021916908360ff1602179055509050506040518061014001604052806101af81526020016040518060400160405280600781526020017f476c616d656f7700000000000000000000000000000000000000000000000000815250815260200160405180604001604052806040518060400160405280600681526020017f4e6f726d616c000000000000000000000000000000000000000000000000000081525081526020016040518060200160405280600081525081525081526020016040518060600160405280603d815260200162015c03603d91398152602001603160ff168152602001603760ff168152602001602a60ff168152602001602a60ff168152602001602560ff168152602001605560ff16815250600b6000016000603f8152602001908152602001600020600082015181600001556020820151816001019081620091e891906200feef565b50604082015181600201906002620092029291906200fb95565b5060608201518160040190816200921a91906200feef565b5060808201518160050160006101000a81548160ff021916908360ff16021790555060a08201518160050160016101000a81548160ff021916908360ff16021790555060c08201518160050160026101000a81548160ff021916908360ff16021790555060e08201518160050160036101000a81548160ff021916908360ff1602179055506101008201518160050160046101000a81548160ff021916908360ff1602179055506101208201518160050160056101000a81548160ff021916908360ff1602179055509050506040518061014001604052806101b081526020016040518060400160405280600781526020017f50757275676c7900000000000000000000000000000000000000000000000000815250815260200160405180604001604052806040518060400160405280600681526020017f4e6f726d616c000000000000000000000000000000000000000000000000000081525081526020016040518060200160405280600081525081525081526020016040518060600160405280603d815260200162015b89603d91398152602001604760ff168152602001605260ff168152602001604060ff168152602001604060ff168152602001603b60ff168152602001607060ff16815250600b6000016000604081526020019081526020016000206000820151816000015560208201518160010190816200942491906200feef565b506040820151816002019060026200943e9291906200fb95565b5060608201518160040190816200945691906200feef565b5060808201518160050160006101000a81548160ff021916908360ff16021790555060a08201518160050160016101000a81548160ff021916908360ff16021790555060c08201518160050160026101000a81548160ff021916908360ff16021790555060e08201518160050160036101000a81548160ff021916908360ff1602179055506101008201518160050160046101000a81548160ff021916908360ff1602179055506101208201518160050160056101000a81548160ff021916908360ff1602179055509050506040518061014001604052806101b881526020016040518060400160405280600781526020017f48617070696e7900000000000000000000000000000000000000000000000000815250815260200160405180604001604052806040518060400160405280600681526020017f4e6f726d616c000000000000000000000000000000000000000000000000000081525081526020016040518060200160405280600081525081525081526020016040518060600160405280603d8152602001620163a3603d91398152602001606460ff168152602001600560ff168152602001600560ff168152602001600f60ff168152602001604160ff168152602001601e60ff16815250600b6000016000604181526020019081526020016000206000820151816000015560208201518160010190816200966091906200feef565b506040820151816002019060026200967a9291906200fb95565b5060608201518160040190816200969291906200feef565b5060808201518160050160006101000a81548160ff021916908360ff16021790555060a08201518160050160016101000a81548160ff021916908360ff16021790555060c08201518160050160026101000a81548160ff021916908360ff16021790555060e08201518160050160036101000a81548160ff021916908360ff1602179055506101008201518160050160046101000a81548160ff021916908360ff1602179055506101208201518160050160056101000a81548160ff021916908360ff1602179055509050506040518061014001604052806101b981526020016040518060400160405280600681526020017f436861746f740000000000000000000000000000000000000000000000000000815250815260200160405180604001604052806040518060400160405280600681526020017f4e6f726d616c000000000000000000000000000000000000000000000000000081525081526020016040518060400160405280600681526020017f466c79696e67000000000000000000000000000000000000000000000000000081525081525081526020016040518060600160405280603d8152602001620151c4603d91398152602001604c60ff168152602001604160ff168152602001602d60ff168152602001605c60ff168152602001602a60ff168152602001605b60ff16815250600b600001600060428152602001908152602001600020600082015181600001556020820151816001019081620098c291906200feef565b50604082015181600201906002620098dc9291906200fb95565b506060820151816004019081620098f491906200feef565b5060808201518160050160006101000a81548160ff021916908360ff16021790555060a08201518160050160016101000a81548160ff021916908360ff16021790555060c08201518160050160026101000a81548160ff021916908360ff16021790555060e08201518160050160036101000a81548160ff021916908360ff1602179055506101008201518160050160046101000a81548160ff021916908360ff1602179055506101208201518160050160056101000a81548160ff021916908360ff1602179055509050506040518061014001604052806101be81526020016040518060400160405280600881526020017f4d756e63686c6178000000000000000000000000000000000000000000000000815250815260200160405180604001604052806040518060400160405280600681526020017f4e6f726d616c000000000000000000000000000000000000000000000000000081525081526020016040518060200160405280600081525081525081526020016040518060600160405280603d815260200162014e6e603d91398152602001608760ff168152602001605560ff168152602001602860ff168152602001602860ff168152602001605560ff168152602001600560ff16815250600b60000160006043815260200190815260200160002060008201518160000155602082015181600101908162009afe91906200feef565b5060408201518160020190600262009b189291906200fb95565b50606082015181600401908162009b3091906200feef565b5060808201518160050160006101000a81548160ff021916908360ff16021790555060a08201518160050160016101000a81548160ff021916908360ff16021790555060c08201518160050160026101000a81548160ff021916908360ff16021790555060e08201518160050160036101000a81548160ff021916908360ff1602179055506101008201518160050160046101000a81548160ff021916908360ff1602179055506101208201518160050160056101000a81548160ff021916908360ff1602179055509050506040518061014001604052806101cf81526020016040518060400160405280600a81526020017f4c69636b696c69636b7900000000000000000000000000000000000000000000815250815260200160405180604001604052806040518060400160405280600681526020017f4e6f726d616c000000000000000000000000000000000000000000000000000081525081526020016040518060200160405280600081525081525081526020016040518060600160405280603d815260200162015fd3603d91398152602001606e60ff168152602001605560ff168152602001605f60ff168152602001605060ff168152602001605f60ff168152602001603260ff16815250600b60000160006044815260200190815260200160002060008201518160000155602082015181600101908162009d3a91906200feef565b5060408201518160020190600262009d549291906200fb95565b50606082015181600401908162009d6c91906200feef565b5060808201518160050160006101000a81548160ff021916908360ff16021790555060a08201518160050160016101000a81548160ff021916908360ff16021790555060c08201518160050160026101000a81548160ff021916908360ff16021790555060e08201518160050160036101000a81548160ff021916908360ff1602179055506101008201518160050160046101000a81548160ff021916908360ff1602179055506101208201518160050160056101000a81548160ff021916908360ff1602179055509050506040518061014001604052806101da81526020016040518060400160405280600981526020017f506f7279676f6e2d5a0000000000000000000000000000000000000000000000815250815260200160405180604001604052806040518060400160405280600681526020017f4e6f726d616c000000000000000000000000000000000000000000000000000081525081526020016040518060200160405280600081525081525081526020016040518060600160405280603d8152602001620154dd603d91398152602001605560ff168152602001605060ff168152602001604660ff168152602001608760ff168152602001604b60ff168152602001605a60ff16815250600b60000160006045815260200190815260200160002060008201518160000155602082015181600101908162009f7691906200feef565b5060408201518160020190600262009f909291906200fb95565b50606082015181600401908162009fa891906200feef565b5060808201518160050160006101000a81548160ff021916908360ff16021790555060a08201518160050160016101000a81548160ff021916908360ff16021790555060c08201518160050160026101000a81548160ff021916908360ff16021790555060e08201518160050160036101000a81548160ff021916908360ff1602179055506101008201518160050160046101000a81548160ff021916908360ff1602179055506101208201518160050160056101000a81548160ff021916908360ff1602179055509050506040518061014001604052806101e681526020016040518060400160405280600981526020017f5265676967696761730000000000000000000000000000000000000000000000815250815260200160405180604001604052806040518060400160405280600681526020017f4e6f726d616c000000000000000000000000000000000000000000000000000081525081526020016040518060200160405280600081525081525081526020016040518060600160405280603d815260200162015201603d91398152602001606e60ff16815260200160a060ff168152602001606e60ff168152602001605060ff168152602001606e60ff168152602001606460ff16815250600b6000016000604681526020019081526020016000206000820151816000015560208201518160010190816200a1b291906200feef565b506040820151816002019060026200a1cc9291906200fb95565b5060608201518160040190816200a1e491906200feef565b5060808201518160050160006101000a81548160ff021916908360ff16021790555060a08201518160050160016101000a81548160ff021916908360ff16021790555060c08201518160050160026101000a81548160ff021916908360ff16021790555060e08201518160050160036101000a81548160ff021916908360ff1602179055506101008201518160050160046101000a81548160ff021916908360ff1602179055506101208201518160050160056101000a81548160ff021916908360ff1602179055509050506040518061014001604052806101ed81526020016040518060400160405280600681526020017f4172636575730000000000000000000000000000000000000000000000000000815250815260200160405180604001604052806040518060400160405280600681526020017f4e6f726d616c000000000000000000000000000000000000000000000000000081525081526020016040518060200160405280600081525081525081526020016040518060600160405280603d815260200162014b92603d91398152602001607860ff168152602001607860ff168152602001607860ff168152602001607860ff168152602001607860ff168152602001607860ff16815250600b6000016000604781526020019081526020016000206000820151816000015560208201518160010190816200a3ee91906200feef565b506040820151816002019060026200a4089291906200fb95565b5060608201518160040190816200a42091906200feef565b5060808201518160050160006101000a81548160ff021916908360ff16021790555060a08201518160050160016101000a81548160ff021916908360ff16021790555060c08201518160050160026101000a81548160ff021916908360ff16021790555060e08201518160050160036101000a81548160ff021916908360ff1602179055506101008201518160050160046101000a81548160ff021916908360ff1602179055506101208201518160050160056101000a81548160ff021916908360ff1602179055509050506040518061014001604052806101f881526020016040518060400160405280600681526020017f5061747261740000000000000000000000000000000000000000000000000000815250815260200160405180604001604052806040518060400160405280600681526020017f4e6f726d616c000000000000000000000000000000000000000000000000000081525081526020016040518060200160405280600081525081525081526020016040518060600160405280603d815260200162015c40603d91398152602001602d60ff168152602001603760ff168152602001602760ff168152602001602360ff168152602001602760ff168152602001602a60ff16815250600b6000016000604881526020019081526020016000206000820151816000015560208201518160010190816200a62a91906200feef565b506040820151816002019060026200a6449291906200fb95565b5060608201518160040190816200a65c91906200feef565b5060808201518160050160006101000a81548160ff021916908360ff16021790555060a08201518160050160016101000a81548160ff021916908360ff16021790555060c08201518160050160026101000a81548160ff021916908360ff16021790555060e08201518160050160036101000a81548160ff021916908360ff1602179055506101008201518160050160046101000a81548160ff021916908360ff1602179055506101208201518160050160056101000a81548160ff021916908360ff1602179055509050506040518061014001604052806101f981526020016040518060400160405280600781526020017f57617463686f6700000000000000000000000000000000000000000000000000815250815260200160405180604001604052806040518060400160405280600681526020017f4e6f726d616c000000000000000000000000000000000000000000000000000081525081526020016040518060200160405280600081525081525081526020016040518060600160405280603d815260200162016235603d91398152602001603c60ff168152602001605560ff168152602001604560ff168152602001603c60ff168152602001604560ff168152602001604d60ff16815250600b6000016000604981526020019081526020016000206000820151816000015560208201518160010190816200a86691906200feef565b506040820151816002019060026200a8809291906200fb95565b5060608201518160040190816200a89891906200feef565b5060808201518160050160006101000a81548160ff021916908360ff16021790555060a08201518160050160016101000a81548160ff021916908360ff16021790555060c08201518160050160026101000a81548160ff021916908360ff16021790555060e08201518160050160036101000a81548160ff021916908360ff1602179055506101008201518160050160046101000a81548160ff021916908360ff1602179055506101208201518160050160056101000a81548160ff021916908360ff1602179055509050506040518061014001604052806101fa81526020016040518060400160405280600881526020017f4c696c6c69707570000000000000000000000000000000000000000000000000815250815260200160405180604001604052806040518060400160405280600681526020017f4e6f726d616c000000000000000000000000000000000000000000000000000081525081526020016040518060200160405280600081525081525081526020016040518060600160405280603d815260200162015d71603d91398152602001602d60ff168152602001603c60ff168152602001602d60ff168152602001601960ff168152602001602d60ff168152602001603760ff16815250600b6000016000604a81526020019081526020016000206000820151816000015560208201518160010190816200aaa291906200feef565b506040820151816002019060026200aabc9291906200fb95565b5060608201518160040190816200aad491906200feef565b5060808201518160050160006101000a81548160ff021916908360ff16021790555060a08201518160050160016101000a81548160ff021916908360ff16021790555060c08201518160050160026101000a81548160ff021916908360ff16021790555060e08201518160050160036101000a81548160ff021916908360ff1602179055506101008201518160050160046101000a81548160ff021916908360ff1602179055506101208201518160050160056101000a81548160ff021916908360ff1602179055509050506040518061014001604052806101fb81526020016040518060400160405280600781526020017f4865726469657200000000000000000000000000000000000000000000000000815250815260200160405180604001604052806040518060400160405280600681526020017f4e6f726d616c000000000000000000000000000000000000000000000000000081525081526020016040518060200160405280600081525081525081526020016040518060600160405280603d815260200162015bc6603d91398152602001604160ff168152602001605060ff168152602001604160ff168152602001602360ff168152602001604160ff168152602001603c60ff16815250600b6000016000604b81526020019081526020016000206000820151816000015560208201518160010190816200acde91906200feef565b506040820151816002019060026200acf89291906200fb95565b5060608201518160040190816200ad1091906200feef565b5060808201518160050160006101000a81548160ff021916908360ff16021790555060a08201518160050160016101000a81548160ff021916908360ff16021790555060c08201518160050160026101000a81548160ff021916908360ff16021790555060e08201518160050160036101000a81548160ff021916908360ff1602179055506101008201518160050160046101000a81548160ff021916908360ff1602179055506101208201518160050160056101000a81548160ff021916908360ff1602179055509050506040518061014001604052806101fc81526020016040518060400160405280600981526020017f53746f75746c616e640000000000000000000000000000000000000000000000815250815260200160405180604001604052806040518060400160405280600681526020017f4e6f726d616c000000000000000000000000000000000000000000000000000081525081526020016040518060200160405280600081525081525081526020016040518060600160405280603d815260200162015a95603d91398152602001605560ff168152602001606e60ff168152602001605a60ff168152602001602d60ff168152602001605a60ff168152602001605060ff16815250600b6000016000604c81526020019081526020016000206000820151816000015560208201518160010190816200af1a91906200feef565b506040820151816002019060026200af349291906200fb95565b5060608201518160040190816200af4c91906200feef565b5060808201518160050160006101000a81548160ff021916908360ff16021790555060a08201518160050160016101000a81548160ff021916908360ff16021790555060c08201518160050160026101000a81548160ff021916908360ff16021790555060e08201518160050160036101000a81548160ff021916908360ff1602179055506101008201518160050160046101000a81548160ff021916908360ff1602179055506101208201518160050160056101000a81548160ff021916908360ff16021790555090505060405180610140016040528061020781526020016040518060400160405280600681526020017f5069646f76650000000000000000000000000000000000000000000000000000815250815260200160405180604001604052806040518060400160405280600681526020017f4e6f726d616c000000000000000000000000000000000000000000000000000081525081526020016040518060400160405280600681526020017f466c79696e67000000000000000000000000000000000000000000000000000081525081525081526020016040518060600160405280603d815260200162014d00603d91398152602001603260ff168152602001603760ff168152602001603260ff168152602001602460ff168152602001601e60ff168152602001602b60ff16815250600b6000016000604d81526020019081526020016000206000820151816000015560208201518160010190816200b17c91906200feef565b506040820151816002019060026200b1969291906200fb95565b5060608201518160040190816200b1ae91906200feef565b5060808201518160050160006101000a81548160ff021916908360ff16021790555060a08201518160050160016101000a81548160ff021916908360ff16021790555060c08201518160050160026101000a81548160ff021916908360ff16021790555060e08201518160050160036101000a81548160ff021916908360ff1602179055506101008201518160050160046101000a81548160ff021916908360ff1602179055506101208201518160050160056101000a81548160ff021916908360ff16021790555090505060405180610140016040528061020881526020016040518060400160405280600981526020017f5472616e7175696c6c0000000000000000000000000000000000000000000000815250815260200160405180604001604052806040518060400160405280600681526020017f4e6f726d616c000000000000000000000000000000000000000000000000000081525081526020016040518060400160405280600681526020017f466c79696e67000000000000000000000000000000000000000000000000000081525081525081526020016040518060600160405280603d815260200162015edf603d91398152602001603e60ff168152602001604d60ff168152602001603e60ff168152602001603260ff168152602001602a60ff168152602001604160ff16815250600b6000016000604e81526020019081526020016000206000820151816000015560208201518160010190816200b3de91906200feef565b506040820151816002019060026200b3f89291906200fb95565b5060608201518160040190816200b41091906200feef565b5060808201518160050160006101000a81548160ff021916908360ff16021790555060a08201518160050160016101000a81548160ff021916908360ff16021790555060c08201518160050160026101000a81548160ff021916908360ff16021790555060e08201518160050160036101000a81548160ff021916908360ff1602179055506101008201518160050160046101000a81548160ff021916908360ff1602179055506101208201518160050160056101000a81548160ff021916908360ff16021790555090505060405180610140016040528061020981526020016040518060400160405280600881526020017f556e66657a616e74000000000000000000000000000000000000000000000000815250815260200160405180604001604052806040518060400160405280600681526020017f4e6f726d616c000000000000000000000000000000000000000000000000000081525081526020016040518060400160405280600681526020017f466c79696e67000000000000000000000000000000000000000000000000000081525081525081526020016040518060600160405280603d815260200162015463603d91398152602001605060ff168152602001607360ff168152602001605060ff168152602001604160ff168152602001603760ff168152602001605d60ff16815250600b6000016000604f81526020019081526020016000206000820151816000015560208201518160010190816200b64091906200feef565b506040820151816002019060026200b65a9291906200fb95565b5060608201518160040190816200b67291906200feef565b5060808201518160050160006101000a81548160ff021916908360ff16021790555060a08201518160050160016101000a81548160ff021916908360ff16021790555060c08201518160050160026101000a81548160ff021916908360ff16021790555060e08201518160050160036101000a81548160ff021916908360ff1602179055506101008201518160050160046101000a81548160ff021916908360ff1602179055506101208201518160050160056101000a81548160ff021916908360ff16021790555090505060405180610140016040528061021381526020016040518060400160405280600681526020017f417564696e6f0000000000000000000000000000000000000000000000000000815250815260200160405180604001604052806040518060400160405280600681526020017f4e6f726d616c000000000000000000000000000000000000000000000000000081525081526020016040518060200160405280600081525081525081526020016040518060600160405280603d8152602001620162ec603d91398152602001606760ff168152602001603c60ff168152602001605660ff168152602001603c60ff168152602001605660ff168152602001603260ff16815250600b6000016000605081526020019081526020016000206000820151816000015560208201518160010190816200b87c91906200feef565b506040820151816002019060026200b8969291906200fb95565b5060608201518160040190816200b8ae91906200feef565b5060808201518160050160006101000a81548160ff021916908360ff16021790555060a08201518160050160016101000a81548160ff021916908360ff16021790555060c08201518160050160026101000a81548160ff021916908360ff16021790555060e08201518160050160036101000a81548160ff021916908360ff1602179055506101008201518160050160046101000a81548160ff021916908360ff1602179055506101208201518160050160056101000a81548160ff021916908360ff16021790555090505060405180610140016040528061023c81526020016040518060400160405280600881526020017f4d696e6363696e6f000000000000000000000000000000000000000000000000815250815260200160405180604001604052806040518060400160405280600681526020017f4e6f726d616c000000000000000000000000000000000000000000000000000081525081526020016040518060200160405280600081525081525081526020016040518060600160405280603d815260200162015ad2603d91398152602001603760ff168152602001603260ff168152602001602860ff168152602001602860ff168152602001602860ff168152602001604b60ff16815250600b6000016000605181526020019081526020016000206000820151816000015560208201518160010190816200bab891906200feef565b506040820151816002019060026200bad29291906200fb95565b5060608201518160040190816200baea91906200feef565b5060808201518160050160006101000a81548160ff021916908360ff16021790555060a08201518160050160016101000a81548160ff021916908360ff16021790555060c08201518160050160026101000a81548160ff021916908360ff16021790555060e08201518160050160036101000a81548160ff021916908360ff1602179055506101008201518160050160046101000a81548160ff021916908360ff1602179055506101208201518160050160056101000a81548160ff021916908360ff16021790555090505060405180610140016040528061023d81526020016040518060400160405280600881526020017f43696e6363696e6f000000000000000000000000000000000000000000000000815250815260200160405180604001604052806040518060400160405280600681526020017f4e6f726d616c000000000000000000000000000000000000000000000000000081525081526020016040518060200160405280600081525081525081526020016040518060600160405280603d8152602001620159de603d91398152602001604b60ff168152602001605f60ff168152602001603c60ff168152602001604160ff168152602001603c60ff168152602001607360ff16815250600b6000016000605281526020019081526020016000206000820151816000015560208201518160010190816200bcf491906200feef565b506040820151816002019060026200bd0e9291906200fb95565b5060608201518160040190816200bd2691906200feef565b5060808201518160050160006101000a81548160ff021916908360ff16021790555060a08201518160050160016101000a81548160ff021916908360ff16021790555060c08201518160050160026101000a81548160ff021916908360ff16021790555060e08201518160050160036101000a81548160ff021916908360ff1602179055506101008201518160050160046101000a81548160ff021916908360ff1602179055506101208201518160050160056101000a81548160ff021916908360ff16021790555090505060405180610140016040528061024981526020016040518060400160405280600881526020017f446565726c696e67000000000000000000000000000000000000000000000000815250815260200160405180604001604052806040518060400160405280600681526020017f4e6f726d616c000000000000000000000000000000000000000000000000000081525081526020016040518060400160405280600581526020017f477261737300000000000000000000000000000000000000000000000000000081525081525081526020016040518060600160405280603d81526020016201604d603d91398152602001603c60ff168152602001603c60ff168152602001603260ff168152602001602860ff168152602001603260ff168152602001604b60ff16815250600b6000016000605381526020019081526020016000206000820151816000015560208201518160010190816200bf5691906200feef565b506040820151816002019060026200bf709291906200fb95565b5060608201518160040190816200bf8891906200feef565b5060808201518160050160006101000a81548160ff021916908360ff16021790555060a08201518160050160016101000a81548160ff021916908360ff16021790555060c08201518160050160026101000a81548160ff021916908360ff16021790555060e08201518160050160036101000a81548160ff021916908360ff1602179055506101008201518160050160046101000a81548160ff021916908360ff1602179055506101208201518160050160056101000a81548160ff021916908360ff16021790555090505060405180610140016040528061024a81526020016040518060400160405280600881526020017f536177736275636b000000000000000000000000000000000000000000000000815250815260200160405180604001604052806040518060400160405280600681526020017f4e6f726d616c000000000000000000000000000000000000000000000000000081525081526020016040518060400160405280600581526020017f477261737300000000000000000000000000000000000000000000000000000081525081525081526020016040518060600160405280603d8152602001620153e9603d91398152602001605060ff168152602001606460ff168152602001604660ff168152602001603c60ff168152602001604660ff168152602001605f60ff16815250600b6000016000605481526020019081526020016000206000820151816000015560208201518160010190816200c1b891906200feef565b506040820151816002019060026200c1d29291906200fb95565b5060608201518160040190816200c1ea91906200feef565b5060808201518160050160006101000a81548160ff021916908360ff16021790555060a08201518160050160016101000a81548160ff021916908360ff16021790555060c08201518160050160026101000a81548160ff021916908360ff16021790555060e08201518160050160036101000a81548160ff021916908360ff1602179055506101008201518160050160046101000a81548160ff021916908360ff1602179055506101208201518160050160056101000a81548160ff021916908360ff16021790555090505060405180610140016040528061027281526020016040518060400160405280600a81526020017f426f756666616c616e7400000000000000000000000000000000000000000000815250815260200160405180604001604052806040518060400160405280600681526020017f4e6f726d616c000000000000000000000000000000000000000000000000000081525081526020016040518060200160405280600081525081525081526020016040518060600160405280603d815260200162015c7d603d91398152602001605f60ff168152602001606e60ff168152602001605f60ff168152602001602860ff168152602001605f60ff168152602001603760ff16815250600b6000016000605581526020019081526020016000206000820151816000015560208201518160010190816200c3f491906200feef565b506040820151816002019060026200c40e9291906200fb95565b5060608201518160040190816200c42691906200feef565b5060808201518160050160006101000a81548160ff021916908360ff16021790555060a08201518160050160016101000a81548160ff021916908360ff16021790555060c08201518160050160026101000a81548160ff021916908360ff16021790555060e08201518160050160036101000a81548160ff021916908360ff1602179055506101008201518160050160046101000a81548160ff021916908360ff1602179055506101208201518160050160056101000a81548160ff021916908360ff16021790555090505060405180610140016040528061027381526020016040518060400160405280600781526020017f527566666c657400000000000000000000000000000000000000000000000000815250815260200160405180604001604052806040518060400160405280600681526020017f4e6f726d616c000000000000000000000000000000000000000000000000000081525081526020016040518060400160405280600681526020017f466c79696e67000000000000000000000000000000000000000000000000000081525081525081526020016040518060600160405280603d815260200162015f59603d91398152602001604660ff168152602001605360ff168152602001603260ff168152602001602560ff168152602001603260ff168152602001603c60ff16815250600b6000016000605681526020019081526020016000206000820151816000015560208201518160010190816200c65691906200feef565b506040820151816002019060026200c6709291906200fb95565b5060608201518160040190816200c68891906200feef565b5060808201518160050160006101000a81548160ff021916908360ff16021790555060a08201518160050160016101000a81548160ff021916908360ff16021790555060c08201518160050160026101000a81548160ff021916908360ff16021790555060e08201518160050160036101000a81548160ff021916908360ff1602179055506101008201518160050160046101000a81548160ff021916908360ff1602179055506101208201518160050160056101000a81548160ff021916908360ff16021790555090505060405180610140016040528061027481526020016040518060400160405280600881526020017f4272617669617279000000000000000000000000000000000000000000000000815250815260200160405180604001604052806040518060400160405280600681526020017f4e6f726d616c000000000000000000000000000000000000000000000000000081525081526020016040518060400160405280600681526020017f466c79696e67000000000000000000000000000000000000000000000000000081525081525081526020016040518060600160405280603d815260200162014c49603d91398152602001606460ff168152602001607b60ff168152602001604b60ff168152602001603960ff168152602001604b60ff168152602001605060ff16815250600b6000016000605781526020019081526020016000206000820151816000015560208201518160010190816200c8b891906200feef565b506040820151816002019060026200c8d29291906200fb95565b5060608201518160040190816200c8ea91906200feef565b5060808201518160050160006101000a81548160ff021916908360ff16021790555060a08201518160050160016101000a81548160ff021916908360ff16021790555060c08201518160050160026101000a81548160ff021916908360ff16021790555060e08201518160050160036101000a81548160ff021916908360ff1602179055506101008201518160050160046101000a81548160ff021916908360ff1602179055506101208201518160050160056101000a81548160ff021916908360ff16021790555090505060405180610140016040528061028881526020016040518060400160405280600881526020017f4d656c6f65747461000000000000000000000000000000000000000000000000815250815260200160405180604001604052806040518060400160405280600681526020017f4e6f726d616c000000000000000000000000000000000000000000000000000081525081526020016040518060400160405280600781526020017f507379636869630000000000000000000000000000000000000000000000000081525081525081526020016040518060600160405280603d815260200162015ea2603d91398152602001606460ff168152602001604d60ff168152602001604d60ff168152602001608060ff168152602001608060ff168152602001605a60ff16815250600b6000016000605881526020019081526020016000206000820151816000015560208201518160010190816200cb1a91906200feef565b506040820151816002019060026200cb349291906200fb95565b5060608201518160040190816200cb4c91906200feef565b5060808201518160050160006101000a81548160ff021916908360ff16021790555060a08201518160050160016101000a81548160ff021916908360ff16021790555060c08201518160050160026101000a81548160ff021916908360ff16021790555060e08201518160050160036101000a81548160ff021916908360ff1602179055506101008201518160050160046101000a81548160ff021916908360ff1602179055506101208201518160050160056101000a81548160ff021916908360ff16021790555090505060405180610140016040528061029381526020016040518060400160405280600881526020017f42756e6e656c6279000000000000000000000000000000000000000000000000815250815260200160405180604001604052806040518060400160405280600681526020017f4e6f726d616c000000000000000000000000000000000000000000000000000081525081526020016040518060200160405280600081525081525081526020016040518060600160405280603d815260200162016141603d91398152602001602660ff168152602001602460ff168152602001602660ff168152602001602060ff168152602001602460ff168152602001603960ff16815250600b6000016000605981526020019081526020016000206000820151816000015560208201518160010190816200cd5691906200feef565b506040820151816002019060026200cd709291906200fb95565b5060608201518160040190816200cd8891906200feef565b5060808201518160050160006101000a81548160ff021916908360ff16021790555060a08201518160050160016101000a81548160ff021916908360ff16021790555060c08201518160050160026101000a81548160ff021916908360ff16021790555060e08201518160050160036101000a81548160ff021916908360ff1602179055506101008201518160050160046101000a81548160ff021916908360ff1602179055506101208201518160050160056101000a81548160ff021916908360ff16021790555090505060405180610140016040528061029481526020016040518060400160405280600981526020017f4469676765727362790000000000000000000000000000000000000000000000815250815260200160405180604001604052806040518060400160405280600681526020017f4e6f726d616c000000000000000000000000000000000000000000000000000081525081526020016040518060400160405280600681526020017f47726f756e64000000000000000000000000000000000000000000000000000081525081525081526020016040518060600160405280603d815260200162014fdc603d91398152602001605560ff168152602001603860ff168152602001604d60ff168152602001603260ff168152602001604d60ff168152602001604e60ff16815250600b6000016000605a81526020019081526020016000206000820151816000015560208201518160010190816200cfb891906200feef565b506040820151816002019060026200cfd29291906200fb95565b5060608201518160040190816200cfea91906200feef565b5060808201518160050160006101000a81548160ff021916908360ff16021790555060a08201518160050160016101000a81548160ff021916908360ff16021790555060c08201518160050160026101000a81548160ff021916908360ff16021790555060e08201518160050160036101000a81548160ff021916908360ff1602179055506101008201518160050160046101000a81548160ff021916908360ff1602179055506101208201518160050160056101000a81548160ff021916908360ff16021790555090505060405180610140016040528061029581526020016040518060400160405280600a81526020017f466c657463686c696e6700000000000000000000000000000000000000000000815250815260200160405180604001604052806040518060400160405280600681526020017f4e6f726d616c000000000000000000000000000000000000000000000000000081525081526020016040518060400160405280600681526020017f466c79696e67000000000000000000000000000000000000000000000000000081525081525081526020016040518060600160405280603d81526020016201608a603d91398152602001602d60ff168152602001603260ff168152602001602b60ff168152602001602860ff168152602001602660ff168152602001603e60ff16815250600b6000016000605b81526020019081526020016000206000820151816000015560208201518160010190816200d21a91906200feef565b506040820151816002019060026200d2349291906200fb95565b5060608201518160040190816200d24c91906200feef565b5060808201518160050160006101000a81548160ff021916908360ff16021790555060a08201518160050160016101000a81548160ff021916908360ff16021790555060c08201518160050160026101000a81548160ff021916908360ff16021790555060e08201518160050160036101000a81548160ff021916908360ff1602179055506101008201518160050160046101000a81548160ff021916908360ff1602179055506101208201518160050160056101000a81548160ff021916908360ff16021790555090505060405180610140016040528061029b81526020016040518060400160405280600681526020017f4c69746c656f0000000000000000000000000000000000000000000000000000815250815260200160405180604001604052806040518060400160405280600481526020017f466972650000000000000000000000000000000000000000000000000000000081525081526020016040518060400160405280600681526020017f4e6f726d616c000000000000000000000000000000000000000000000000000081525081525081526020016040518060600160405280603d815260200162014e31603d91398152602001603e60ff168152602001603260ff168152602001603a60ff168152602001604960ff168152602001603660ff168152602001604860ff16815250600b6000016000605c81526020019081526020016000206000820151816000015560208201518160010190816200d47c91906200feef565b506040820151816002019060026200d4969291906200fb95565b5060608201518160040190816200d4ae91906200feef565b5060808201518160050160006101000a81548160ff021916908360ff16021790555060a08201518160050160016101000a81548160ff021916908360ff16021790555060c08201518160050160026101000a81548160ff021916908360ff16021790555060e08201518160050160036101000a81548160ff021916908360ff1602179055506101008201518160050160046101000a81548160ff021916908360ff1602179055506101208201518160050160056101000a81548160ff021916908360ff16021790555090505060405180610140016040528061029c81526020016040518060400160405280600681526020017f5079726f61720000000000000000000000000000000000000000000000000000815250815260200160405180604001604052806040518060400160405280600481526020017f466972650000000000000000000000000000000000000000000000000000000081525081526020016040518060400160405280600681526020017f4e6f726d616c000000000000000000000000000000000000000000000000000081525081525081526020016040518060600160405280603d81526020016201551a603d91398152602001605660ff168152602001604460ff168152602001604860ff168152602001606d60ff168152602001604260ff168152602001606a60ff16815250600b6000016000605d81526020019081526020016000206000820151816000015560208201518160010190816200d6de91906200feef565b506040820151816002019060026200d6f89291906200fb95565b5060608201518160040190816200d71091906200feef565b5060808201518160050160006101000a81548160ff021916908360ff16021790555060a08201518160050160016101000a81548160ff021916908360ff16021790555060c08201518160050160026101000a81548160ff021916908360ff16021790555060e08201518160050160036101000a81548160ff021916908360ff1602179055506101008201518160050160046101000a81548160ff021916908360ff1602179055506101208201518160050160056101000a81548160ff021916908360ff1602179055509050506040518061014001604052806102a481526020016040518060400160405280600781526020017f46757266726f7500000000000000000000000000000000000000000000000000815250815260200160405180604001604052806040518060400160405280600681526020017f4e6f726d616c000000000000000000000000000000000000000000000000000081525081526020016040518060200160405280600081525081525081526020016040518060600160405280603d8152602001620152b8603d91398152602001604b60ff168152602001605060ff168152602001603c60ff168152602001604160ff168152602001605a60ff168152602001606660ff16815250600b6000016000605e81526020019081526020016000206000820151816000015560208201518160010190816200d91a91906200feef565b506040820151816002019060026200d9349291906200fb95565b5060608201518160040190816200d94c91906200feef565b5060808201518160050160006101000a81548160ff021916908360ff16021790555060a08201518160050160016101000a81548160ff021916908360ff16021790555060c08201518160050160026101000a81548160ff021916908360ff16021790555060e08201518160050160036101000a81548160ff021916908360ff1602179055506101008201518160050160046101000a81548160ff021916908360ff1602179055506101208201518160050160056101000a81548160ff021916908360ff1602179055509050506040518061014001604052806102b681526020016040518060400160405280600a81526020017f48656c696f7074696c6500000000000000000000000000000000000000000000815250815260200160405180604001604052806040518060400160405280600881526020017f456c65637472696300000000000000000000000000000000000000000000000081525081526020016040518060400160405280600681526020017f4e6f726d616c000000000000000000000000000000000000000000000000000081525081525081526020016040518060600160405280603d815260200162015dae603d91398152602001602c60ff168152602001602660ff168152602001602160ff168152602001603d60ff168152602001602b60ff168152602001604660ff16815250600b6000016000605f81526020019081526020016000206000820151816000015560208201518160010190816200db7c91906200feef565b506040820151816002019060026200db969291906200fb95565b5060608201518160040190816200dbae91906200feef565b5060808201518160050160006101000a81548160ff021916908360ff16021790555060a08201518160050160016101000a81548160ff021916908360ff16021790555060c08201518160050160026101000a81548160ff021916908360ff16021790555060e08201518160050160036101000a81548160ff021916908360ff1602179055506101008201518160050160046101000a81548160ff021916908360ff1602179055506101208201518160050160056101000a81548160ff021916908360ff1602179055509050506040518061014001604052806102b781526020016040518060400160405280600981526020017f48656c696f6c69736b0000000000000000000000000000000000000000000000815250815260200160405180604001604052806040518060400160405280600881526020017f456c65637472696300000000000000000000000000000000000000000000000081525081526020016040518060400160405280600681526020017f4e6f726d616c000000000000000000000000000000000000000000000000000081525081525081526020016040518060600160405280603d815260200162015f1c603d91398152602001603e60ff168152602001603760ff168152602001603460ff168152602001606d60ff168152602001605e60ff168152602001606d60ff16815250600b6000016000606081526020019081526020016000206000820151816000015560208201518160010190816200ddde91906200feef565b506040820151816002019060026200ddf89291906200fb95565b5060608201518160040190816200de1091906200feef565b5060808201518160050160006101000a81548160ff021916908360ff16021790555060a08201518160050160016101000a81548160ff021916908360ff16021790555060c08201518160050160026101000a81548160ff021916908360ff16021790555060e08201518160050160036101000a81548160ff021916908360ff1602179055506101008201518160050160046101000a81548160ff021916908360ff1602179055506101208201518160050160056101000a81548160ff021916908360ff1602179055509050506040518061014001604052806102db81526020016040518060400160405280600781526020017f50696b6970656b00000000000000000000000000000000000000000000000000815250815260200160405180604001604052806040518060400160405280600681526020017f4e6f726d616c000000000000000000000000000000000000000000000000000081525081526020016040518060400160405280600681526020017f466c79696e67000000000000000000000000000000000000000000000000000081525081525081526020016040518060600160405280603d815260200162014c0c603d91398152602001602360ff168152602001604b60ff168152602001601e60ff168152602001601e60ff168152602001601e60ff168152602001604160ff16815250600b6000016000606181526020019081526020016000206000820151816000015560208201518160010190816200e04091906200feef565b506040820151816002019060026200e05a9291906200fb95565b5060608201518160040190816200e07291906200feef565b5060808201518160050160006101000a81548160ff021916908360ff16021790555060a08201518160050160016101000a81548160ff021916908360ff16021790555060c08201518160050160026101000a81548160ff021916908360ff16021790555060e08201518160050160036101000a81548160ff021916908360ff1602179055506101008201518160050160046101000a81548160ff021916908360ff1602179055506101208201518160050160056101000a81548160ff021916908360ff1602179055509050506040518061014001604052806102dc81526020016040518060400160405280600881526020017f5472756d6265616b000000000000000000000000000000000000000000000000815250815260200160405180604001604052806040518060400160405280600681526020017f4e6f726d616c000000000000000000000000000000000000000000000000000081525081526020016040518060400160405280600681526020017f466c79696e67000000000000000000000000000000000000000000000000000081525081525081526020016040518060600160405280603d8152602001620161f8603d91398152602001603760ff168152602001605560ff168152602001603260ff168152602001602860ff168152602001603260ff168152602001604b60ff16815250600b6000016000606281526020019081526020016000206000820151816000015560208201518160010190816200e2a291906200feef565b506040820151816002019060026200e2bc9291906200fb95565b5060608201518160040190816200e2d491906200feef565b5060808201518160050160006101000a81548160ff021916908360ff16021790555060a08201518160050160016101000a81548160ff021916908360ff16021790555060c08201518160050160026101000a81548160ff021916908360ff16021790555060e08201518160050160036101000a81548160ff021916908360ff1602179055506101008201518160050160046101000a81548160ff021916908360ff1602179055506101208201518160050160056101000a81548160ff021916908360ff1602179055509050506040518061014001604052806102dd81526020016040518060400160405280600981526020017f546f7563616e6e6f6e0000000000000000000000000000000000000000000000815250815260200160405180604001604052806040518060400160405280600681526020017f4e6f726d616c000000000000000000000000000000000000000000000000000081525081526020016040518060400160405280600681526020017f466c79696e67000000000000000000000000000000000000000000000000000081525081525081526020016040518060600160405280603d815260200162015cba603d91398152602001605060ff168152602001607860ff168152602001604b60ff168152602001604b60ff168152602001604b60ff168152602001603c60ff16815250600b6000016000606381526020019081526020016000206000820151816000015560208201518160010190816200e50491906200feef565b506040820151816002019060026200e51e9291906200fb95565b5060608201518160040190816200e53691906200feef565b5060808201518160050160006101000a81548160ff021916908360ff16021790555060a08201518160050160016101000a81548160ff021916908360ff16021790555060c08201518160050160026101000a81548160ff021916908360ff16021790555060e08201518160050160036101000a81548160ff021916908360ff1602179055506101008201518160050160046101000a81548160ff021916908360ff1602179055506101208201518160050160056101000a81548160ff021916908360ff1602179055509050506040518061014001604052806102de81526020016040518060400160405280600781526020017f59756e676f6f7300000000000000000000000000000000000000000000000000815250815260200160405180604001604052806040518060400160405280600681526020017f4e6f726d616c000000000000000000000000000000000000000000000000000081525081526020016040518060200160405280600081525081525081526020016040518060600160405280603d8152602001620158ea603d91398152602001603060ff168152602001604660ff168152602001601e60ff168152602001601e60ff168152602001601e60ff168152602001602d60ff16815250600b6000016000606481526020019081526020016000206000820151816000015560208201518160010190816200e74091906200feef565b506040820151816002019060026200e75a9291906200fb95565b5060608201518160040190816200e77291906200feef565b5060808201518160050160006101000a81548160ff021916908360ff16021790555060a08201518160050160016101000a81548160ff021916908360ff16021790555060c08201518160050160026101000a81548160ff021916908360ff16021790555060e08201518160050160036101000a81548160ff021916908360ff1602179055506101008201518160050160046101000a81548160ff021916908360ff1602179055506101208201518160050160056101000a81548160ff021916908360ff1602179055509050506040518061014001604052806102df81526020016040518060400160405280600881526020017f47756d73686f6f73000000000000000000000000000000000000000000000000815250815260200160405180604001604052806040518060400160405280600681526020017f4e6f726d616c000000000000000000000000000000000000000000000000000081525081526020016040518060200160405280600081525081525081526020016040518060600160405280603d815260200162016366603d91398152602001605860ff168152602001606e60ff168152602001603c60ff168152602001603760ff168152602001603c60ff168152602001602d60ff16815250600b6000016000606581526020019081526020016000206000820151816000015560208201518160010190816200e97c91906200feef565b506040820151816002019060026200e9969291906200fb95565b5060608201518160040190816200e9ae91906200feef565b5060808201518160050160006101000a81548160ff021916908360ff16021790555060a08201518160050160016101000a81548160ff021916908360ff16021790555060c08201518160050160026101000a81548160ff021916908360ff16021790555060e08201518160050160036101000a81548160ff021916908360ff1602179055506101008201518160050160046101000a81548160ff021916908360ff1602179055506101208201518160050160056101000a81548160ff021916908360ff1602179055509050506040518061014001604052806102f781526020016040518060400160405280600781526020017f5374756666756c00000000000000000000000000000000000000000000000000815250815260200160405180604001604052806040518060400160405280600681526020017f4e6f726d616c000000000000000000000000000000000000000000000000000081525081526020016040518060400160405280600881526020017f4669676874696e6700000000000000000000000000000000000000000000000081525081525081526020016040518060600160405280603d8152602001620152f5603d91398152602001604660ff168152602001604b60ff168152602001603260ff168152602001602d60ff168152602001603260ff168152602001603260ff16815250600b6000016000606681526020019081526020016000206000820151816000015560208201518160010190816200ebde91906200feef565b506040820151816002019060026200ebf89291906200fb95565b5060608201518160040190816200ec1091906200feef565b5060808201518160050160006101000a81548160ff021916908360ff16021790555060a08201518160050160016101000a81548160ff021916908360ff16021790555060c08201518160050160026101000a81548160ff021916908360ff16021790555060e08201518160050160036101000a81548160ff021916908360ff1602179055506101008201518160050160046101000a81548160ff021916908360ff1602179055506101208201518160050160056101000a81548160ff021916908360ff1602179055509050506040518061014001604052806102f881526020016040518060400160405280600681526020017f4265776561720000000000000000000000000000000000000000000000000000815250815260200160405180604001604052806040518060400160405280600681526020017f4e6f726d616c000000000000000000000000000000000000000000000000000081525081526020016040518060400160405280600881526020017f4669676874696e6700000000000000000000000000000000000000000000000081525081525081526020016040518060600160405280603d815260200162015deb603d91398152602001607860ff168152602001607d60ff168152602001605060ff168152602001603760ff168152602001603c60ff168152602001603c60ff16815250600b6000016000606781526020019081526020016000206000820151816000015560208201518160010190816200ee4091906200feef565b506040820151816002019060026200ee5a9291906200fb95565b5060608201518160040190816200ee7291906200feef565b5060808201518160050160006101000a81548160ff021916908360ff16021790555060a08201518160050160016101000a81548160ff021916908360ff16021790555060c08201518160050160026101000a81548160ff021916908360ff16021790555060e08201518160050160036101000a81548160ff021916908360ff1602179055506101008201518160050160046101000a81548160ff021916908360ff1602179055506101208201518160050160056101000a81548160ff021916908360ff1602179055509050506040518061014001604052806102fd81526020016040518060400160405280600881526020017f4f72616e67757275000000000000000000000000000000000000000000000000815250815260200160405180604001604052806040518060400160405280600681526020017f4e6f726d616c000000000000000000000000000000000000000000000000000081525081526020016040518060400160405280600781526020017f507379636869630000000000000000000000000000000000000000000000000081525081525081526020016040518060600160405280603d8152602001620150d0603d91398152602001605a60ff168152602001603c60ff168152602001605060ff168152602001605a60ff168152602001606e60ff168152602001603c60ff16815250600b6000016000606881526020019081526020016000206000820151816000015560208201518160010190816200f0a291906200feef565b506040820151816002019060026200f0bc9291906200fb95565b5060608201518160040190816200f0d491906200feef565b5060808201518160050160006101000a81548160ff021916908360ff16021790555060a08201518160050160016101000a81548160ff021916908360ff16021790555060c08201518160050160026101000a81548160ff021916908360ff16021790555060e08201518160050160036101000a81548160ff021916908360ff1602179055506101008201518160050160046101000a81548160ff021916908360ff1602179055506101208201518160050160056101000a81548160ff021916908360ff16021790555090505060405180610140016040528061030481526020016040518060400160405280600a81526020017f547970653a204e756c6c00000000000000000000000000000000000000000000815250815260200160405180604001604052806040518060400160405280600681526020017f4e6f726d616c000000000000000000000000000000000000000000000000000081525081526020016040518060200160405280600081525081525081526020016040518060600160405280603d815260200162014d7a603d91398152602001605f60ff168152602001605f60ff168152602001605f60ff168152602001605f60ff168152602001605f60ff168152602001603b60ff16815250600b6000016000606981526020019081526020016000206000820151816000015560208201518160010190816200f2de91906200feef565b506040820151816002019060026200f2f89291906200fb95565b5060608201518160040190816200f31091906200feef565b5060808201518160050160006101000a81548160ff021916908360ff16021790555060a08201518160050160016101000a81548160ff021916908360ff16021790555060c08201518160050160026101000a81548160ff021916908360ff16021790555060e08201518160050160036101000a81548160ff021916908360ff1602179055506101008201518160050160046101000a81548160ff021916908360ff1602179055506101208201518160050160056101000a81548160ff021916908360ff16021790555090505060405180610140016040528061030581526020016040518060400160405280600881526020017f53696c76616c6c79000000000000000000000000000000000000000000000000815250815260200160405180604001604052806040518060400160405280600681526020017f4e6f726d616c000000000000000000000000000000000000000000000000000081525081526020016040518060200160405280600081525081525081526020016040518060600160405280603d815260200162015426603d91398152602001605f60ff168152602001605f60ff168152602001605f60ff168152602001605f60ff168152602001605f60ff168152602001605f60ff16815250600b6000016000606a81526020019081526020016000206000820151816000015560208201518160010190816200f51a91906200feef565b506040820151816002019060026200f5349291906200fb95565b5060608201518160040190816200f54c91906200feef565b5060808201518160050160006101000a81548160ff021916908360ff16021790555060a08201518160050160016101000a81548160ff021916908360ff16021790555060c08201518160050160026101000a81548160ff021916908360ff16021790555060e08201518160050160036101000a81548160ff021916908360ff1602179055506101008201518160050160046101000a81548160ff021916908360ff1602179055506101208201518160050160056101000a81548160ff021916908360ff16021790555090505060405180610140016040528061030781526020016040518060400160405280600681526020017f4b6f6d616c610000000000000000000000000000000000000000000000000000815250815260200160405180604001604052806040518060400160405280600681526020017f4e6f726d616c000000000000000000000000000000000000000000000000000081525081526020016040518060200160405280600081525081525081526020016040518060600160405280603d815260200162014db7603d91398152602001604160ff168152602001607360ff168152602001604160ff168152602001604b60ff168152602001605f60ff168152602001604160ff16815250600b6000016000606b81526020019081526020016000206000820151816000015560208201518160010190816200f75691906200feef565b506040820151816002019060026200f7709291906200fb95565b5060608201518160040190816200f78891906200feef565b5060808201518160050160006101000a81548160ff021916908360ff16021790555060a08201518160050160016101000a81548160ff021916908360ff16021790555060c08201518160050160026101000a81548160ff021916908360ff16021790555060e08201518160050160036101000a81548160ff021916908360ff1602179055506101008201518160050160046101000a81548160ff021916908360ff1602179055506101208201518160050160056101000a81548160ff021916908360ff16021790555090505060405180610140016040528061030c81526020016040518060400160405280600681526020017f4472616d70610000000000000000000000000000000000000000000000000000815250815260200160405180604001604052806040518060400160405280600681526020017f4e6f726d616c000000000000000000000000000000000000000000000000000081525081526020016040518060400160405280600681526020017f447261676f6e000000000000000000000000000000000000000000000000000081525081525081526020016040518060600160405280603d815260200162015f96603d91398152602001604e60ff168152602001603c60ff168152602001605560ff168152602001608760ff168152602001605b60ff168152602001602460ff16815250600b6000016000606c81526020019081526020016000206000820151816000015560208201518160010190816200f9b891906200feef565b506040820151816002019060026200f9d29291906200fb95565b5060608201518160040190816200f9ea91906200feef565b5060808201518160050160006101000a81548160ff021916908360ff16021790555060a08201518160050160016101000a81548160ff021916908360ff16021790555060c08201518160050160026101000a81548160ff021916908360ff16021790555060e08201518160050160036101000a81548160ff021916908360ff1602179055506101008201518160050160046101000a81548160ff021916908360ff1602179055506101208201518160050160056101000a81548160ff021916908360ff160217905550905050606d600b600101819055506200ffd6565b600033905090565b6000600660009054906101000a900473ffffffffffffffffffffffffffffffffffffffff16905081600660006101000a81548173ffffffffffffffffffffffffffffffffffffffff021916908373ffffffffffffffffffffffffffffffffffffffff1602179055508173ffffffffffffffffffffffffffffffffffffffff168173ffffffffffffffffffffffffffffffffffffffff167f8be0079c531659141344cd1fd0a4f28419497f9722a3daafe3b4186f6b6457e060405160405180910390a35050565b82600281019282156200fbd5579160200282015b828111156200fbd45782518290816200fbc391906200feef565b50916020019190600101906200fba9565b5b5090506200fbe491906200fbe8565b5090565b5b808211156200fc0c57600081816200fc0291906200fc10565b506001016200fbe9565b5090565b5080546200fc1e906200fcde565b6000825580601f106200fc3257506200fc53565b601f0160209004906000526020600020908101906200fc5291906200fc56565b5b50565b5b808211156200fc715760008160009055506001016200fc57565b5090565b600081519050919050565b7f4e487b7100000000000000000000000000000000000000000000000000000000600052604160045260246000fd5b7f4e487b7100000000000000000000000000000000000000000000000000000000600052602260045260246000fd5b600060028204905060018216806200fcf757607f821691505b6020821081036200fd0d576200fd0c6200fcaf565b5b50919050565b60008190508160005260206000209050919050565b60006020601f8301049050919050565b600082821b905092915050565b6000600883026200fd777fffffffffffffffffffffffffffffffffffffffffffffffffffffffffffffffff826200fd38565b6200fd8386836200fd38565b95508019841693508086168417925050509392505050565b6000819050919050565b6000819050919050565b60006200fdd06200fdca6200fdc4846200fd9b565b6200fda5565b6200fd9b565b9050919050565b6000819050919050565b6200fdec836200fdaf565b6200fe046200fdfb826200fdd7565b8484546200fd45565b825550505050565b600090565b6200fe1b6200fe0c565b6200fe288184846200fde1565b505050565b5b818110156200fe50576200fe446000826200fe11565b6001810190506200fe2e565b5050565b601f8211156200fe9f576200fe69816200fd13565b6200fe74846200fd28565b810160208510156200fe84578190505b6200fe9c6200fe93856200fd28565b8301826200fe2d565b50505b505050565b600082821c905092915050565b60006200fec4600019846008026200fea4565b1980831691505092915050565b60006200fedf83836200feb1565b9150826002028217905092915050565b6200fefa826200fc75565b67ffffffffffffffff8111156200ff16576200ff156200fc80565b5b6200ff2282546200fcde565b6200ff2f8282856200fe54565b600060209050601f8311600181146200ff6757600084156200ff52578287015190505b6200ff5e85826200fed1565b8655506200ffce565b601f1984166200ff77866200fd13565b60005b828110156200ffa1578489015182556001820191506020850194506020810190506200ff7a565b868310156200ffc157848901516200ffbd601f8916826200feb1565b8355505b6001600288020188555050505b505050505050565b614bac806200ffe66000396000f3fe608060405234801561001057600080fd5b506004361061018e5760003560e01c8063793eda12116100de578063b1cb6c2611610097578063c87b56dd11610071578063c87b56dd1461049b578063e985e9c5146104cb578063f0b305db146104fb578063f2fde38b1461052b5761018e565b8063b1cb6c2614610445578063b88d4fde14610461578063c7a6dd941461047d5761018e565b8063793eda1214610371578063805553e8146103a157806388564d39146103d15780638da5cb5b146103ed57806395d89b411461040b578063a22cb465146104295761018e565b80633f7e75391161014b5780636352211e116101255780636352211e146102cf5780636c607f57146102ff57806370a0823114610337578063715018a6146103675761018e565b80633f7e75391461026557806342842e0e1461028357806348d2ab921461029f5761018e565b806301ffc9a71461019357806306fdde03146101c3578063081812fc146101e1578063095ea7b3146102115780631b34dd651461022d57806323b872dd14610249575b600080fd5b6101ad60048036038101906101a89190612a2d565b610547565b6040516101ba9190612a75565b60405180910390f35b6101cb610559565b6040516101d89190612b29565b60405180910390f35b6101fb60048036038101906101f69190612b81565b6105eb565b6040516102089190612bef565b60405180910390f35b61022b60048036038101906102269190612c36565b610631565b005b61024760048036038101906102429190612c36565b610748565b005b610263600480360381019061025e9190612c76565b61085c565b005b61026d6108bc565b60405161027a9190612cd8565b60405180910390f35b61029d60048036038101906102989190612c76565b6108c8565b005b6102b960048036038101906102b49190612b81565b6108e8565b6040516102c69190612f06565b60405180910390f35b6102e960048036038101906102e49190612b81565b610bb9565b6040516102f69190612bef565b60405180910390f35b61031960048036038101906103149190612b81565b610c6a565b60405161032e99989796959493929190612f37565b60405180910390f35b610351600480360381019061034c9190612fd2565b610e16565b60405161035e9190612cd8565b60405180910390f35b61036f610ecd565b005b61038b60048036038101906103869190612c36565b610ee1565b6040516103989190612cd8565b60405180910390f35b6103bb60048036038101906103b69190612b81565b610f12565b6040516103c89190612cd8565b60405180910390f35b6103eb60048036038101906103e69190612fd2565b610f6e565b005b6103f5610fb2565b6040516104029190612bef565b60405180910390f35b610413610fdc565b6040516104209190612b29565b60405180910390f35b610443600480360381019061043e919061302b565b61106e565b005b61045f600480360381019061045a91906133f4565b611084565b005b61047b60048036038101906104769190613504565b6111c0565b005b610485611222565b6040516104929190613636565b60405180910390f35b6104b560048036038101906104b09190612b81565b6112b7565b6040516104c29190612b29565b60405180910390f35b6104e560048036038101906104e09190613658565b6114af565b6040516104f29190612a75565b60405180910390f35b61051560048036038101906105109190612b81565b611543565b6040516105229190612f06565b60405180910390f35b61054560048036038101906105409190612fd2565b611817565b005b60006105528261189a565b9050919050565b606060008054610568906136c7565b80601f0160208091040260200160405190810160405280929190818152602001828054610594906136c7565b80156105e15780601f106105b6576101008083540402835291602001916105e1565b820191906000526020600020905b8154815290600101906020018083116105c457829003601f168201915b5050505050905090565b60006105f68261197c565b6004600083815260200190815260200160002060009054906101000a900473ffffffffffffffffffffffffffffffffffffffff169050919050565b600061063c82610bb9565b90508073ffffffffffffffffffffffffffffffffffffffff168373ffffffffffffffffffffffffffffffffffffffff16036106ac576040517f08c379a00000000000000000000000000000000000000000000000000000000081526004016106a39061376a565b60405180910390fd5b8073ffffffffffffffffffffffffffffffffffffffff166106cb6119c7565b73ffffffffffffffffffffffffffffffffffffffff1614806106fa57506106f9816106f46119c7565b6114af565b5b610739576040517f08c379a0000000000000000000000000000000000000000000000000000000008152600401610730906137fc565b60405180910390fd5b61074383836119cf565b505050565b600a60009054906101000a900473ffffffffffffffffffffffffffffffffffffffff1673ffffffffffffffffffffffffffffffffffffffff163373ffffffffffffffffffffffffffffffffffffffff16036108585760005b81811015610856576107b26007611a88565b60006107be6007611a9e565b90506107dc84826107d76107d26064610f12565b611543565b611084565b600960008573ffffffffffffffffffffffffffffffffffffffff1673ffffffffffffffffffffffffffffffffffffffff16815260200190815260200160002081908060018154018082558091505060019003906000526020600020016000909190919091505550808061084e9061384b565b9150506107a0565b505b5050565b61086d6108676119c7565b82611aac565b6108ac576040517f08c379a00000000000000000000000000000000000000000000000000000000081526004016108a390613905565b60405180910390fd5b6108b7838383611b41565b505050565b600b8060010154905081565b6108e3838383604051806020016040528060008152506111c0565b505050565b6108f0612862565b600860008381526020019081526020016000206040518061014001604052908160008201548152602001600182018054610929906136c7565b80601f0160208091040260200160405190810160405280929190818152602001828054610955906136c7565b80156109a25780601f10610977576101008083540402835291602001916109a2565b820191906000526020600020905b81548152906001019060200180831161098557829003601f168201915b5050505050815260200160028201600280602002604051908101604052809291906000905b82821015610a6a5783820180546109dd906136c7565b80601f0160208091040260200160405190810160405280929190818152602001828054610a09906136c7565b8015610a565780601f10610a2b57610100808354040283529160200191610a56565b820191906000526020600020905b815481529060010190602001808311610a3957829003601f168201915b5050505050815260200190600101906109c7565b505050508152602001600482018054610a82906136c7565b80601f0160208091040260200160405190810160405280929190818152602001828054610aae906136c7565b8015610afb5780601f10610ad057610100808354040283529160200191610afb565b820191906000526020600020905b815481529060010190602001808311610ade57829003601f168201915b505050505081526020016005820160009054906101000a900460ff1660ff1660ff1681526020016005820160019054906101000a900460ff1660ff1660ff1681526020016005820160029054906101000a900460ff1660ff1660ff1681526020016005820160039054906101000a900460ff1660ff1660ff1681526020016005820160049054906101000a900460ff1660ff1660ff1681526020016005820160059054906101000a900460ff1660ff1660ff16815250509050919050565b6000806002600084815260200190815260200160002060009054906101000a900473ffffffffffffffffffffffffffffffffffffffff169050600073ffffffffffffffffffffffffffffffffffffffff168173ffffffffffffffffffffffffffffffffffffffff1603610c61576040517f08c379a0000000000000000000000000000000000000000000000000000000008152600401610c5890613971565b60405180910390fd5b80915050919050565b6008602052806000526040600020600091509050806000015490806001018054610c93906136c7565b80601f0160208091040260200160405190810160405280929190818152602001828054610cbf906136c7565b8015610d0c5780601f10610ce157610100808354040283529160200191610d0c565b820191906000526020600020905b815481529060010190602001808311610cef57829003601f168201915b505050505090806004018054610d21906136c7565b80601f0160208091040260200160405190810160405280929190818152602001828054610d4d906136c7565b8015610d9a5780601f10610d6f57610100808354040283529160200191610d9a565b820191906000526020600020905b815481529060010190602001808311610d7d57829003601f168201915b5050505050908060050160009054906101000a900460ff16908060050160019054906101000a900460ff16908060050160029054906101000a900460ff16908060050160039054906101000a900460ff16908060050160049054906101000a900460ff16908060050160059054906101000a900460ff16905089565b60008073ffffffffffffffffffffffffffffffffffffffff168273ffffffffffffffffffffffffffffffffffffffff1603610e86576040517f08c379a0000000000000000000000000000000000000000000000000000000008152600401610e7d90613a03565b60405180910390fd5b600360008373ffffffffffffffffffffffffffffffffffffffff1673ffffffffffffffffffffffffffffffffffffffff168152602001908152602001600020549050919050565b610ed5611da7565b610edf6000611e25565b565b60096020528160005260406000208181548110610efd57600080fd5b90600052602060002001600091509150505481565b6000600d6000815480929190610f279061384b565b9190505550814233600d54604051602001610f4493929190613a8c565b6040516020818303038152906040528051906020012060001c610f679190613af8565b9050919050565b80600a60006101000a81548173ffffffffffffffffffffffffffffffffffffffff021916908373ffffffffffffffffffffffffffffffffffffffff16021790555050565b6000600660009054906101000a900473ffffffffffffffffffffffffffffffffffffffff16905090565b606060018054610feb906136c7565b80601f0160208091040260200160405190810160405280929190818152602001828054611017906136c7565b80156110645780601f1061103957610100808354040283529160200191611064565b820191906000526020600020905b81548152906001019060200180831161104757829003601f168201915b5050505050905090565b6110806110796119c7565b8383611eeb565b5050565b61108e8383612057565b80600860008481526020019081526020016000206000820151816000015560208201518160010190816110c19190613cd5565b506040820151816002019060026110d99291906128cd565b5060608201518160040190816110ef9190613cd5565b5060808201518160050160006101000a81548160ff021916908360ff16021790555060a08201518160050160016101000a81548160ff021916908360ff16021790555060c08201518160050160026101000a81548160ff021916908360ff16021790555060e08201518160050160036101000a81548160ff021916908360ff1602179055506101008201518160050160046101000a81548160ff021916908360ff1602179055506101208201518160050160056101000a81548160ff021916908360ff160217905550905050505050565b6111d16111cb6119c7565b83611aac565b611210576040517f08c379a000000000000000000000000000000000000000000000000000000000815260040161120790613905565b60405180910390fd5b61121c84848484612075565b50505050565b6060600960003373ffffffffffffffffffffffffffffffffffffffff1673ffffffffffffffffffffffffffffffffffffffff1681526020019081526020016000208054806020026020016040519081016040528092919081815260200182805480156112ad57602002820191906000526020600020905b815481526020019060010190808311611299575b5050505050905090565b6060600061148560086000858152602001908152602001600020600101600860008681526020019081526020016000206004016008600087815260200190815260200160002060020160006002811061131357611312613da7565b5b016008600088815260200190815260200160002060020160016002811061133d5761133c613da7565b5b0161136d600860008a815260200190815260200160002060050160009054906101000a900460ff1660ff166120d1565b61139c600860008b815260200190815260200160002060050160019054906101000a900460ff1660ff166120d1565b6113cb600860008c815260200190815260200160002060050160029054906101000a900460ff1660ff166120d1565b6113fa600860008d815260200190815260200160002060050160039054906101000a900460ff1660ff166120d1565b611429600860008e815260200190815260200160002060050160049054906101000a900460ff1660ff166120d1565b611458600860008f815260200190815260200160002060050160059054906101000a900460ff1660ff166120d1565b6040516020016114719a999897969594939291906143c7565b604051602081830303815290604052612231565b905080604051602001611498919061452f565b604051602081830303815290604052915050919050565b6000600560008473ffffffffffffffffffffffffffffffffffffffff1673ffffffffffffffffffffffffffffffffffffffff16815260200190815260200160002060008373ffffffffffffffffffffffffffffffffffffffff1673ffffffffffffffffffffffffffffffffffffffff16815260200190815260200160002060009054906101000a900460ff16905092915050565b61154b612862565b600b60000160008381526020019081526020016000206040518061014001604052908160008201548152602001600182018054611587906136c7565b80601f01602080910402602001604051908101604052809291908181526020018280546115b3906136c7565b80156116005780601f106115d557610100808354040283529160200191611600565b820191906000526020600020905b8154815290600101906020018083116115e357829003601f168201915b5050505050815260200160028201600280602002604051908101604052809291906000905b828210156116c857838201805461163b906136c7565b80601f0160208091040260200160405190810160405280929190818152602001828054611667906136c7565b80156116b45780601f10611689576101008083540402835291602001916116b4565b820191906000526020600020905b81548152906001019060200180831161169757829003601f168201915b505050505081526020019060010190611625565b5050505081526020016004820180546116e0906136c7565b80601f016020809104026020016040519081016040528092919081815260200182805461170c906136c7565b80156117595780601f1061172e57610100808354040283529160200191611759565b820191906000526020600020905b81548152906001019060200180831161173c57829003601f168201915b505050505081526020016005820160009054906101000a900460ff1660ff1660ff1681526020016005820160019054906101000a900460ff1660ff1660ff1681526020016005820160029054906101000a900460ff1660ff1660ff1681526020016005820160039054906101000a900460ff1660ff1660ff1681526020016005820160049054906101000a900460ff1660ff1660ff1681526020016005820160059054906101000a900460ff1660ff1660ff16815250509050919050565b61181f611da7565b600073ffffffffffffffffffffffffffffffffffffffff168173ffffffffffffffffffffffffffffffffffffffff160361188e576040517f08c379a0000000000000000000000000000000000000000000000000000000008152600401611885906145b8565b60405180910390fd5b61189781611e25565b50565b60007f80ac58cd000000000000000000000000000000000000000000000000000000007bffffffffffffffffffffffffffffffffffffffffffffffffffffffff1916827bffffffffffffffffffffffffffffffffffffffffffffffffffffffff1916148061196557507f5b5e139f000000000000000000000000000000000000000000000000000000007bffffffffffffffffffffffffffffffffffffffffffffffffffffffff1916827bffffffffffffffffffffffffffffffffffffffffffffffffffffffff1916145b80611975575061197482612394565b5b9050919050565b611985816123fe565b6119c4576040517f08c379a00000000000000000000000000000000000000000000000000000000081526004016119bb90613971565b60405180910390fd5b50565b600033905090565b816004600083815260200190815260200160002060006101000a81548173ffffffffffffffffffffffffffffffffffffffff021916908373ffffffffffffffffffffffffffffffffffffffff160217905550808273ffffffffffffffffffffffffffffffffffffffff16611a4283610bb9565b73ffffffffffffffffffffffffffffffffffffffff167f8c5be1e5ebec7d5bd14f71427d1e84f3dd0314c0f7b2291e5b200ac8c7c3b92560405160405180910390a45050565b6001816000016000828254019250508190555050565b600081600001549050919050565b600080611ab883610bb9565b90508073ffffffffffffffffffffffffffffffffffffffff168473ffffffffffffffffffffffffffffffffffffffff161480611afa5750611af981856114af565b5b80611b3857508373ffffffffffffffffffffffffffffffffffffffff16611b20846105eb565b73ffffffffffffffffffffffffffffffffffffffff16145b91505092915050565b8273ffffffffffffffffffffffffffffffffffffffff16611b6182610bb9565b73ffffffffffffffffffffffffffffffffffffffff1614611bb7576040517f08c379a0000000000000000000000000000000000000000000000000000000008152600401611bae9061464a565b60405180910390fd5b600073ffffffffffffffffffffffffffffffffffffffff168273ffffffffffffffffffffffffffffffffffffffff1603611c26576040517f08c379a0000000000000000000000000000000000000000000000000000000008152600401611c1d906146dc565b60405180910390fd5b611c3183838361246a565b611c3c6000826119cf565b6001600360008573ffffffffffffffffffffffffffffffffffffffff1673ffffffffffffffffffffffffffffffffffffffff1681526020019081526020016000206000828254611c8c91906146fc565b925050819055506001600360008473ffffffffffffffffffffffffffffffffffffffff1673ffffffffffffffffffffffffffffffffffffffff1681526020019081526020016000206000828254611ce39190614730565b92505081905550816002600083815260200190815260200160002060006101000a81548173ffffffffffffffffffffffffffffffffffffffff021916908373ffffffffffffffffffffffffffffffffffffffff160217905550808273ffffffffffffffffffffffffffffffffffffffff168473ffffffffffffffffffffffffffffffffffffffff167fddf252ad1be2c89b69c2b068fc378daa952ba7f163c4a11628f55a4df523b3ef60405160405180910390a4611da283838361247a565b505050565b611daf6119c7565b73ffffffffffffffffffffffffffffffffffffffff16611dcd610fb2565b73ffffffffffffffffffffffffffffffffffffffff1614611e23576040517f08c379a0000000000000000000000000000000000000000000000000000000008152600401611e1a906147d2565b60405180910390fd5b565b6000600660009054906101000a900473ffffffffffffffffffffffffffffffffffffffff16905081600660006101000a81548173ffffffffffffffffffffffffffffffffffffffff021916908373ffffffffffffffffffffffffffffffffffffffff1602179055508173ffffffffffffffffffffffffffffffffffffffff168173ffffffffffffffffffffffffffffffffffffffff167f8be0079c531659141344cd1fd0a4f28419497f9722a3daafe3b4186f6b6457e060405160405180910390a35050565b8173ffffffffffffffffffffffffffffffffffffffff168373ffffffffffffffffffffffffffffffffffffffff1603611f59576040517f08c379a0000000000000000000000000000000000000000000000000000000008152600401611f509061483e565b60405180910390fd5b80600560008573ffffffffffffffffffffffffffffffffffffffff1673ffffffffffffffffffffffffffffffffffffffff16815260200190815260200160002060008473ffffffffffffffffffffffffffffffffffffffff1673ffffffffffffffffffffffffffffffffffffffff16815260200190815260200160002060006101000a81548160ff0219169083151502179055508173ffffffffffffffffffffffffffffffffffffffff168373ffffffffffffffffffffffffffffffffffffffff167f17307eab39ab6107e8899845ad3d59bd9653f200f220920489ca2b5937696c318360405161204a9190612a75565b60405180910390a3505050565b61207182826040518060200160405280600081525061247f565b5050565b612080848484611b41565b61208c848484846124da565b6120cb576040517f08c379a00000000000000000000000000000000000000000000000000000000081526004016120c2906148d0565b60405180910390fd5b50505050565b606060008203612118576040518060400160405280600181526020017f3000000000000000000000000000000000000000000000000000000000000000815250905061222c565b600082905060005b6000821461214a5780806121339061384b565b915050600a8261214391906148f0565b9150612120565b60008167ffffffffffffffff81111561216657612165613070565b5b6040519080825280601f01601f1916602001820160405280156121985781602001600182028036833780820191505090505b5090505b60008514612225576001826121b191906146fc565b9150600a856121c09190613af8565b60306121cc9190614730565b60f81b8183815181106121e2576121e1613da7565b5b60200101907effffffffffffffffffffffffffffffffffffffffffffffffffffffffffffff1916908160001a905350600a8561221e91906148f0565b945061219c565b8093505050505b919050565b606060008251036122535760405180602001604052806000815250905061238f565b6000604051806060016040528060408152602001614b3760409139905060006003600285516122829190614730565b61228c91906148f0565b60046122989190614921565b67ffffffffffffffff8111156122b1576122b0613070565b5b6040519080825280601f01601f1916602001820160405280156122e35781602001600182028036833780820191505090505b509050600182016020820185865187015b8082101561234f576003820191508151603f8160121c168501518453600184019350603f81600c1c168501518453600184019350603f8160061c168501518453600184019350603f81168501518453600184019350506122f4565b505060038651066001811461236b576002811461237e57612386565b603d6001830353603d6002830353612386565b603d60018303535b50505080925050505b919050565b60007f01ffc9a7000000000000000000000000000000000000000000000000000000007bffffffffffffffffffffffffffffffffffffffffffffffffffffffff1916827bffffffffffffffffffffffffffffffffffffffffffffffffffffffff1916149050919050565b60008073ffffffffffffffffffffffffffffffffffffffff166002600084815260200190815260200160002060009054906101000a900473ffffffffffffffffffffffffffffffffffffffff1673ffffffffffffffffffffffffffffffffffffffff1614159050919050565b612475838383612661565b505050565b505050565b6124898383612666565b61249660008484846124da565b6124d5576040517f08c379a00000000000000000000000000000000000000000000000000000000081526004016124cc906148d0565b60405180910390fd5b505050565b60006124fb8473ffffffffffffffffffffffffffffffffffffffff1661283f565b15612654578373ffffffffffffffffffffffffffffffffffffffff1663150b7a026125246119c7565b8786866040518563ffffffff1660e01b815260040161254694939291906149d0565b6020604051808303816000875af192505050801561258257506040513d601f19601f8201168201806040525081019061257f9190614a31565b60015b612604573d80600081146125b2576040519150601f19603f3d011682016040523d82523d6000602084013e6125b7565b606091505b5060008151036125fc576040517f08c379a00000000000000000000000000000000000000000000000000000000081526004016125f3906148d0565b60405180910390fd5b805181602001fd5b63150b7a0260e01b7bffffffffffffffffffffffffffffffffffffffffffffffffffffffff1916817bffffffffffffffffffffffffffffffffffffffffffffffffffffffff191614915050612659565b600190505b949350505050565b505050565b600073ffffffffffffffffffffffffffffffffffffffff168273ffffffffffffffffffffffffffffffffffffffff16036126d5576040517f08c379a00000000000000000000000000000000000000000000000000000000081526004016126cc90614aaa565b60405180910390fd5b6126de816123fe565b1561271e576040517f08c379a000000000000000000000000000000000000000000000000000000000815260040161271590614b16565b60405180910390fd5b61272a6000838361246a565b6001600360008473ffffffffffffffffffffffffffffffffffffffff1673ffffffffffffffffffffffffffffffffffffffff168152602001908152602001600020600082825461277a9190614730565b92505081905550816002600083815260200190815260200160002060006101000a81548173ffffffffffffffffffffffffffffffffffffffff021916908373ffffffffffffffffffffffffffffffffffffffff160217905550808273ffffffffffffffffffffffffffffffffffffffff16600073ffffffffffffffffffffffffffffffffffffffff167fddf252ad1be2c89b69c2b068fc378daa952ba7f163c4a11628f55a4df523b3ef60405160405180910390a461283b6000838361247a565b5050565b6000808273ffffffffffffffffffffffffffffffffffffffff163b119050919050565b6040518061014001604052806000815260200160608152602001612884612919565b815260200160608152602001600060ff168152602001600060ff168152602001600060ff168152602001600060ff168152602001600060ff168152602001600060ff1681525090565b8260028101928215612908579160200282015b828111156129075782518290816128f79190613cd5565b50916020019190600101906128e0565b5b5090506129159190612940565b5090565b60405180604001604052806002905b60608152602001906001900390816129285790505090565b5b8082111561296057600081816129579190612964565b50600101612941565b5090565b508054612970906136c7565b6000825580601f1061298257506129a1565b601f0160209004906000526020600020908101906129a091906129a4565b5b50565b5b808211156129bd5760008160009055506001016129a5565b5090565b6000604051905090565b600080fd5b600080fd5b60007fffffffff0000000000000000000000000000000000000000000000000000000082169050919050565b612a0a816129d5565b8114612a1557600080fd5b50565b600081359050612a2781612a01565b92915050565b600060208284031215612a4357612a426129cb565b5b6000612a5184828501612a18565b91505092915050565b60008115159050919050565b612a6f81612a5a565b82525050565b6000602082019050612a8a6000830184612a66565b92915050565b600081519050919050565b600082825260208201905092915050565b60005b83811015612aca578082015181840152602081019050612aaf565b83811115612ad9576000848401525b50505050565b6000601f19601f8301169050919050565b6000612afb82612a90565b612b058185612a9b565b9350612b15818560208601612aac565b612b1e81612adf565b840191505092915050565b60006020820190508181036000830152612b438184612af0565b905092915050565b6000819050919050565b612b5e81612b4b565b8114612b6957600080fd5b50565b600081359050612b7b81612b55565b92915050565b600060208284031215612b9757612b966129cb565b5b6000612ba584828501612b6c565b91505092915050565b600073ffffffffffffffffffffffffffffffffffffffff82169050919050565b6000612bd982612bae565b9050919050565b612be981612bce565b82525050565b6000602082019050612c046000830184612be0565b92915050565b612c1381612bce565b8114612c1e57600080fd5b50565b600081359050612c3081612c0a565b92915050565b60008060408385031215612c4d57612c4c6129cb565b5b6000612c5b85828601612c21565b9250506020612c6c85828601612b6c565b9150509250929050565b600080600060608486031215612c8f57612c8e6129cb565b5b6000612c9d86828701612c21565b9350506020612cae86828701612c21565b9250506040612cbf86828701612b6c565b9150509250925092565b612cd281612b4b565b82525050565b6000602082019050612ced6000830184612cc9565b92915050565b612cfc81612b4b565b82525050565b600082825260208201905092915050565b6000612d1e82612a90565b612d288185612d02565b9350612d38818560208601612aac565b612d4181612adf565b840191505092915050565b600060029050919050565b600081905092915050565b6000819050919050565b6000612d788383612d13565b905092915050565b6000602082019050919050565b6000612d9882612d4c565b612da28185612d57565b935083602082028501612db485612d62565b8060005b85811015612df05784840389528151612dd18582612d6c565b9450612ddc83612d80565b925060208a01995050600181019050612db8565b50829750879550505050505092915050565b600060ff82169050919050565b612e1881612e02565b82525050565b600061014083016000830151612e376000860182612cf3565b5060208301518482036020860152612e4f8282612d13565b91505060408301518482036040860152612e698282612d8d565b91505060608301518482036060860152612e838282612d13565b9150506080830151612e986080860182612e0f565b5060a0830151612eab60a0860182612e0f565b5060c0830151612ebe60c0860182612e0f565b5060e0830151612ed160e0860182612e0f565b50610100830151612ee6610100860182612e0f565b50610120830151612efb610120860182612e0f565b508091505092915050565b60006020820190508181036000830152612f208184612e1e565b905092915050565b612f3181612e02565b82525050565b600061012082019050612f4d600083018c612cc9565b8181036020830152612f5f818b612af0565b90508181036040830152612f73818a612af0565b9050612f826060830189612f28565b612f8f6080830188612f28565b612f9c60a0830187612f28565b612fa960c0830186612f28565b612fb660e0830185612f28565b612fc4610100830184612f28565b9a9950505050505050505050565b600060208284031215612fe857612fe76129cb565b5b6000612ff684828501612c21565b91505092915050565b61300881612a5a565b811461301357600080fd5b50565b60008135905061302581612fff565b92915050565b60008060408385031215613042576130416129cb565b5b600061305085828601612c21565b925050602061306185828601613016565b9150509250929050565b600080fd5b7f4e487b7100000000000000000000000000000000000000000000000000000000600052604160045260246000fd5b6130a882612adf565b810181811067ffffffffffffffff821117156130c7576130c6613070565b5b80604052505050565b60006130da6129c1565b90506130e6828261309f565b919050565b600080fd5b600080fd5b600080fd5b600067ffffffffffffffff82111561311557613114613070565b5b61311e82612adf565b9050602081019050919050565b82818337600083830152505050565b600061314d613148846130fa565b6130d0565b905082815260208101848484011115613169576131686130f5565b5b61317484828561312b565b509392505050565b600082601f830112613191576131906130f0565b5b81356131a184826020860161313a565b91505092915050565b600067ffffffffffffffff8211156131c5576131c4613070565b5b602082029050919050565b600080fd5b60006131e86131e3846131aa565b6130d0565b90508060208402830185811115613202576132016131d0565b5b835b8181101561324957803567ffffffffffffffff811115613227576132266130f0565b5b808601613234898261317c565b85526020850194505050602081019050613204565b5050509392505050565b600082601f830112613268576132676130f0565b5b60026132758482856131d5565b91505092915050565b61328781612e02565b811461329257600080fd5b50565b6000813590506132a48161327e565b92915050565b600061014082840312156132c1576132c061306b565b5b6132cc6101406130d0565b905060006132dc84828501612b6c565b600083015250602082013567ffffffffffffffff811115613300576132ff6130eb565b5b61330c8482850161317c565b602083015250604082013567ffffffffffffffff8111156133305761332f6130eb565b5b61333c84828501613253565b604083015250606082013567ffffffffffffffff8111156133605761335f6130eb565b5b61336c8482850161317c565b606083015250608061338084828501613295565b60808301525060a061339484828501613295565b60a08301525060c06133a884828501613295565b60c08301525060e06133bc84828501613295565b60e0830152506101006133d184828501613295565b610100830152506101206133e784828501613295565b6101208301525092915050565b60008060006060848603121561340d5761340c6129cb565b5b600061341b86828701612c21565b935050602061342c86828701612b6c565b925050604084013567ffffffffffffffff81111561344d5761344c6129d0565b5b613459868287016132aa565b9150509250925092565b600067ffffffffffffffff82111561347e5761347d613070565b5b61348782612adf565b9050602081019050919050565b60006134a76134a284613463565b6130d0565b9050828152602081018484840111156134c3576134c26130f5565b5b6134ce84828561312b565b509392505050565b600082601f8301126134eb576134ea6130f0565b5b81356134fb848260208601613494565b91505092915050565b6000806000806080858703121561351e5761351d6129cb565b5b600061352c87828801612c21565b945050602061353d87828801612c21565b935050604061354e87828801612b6c565b925050606085013567ffffffffffffffff81111561356f5761356e6129d0565b5b61357b878288016134d6565b91505092959194509250565b600081519050919050565b600082825260208201905092915050565b6000819050602082019050919050565b60006135bf8383612cf3565b60208301905092915050565b6000602082019050919050565b60006135e382613587565b6135ed8185613592565b93506135f8836135a3565b8060005b8381101561362957815161361088826135b3565b975061361b836135cb565b9250506001810190506135fc565b5085935050505092915050565b6000602082019050818103600083015261365081846135d8565b905092915050565b6000806040838503121561366f5761366e6129cb565b5b600061367d85828601612c21565b925050602061368e85828601612c21565b9150509250929050565b7f4e487b7100000000000000000000000000000000000000000000000000000000600052602260045260246000fd5b600060028204905060018216806136df57607f821691505b6020821081036136f2576136f1613698565b5b50919050565b7f4552433732313a20617070726f76616c20746f2063757272656e74206f776e6560008201527f7200000000000000000000000000000000000000000000000000000000000000602082015250565b6000613754602183612a9b565b915061375f826136f8565b604082019050919050565b6000602082019050818103600083015261378381613747565b9050919050565b7f4552433732313a20617070726f76652063616c6c6572206973206e6f7420746f60008201527f6b656e206f776e6572206e6f7220617070726f76656420666f7220616c6c0000602082015250565b60006137e6603e83612a9b565b91506137f18261378a565b604082019050919050565b60006020820190508181036000830152613815816137d9565b9050919050565b7f4e487b7100000000000000000000000000000000000000000000000000000000600052601160045260246000fd5b600061385682612b4b565b91507fffffffffffffffffffffffffffffffffffffffffffffffffffffffffffffffff82036138885761388761381c565b5b600182019050919050565b7f4552433732313a2063616c6c6572206973206e6f7420746f6b656e206f776e6560008201527f72206e6f7220617070726f766564000000000000000000000000000000000000602082015250565b60006138ef602e83612a9b565b91506138fa82613893565b604082019050919050565b6000602082019050818103600083015261391e816138e2565b9050919050565b7f4552433732313a20696e76616c696420746f6b656e2049440000000000000000600082015250565b600061395b601883612a9b565b915061396682613925565b602082019050919050565b6000602082019050818103600083015261398a8161394e565b9050919050565b7f4552433732313a2061646472657373207a65726f206973206e6f74206120766160008201527f6c6964206f776e65720000000000000000000000000000000000000000000000602082015250565b60006139ed602983612a9b565b91506139f882613991565b604082019050919050565b60006020820190508181036000830152613a1c816139e0565b9050919050565b6000819050919050565b613a3e613a3982612b4b565b613a23565b82525050565b60008160601b9050919050565b6000613a5c82613a44565b9050919050565b6000613a6e82613a51565b9050919050565b613a86613a8182612bce565b613a63565b82525050565b6000613a988286613a2d565b602082019150613aa88285613a75565b601482019150613ab88284613a2d565b602082019150819050949350505050565b7f4e487b7100000000000000000000000000000000000000000000000000000000600052601260045260246000fd5b6000613b0382612b4b565b9150613b0e83612b4b565b925082613b1e57613b1d613ac9565b5b828206905092915050565b60008190508160005260206000209050919050565b60006020601f8301049050919050565b600082821b905092915050565b600060088302613b8b7fffffffffffffffffffffffffffffffffffffffffffffffffffffffffffffffff82613b4e565b613b958683613b4e565b95508019841693508086168417925050509392505050565b6000819050919050565b6000613bd2613bcd613bc884612b4b565b613bad565b612b4b565b9050919050565b6000819050919050565b613bec83613bb7565b613c00613bf882613bd9565b848454613b5b565b825550505050565b600090565b613c15613c08565b613c20818484613be3565b505050565b5b81811015613c4457613c39600082613c0d565b600181019050613c26565b5050565b601f821115613c8957613c5a81613b29565b613c6384613b3e565b81016020851015613c72578190505b613c86613c7e85613b3e565b830182613c25565b50505b505050565b600082821c905092915050565b6000613cac60001984600802613c8e565b1980831691505092915050565b6000613cc58383613c9b565b9150826002028217905092915050565b613cde82612a90565b67ffffffffffffffff811115613cf757613cf6613070565b5b613d0182546136c7565b613d0c828285613c48565b600060209050601f831160018114613d3f5760008415613d2d578287015190505b613d378582613cb9565b865550613d9f565b601f198416613d4d86613b29565b60005b82811015613d7557848901518255600182019150602085019450602081019050613d50565b86831015613d925784890151613d8e601f891682613c9b565b8355505b6001600288020188555050505b505050505050565b7f4e487b7100000000000000000000000000000000000000000000000000000000600052603260045260246000fd5b600081905092915050565b7f7b226e616d65223a202200000000000000000000000000000000000000000000600082015250565b6000613e17600a83613dd6565b9150613e2282613de1565b600a82019050919050565b60008154613e3a816136c7565b613e448186613dd6565b94506001821660008114613e5f5760018114613e7457613ea7565b60ff1983168652811515820286019350613ea7565b613e7d85613b29565b60005b83811015613e9f57815481890152600182019150602081019050613e80565b838801955050505b50505092915050565b7f222c000000000000000000000000000000000000000000000000000000000000600082015250565b6000613ee6600283613dd6565b9150613ef182613eb0565b600282019050919050565b7f22696d6167655f64617461223a20220000000000000000000000000000000000600082015250565b6000613f32600f83613dd6565b9150613f3d82613efc565b600f82019050919050565b7f2274797065223a205b2200000000000000000000000000000000000000000000600082015250565b6000613f7e600a83613dd6565b9150613f8982613f48565b600a82019050919050565b7f222c220000000000000000000000000000000000000000000000000000000000600082015250565b6000613fca600383613dd6565b9150613fd582613f94565b600382019050919050565b7f225d2c0000000000000000000000000000000000000000000000000000000000600082015250565b6000614016600383613dd6565b915061402182613fe0565b600382019050919050565b7f2261747472696275746573223a205b0000000000000000000000000000000000600082015250565b6000614062600f83613dd6565b915061406d8261402c565b600f82019050919050565b7f7b2274726169745f74797065223a20224850222c202276616c7565223a200000600082015250565b60006140ae601e83613dd6565b91506140b982614078565b601e82019050919050565b60006140cf82612a90565b6140d98185613dd6565b93506140e9818560208601612aac565b80840191505092915050565b7f7d2c000000000000000000000000000000000000000000000000000000000000600082015250565b600061412b600283613dd6565b9150614136826140f5565b600282019050919050565b7f7b2274726169745f74797065223a202241747461636b222c202276616c75652260008201527f3a20000000000000000000000000000000000000000000000000000000000000602082015250565b600061419d602283613dd6565b91506141a882614141565b602282019050919050565b7f7b2274726169745f74797065223a2022446566656e7365222c202276616c756560008201527f223a200000000000000000000000000000000000000000000000000000000000602082015250565b600061420f602383613dd6565b915061421a826141b3565b602382019050919050565b7f7b2274726169745f74797065223a2022537041747461636b222c202276616c7560008201527f65223a2000000000000000000000000000000000000000000000000000000000602082015250565b6000614281602483613dd6565b915061428c82614225565b602482019050919050565b7f7b2274726169745f74797065223a20225370446566656e7365222c202276616c60008201527f7565223a20000000000000000000000000000000000000000000000000000000602082015250565b60006142f3602583613dd6565b91506142fe82614297565b602582019050919050565b7f7b2274726169745f74797065223a20225370656564222c202276616c7565223a60008201527f2000000000000000000000000000000000000000000000000000000000000000602082015250565b6000614365602183613dd6565b915061437082614309565b602182019050919050565b7f7d5d7d0000000000000000000000000000000000000000000000000000000000600082015250565b60006143b1600383613dd6565b91506143bc8261437b565b600382019050919050565b60006143d282613e0a565b91506143de828d613e2d565b91506143e982613ed9565b91506143f482613f25565b9150614400828c613e2d565b915061440b82613ed9565b915061441682613f71565b9150614422828b613e2d565b915061442d82613fbd565b9150614439828a613e2d565b915061444482614009565b915061444f82614055565b915061445a826140a1565b915061446682896140c4565b91506144718261411e565b915061447c82614190565b915061448882886140c4565b91506144938261411e565b915061449e82614202565b91506144aa82876140c4565b91506144b58261411e565b91506144c082614274565b91506144cc82866140c4565b91506144d78261411e565b91506144e2826142e6565b91506144ee82856140c4565b91506144f98261411e565b915061450482614358565b915061451082846140c4565b915061451b826143a4565b91508190509b9a5050505050505050505050565b600061453b82846140c4565b915081905092915050565b7f4f776e61626c653a206e6577206f776e657220697320746865207a65726f206160008201527f6464726573730000000000000000000000000000000000000000000000000000602082015250565b60006145a2602683612a9b565b91506145ad82614546565b604082019050919050565b600060208201905081810360008301526145d181614595565b9050919050565b7f4552433732313a207472616e736665722066726f6d20696e636f72726563742060008201527f6f776e6572000000000000000000000000000000000000000000000000000000602082015250565b6000614634602583612a9b565b915061463f826145d8565b604082019050919050565b6000602082019050818103600083015261466381614627565b9050919050565b7f4552433732313a207472616e7366657220746f20746865207a65726f2061646460008201527f7265737300000000000000000000000000000000000000000000000000000000602082015250565b60006146c6602483612a9b565b91506146d18261466a565b604082019050919050565b600060208201905081810360008301526146f5816146b9565b9050919050565b600061470782612b4b565b915061471283612b4b565b9250828210156147255761472461381c565b5b828203905092915050565b600061473b82612b4b565b915061474683612b4b565b9250827fffffffffffffffffffffffffffffffffffffffffffffffffffffffffffffffff0382111561477b5761477a61381c565b5b828201905092915050565b7f4f776e61626c653a2063616c6c6572206973206e6f7420746865206f776e6572600082015250565b60006147bc602083612a9b565b91506147c782614786565b602082019050919050565b600060208201905081810360008301526147eb816147af565b9050919050565b7f4552433732313a20617070726f766520746f2063616c6c657200000000000000600082015250565b6000614828601983612a9b565b9150614833826147f2565b602082019050919050565b600060208201905081810360008301526148578161481b565b9050919050565b7f4552433732313a207472616e7366657220746f206e6f6e20455243373231526560008201527f63656976657220696d706c656d656e7465720000000000000000000000000000602082015250565b60006148ba603283612a9b565b91506148c58261485e565b604082019050919050565b600060208201905081810360008301526148e9816148ad565b9050919050565b60006148fb82612b4b565b915061490683612b4b565b92508261491657614915613ac9565b5b828204905092915050565b600061492c82612b4b565b915061493783612b4b565b9250817fffffffffffffffffffffffffffffffffffffffffffffffffffffffffffffffff04831182151516156149705761496f61381c565b5b828202905092915050565b600081519050919050565b600082825260208201905092915050565b60006149a28261497b565b6149ac8185614986565b93506149bc818560208601612aac565b6149c581612adf565b840191505092915050565b60006080820190506149e56000830187612be0565b6149f26020830186612be0565b6149ff6040830185612cc9565b8181036060830152614a118184614997565b905095945050505050565b600081519050614a2b81612a01565b92915050565b600060208284031215614a4757614a466129cb565b5b6000614a5584828501614a1c565b91505092915050565b7f4552433732313a206d696e7420746f20746865207a65726f2061646472657373600082015250565b6000614a94602083612a9b565b9150614a9f82614a5e565b602082019050919050565b60006020820190508181036000830152614ac381614a87565b9050919050565b7f4552433732313a20746f6b656e20616c7265616479206d696e74656400000000600082015250565b6000614b00601c83612a9b565b9150614b0b82614aca565b602082019050919050565b60006020820190508181036000830152614b2f81614af3565b905091905056fe4142434445464748494a4b4c4d4e4f505152535455565758595a6162636465666768696a6b6c6d6e6f707172737475767778797a303132333435363738392b2fa264697066735822122035641e6f66b2e6da4008471db5452d100385f122fcc8fa8d2ed41a8535fda1fe64736f6c634300080f003368747470733a2f2f73746f726167652e676f6f676c65617069732e636f6d2f7a6574612d39353031362e61707073706f742e636f6d2f3439332e706e6768747470733a2f2f73746f726167652e676f6f676c65617069732e636f6d2f7a6574612d39353031362e61707073706f742e636f6d2f3031392e706e6768747470733a2f2f73746f726167652e676f6f676c65617069732e636f6d2f7a6574612d39353031362e61707073706f742e636f6d2f3733312e706e6768747470733a2f2f73746f726167652e676f6f676c65617069732e636f6d2f7a6574612d39353031362e61707073706f742e636f6d2f3632382e706e6768747470733a2f2f73746f726167652e676f6f676c65617069732e636f6d2f7a6574612d39353031362e61707073706f742e636f6d2f3432382e706e6768747470733a2f2f73746f726167652e676f6f676c65617069732e636f6d2f7a6574612d39353031362e61707073706f742e636f6d2f3031372e706e6768747470733a2f2f73746f726167652e676f6f676c65617069732e636f6d2f7a6574612d39353031362e61707073706f742e636f6d2f3531392e706e6768747470733a2f2f73746f726167652e676f6f676c65617069732e636f6d2f7a6574612d39353031362e61707073706f742e636f6d2f3038352e706e6768747470733a2f2f73746f726167652e676f6f676c65617069732e636f6d2f7a6574612d39353031362e61707073706f742e636f6d2f3737322e706e6768747470733a2f2f73746f726167652e676f6f676c65617069732e636f6d2f7a6574612d39353031362e61707073706f742e636f6d2f3737352e706e6768747470733a2f2f73746f726167652e676f6f676c65617069732e636f6d2f7a6574612d39353031362e61707073706f742e636f6d2f3237362e706e6768747470733a2f2f73746f726167652e676f6f676c65617069732e636f6d2f7a6574612d39353031362e61707073706f742e636f6d2f3636372e706e6768747470733a2f2f73746f726167652e676f6f676c65617069732e636f6d2f7a6574612d39353031362e61707073706f742e636f6d2f3434362e706e6768747470733a2f2f73746f726167652e676f6f676c65617069732e636f6d2f7a6574612d39353031362e61707073706f742e636f6d2f3130382e706e6768747470733a2f2f73746f726167652e676f6f676c65617069732e636f6d2f7a6574612d39353031362e61707073706f742e636f6d2f3231372e706e6768747470733a2f2f73746f726167652e676f6f676c65617069732e636f6d2f7a6574612d39353031362e61707073706f742e636f6d2f3137342e706e6768747470733a2f2f73746f726167652e676f6f676c65617069732e636f6d2f7a6574612d39353031362e61707073706f742e636f6d2f3432342e706e6768747470733a2f2f73746f726167652e676f6f676c65617069732e636f6d2f7a6574612d39353031362e61707073706f742e636f6d2f3237372e706e6768747470733a2f2f73746f726167652e676f6f676c65617069732e636f6d2f7a6574612d39353031362e61707073706f742e636f6d2f3636302e706e6768747470733a2f2f73746f726167652e676f6f676c65617069732e636f6d2f7a6574612d39353031362e61707073706f742e636f6d2f3133322e706e6768747470733a2f2f73746f726167652e676f6f676c65617069732e636f6d2f7a6574612d39353031362e61707073706f742e636f6d2f3330312e706e6768747470733a2f2f73746f726167652e676f6f676c65617069732e636f6d2f7a6574612d39353031362e61707073706f742e636f6d2f3432372e706e6768747470733a2f2f73746f726167652e676f6f676c65617069732e636f6d2f7a6574612d39353031362e61707073706f742e636f6d2f3736352e706e6768747470733a2f2f73746f726167652e676f6f676c65617069732e636f6d2f7a6574612d39353031362e61707073706f742e636f6d2f3339392e706e6768747470733a2f2f73746f726167652e676f6f676c65617069732e636f6d2f7a6574612d39353031362e61707073706f742e636f6d2f3236342e706e6768747470733a2f2f73746f726167652e676f6f676c65617069732e636f6d2f7a6574612d39353031362e61707073706f742e636f6d2f3134332e706e6768747470733a2f2f73746f726167652e676f6f676c65617069732e636f6d2f7a6574612d39353031362e61707073706f742e636f6d2f3434312e706e6768747470733a2f2f73746f726167652e676f6f676c65617069732e636f6d2f7a6574612d39353031362e61707073706f742e636f6d2f3438362e706e6768747470733a2f2f73746f726167652e676f6f676c65617069732e636f6d2f7a6574612d39353031362e61707073706f742e636f6d2f3239342e706e6768747470733a2f2f73746f726167652e676f6f676c65617069732e636f6d2f7a6574612d39353031362e61707073706f742e636f6d2f3132382e706e6768747470733a2f2f73746f726167652e676f6f676c65617069732e636f6d2f7a6574612d39353031362e61707073706f742e636f6d2f3637362e706e6768747470733a2f2f73746f726167652e676f6f676c65617069732e636f6d2f7a6574612d39353031362e61707073706f742e636f6d2f3735392e706e6768747470733a2f2f73746f726167652e676f6f676c65617069732e636f6d2f7a6574612d39353031362e61707073706f742e636f6d2f3032302e706e6768747470733a2f2f73746f726167652e676f6f676c65617069732e636f6d2f7a6574612d39353031362e61707073706f742e636f6d2f3234312e706e6768747470733a2f2f73746f726167652e676f6f676c65617069732e636f6d2f7a6574612d39353031362e61707073706f742e636f6d2f3131332e706e6768747470733a2f2f73746f726167652e676f6f676c65617069732e636f6d2f7a6574612d39353031362e61707073706f742e636f6d2f3538362e706e6768747470733a2f2f73746f726167652e676f6f676c65617069732e636f6d2f7a6574612d39353031362e61707073706f742e636f6d2f3737332e706e6768747470733a2f2f73746f726167652e676f6f676c65617069732e636f6d2f7a6574612d39353031362e61707073706f742e636f6d2f3532312e706e6768747470733a2f2f73746f726167652e676f6f676c65617069732e636f6d2f7a6574612d39353031362e61707073706f742e636f6d2f3233352e706e6768747470733a2f2f73746f726167652e676f6f676c65617069732e636f6d2f7a6574612d39353031362e61707073706f742e636f6d2f3437342e706e6768747470733a2f2f73746f726167652e676f6f676c65617069732e636f6d2f7a6574612d39353031362e61707073706f742e636f6d2f3636382e706e6768747470733a2f2f73746f726167652e676f6f676c65617069732e636f6d2f7a6574612d39353031362e61707073706f742e636f6d2f3033392e706e6768747470733a2f2f73746f726167652e676f6f676c65617069732e636f6d2f7a6574612d39353031362e61707073706f742e636f6d2f3335322e706e6768747470733a2f2f73746f726167652e676f6f676c65617069732e636f6d2f7a6574612d39353031362e61707073706f742e636f6d2f3139302e706e6768747470733a2f2f73746f726167652e676f6f676c65617069732e636f6d2f7a6574612d39353031362e61707073706f742e636f6d2f3032322e706e6768747470733a2f2f73746f726167652e676f6f676c65617069732e636f6d2f7a6574612d39353031362e61707073706f742e636f6d2f3339372e706e6768747470733a2f2f73746f726167652e676f6f676c65617069732e636f6d2f7a6574612d39353031362e61707073706f742e636f6d2f3339382e706e6768747470733a2f2f73746f726167652e676f6f676c65617069732e636f6d2f7a6574612d39353031362e61707073706f742e636f6d2f3332372e706e6768747470733a2f2f73746f726167652e676f6f676c65617069732e636f6d2f7a6574612d39353031362e61707073706f742e636f6d2f3133332e706e6768747470733a2f2f73746f726167652e676f6f676c65617069732e636f6d2f7a6574612d39353031362e61707073706f742e636f6d2f3333332e706e6768747470733a2f2f73746f726167652e676f6f676c65617069732e636f6d2f7a6574612d39353031362e61707073706f742e636f6d2f3234322e706e6768747470733a2f2f73746f726167652e676f6f676c65617069732e636f6d2f7a6574612d39353031362e61707073706f742e636f6d2f3038332e706e6768747470733a2f2f73746f726167652e676f6f676c65617069732e636f6d2f7a6574612d39353031362e61707073706f742e636f6d2f3239382e706e6768747470733a2f2f73746f726167652e676f6f676c65617069732e636f6d2f7a6574612d39353031362e61707073706f742e636f6d2f3136322e706e6768747470733a2f2f73746f726167652e676f6f676c65617069732e636f6d2f7a6574612d39353031362e61707073706f742e636f6d2f3038342e706e6768747470733a2f2f73746f726167652e676f6f676c65617069732e636f6d2f7a6574612d39353031362e61707073706f742e636f6d2f3230332e706e6768747470733a2f2f73746f726167652e676f6f676c65617069732e636f6d2f7a6574612d39353031362e61707073706f742e636f6d2f3733342e706e6768747470733a2f2f73746f726167652e676f6f676c65617069732e636f6d2f7a6574612d39353031362e61707073706f742e636f6d2f3031362e706e6768747470733a2f2f73746f726167652e676f6f676c65617069732e636f6d2f7a6574612d39353031362e61707073706f742e636f6d2f3339362e706e6768747470733a2f2f73746f726167652e676f6f676c65617069732e636f6d2f7a6574612d39353031362e61707073706f742e636f6d2f3238382e706e6768747470733a2f2f73746f726167652e676f6f676c65617069732e636f6d2f7a6574612d39353031362e61707073706f742e636f6d2f3537332e706e6768747470733a2f2f73746f726167652e676f6f676c65617069732e636f6d2f7a6574612d39353031362e61707073706f742e636f6d2f3335312e706e6768747470733a2f2f73746f726167652e676f6f676c65617069732e636f6d2f7a6574612d39353031362e61707073706f742e636f6d2f3231362e706e6768747470733a2f2f73746f726167652e676f6f676c65617069732e636f6d2f7a6574612d39353031362e61707073706f742e636f6d2f3530382e706e6768747470733a2f2f73746f726167652e676f6f676c65617069732e636f6d2f7a6574612d39353031362e61707073706f742e636f6d2f3537322e706e6768747470733a2f2f73746f726167652e676f6f676c65617069732e636f6d2f7a6574612d39353031362e61707073706f742e636f6d2f3430302e706e6768747470733a2f2f73746f726167652e676f6f676c65617069732e636f6d2f7a6574612d39353031362e61707073706f742e636f6d2f3131352e706e6768747470733a2f2f73746f726167652e676f6f676c65617069732e636f6d2f7a6574612d39353031362e61707073706f742e636f6d2f3433322e706e6768747470733a2f2f73746f726167652e676f6f676c65617069732e636f6d2f7a6574612d39353031362e61707073706f742e636f6d2f3530372e706e6768747470733a2f2f73746f726167652e676f6f676c65617069732e636f6d2f7a6574612d39353031362e61707073706f742e636f6d2f3433312e706e6768747470733a2f2f73746f726167652e676f6f676c65617069732e636f6d2f7a6574612d39353031362e61707073706f742e636f6d2f3530342e706e6768747470733a2f2f73746f726167652e676f6f676c65617069732e636f6d2f7a6574612d39353031362e61707073706f742e636f6d2f3632362e706e6768747470733a2f2f73746f726167652e676f6f676c65617069732e636f6d2f7a6574612d39353031362e61707073706f742e636f6d2f3733332e706e6768747470733a2f2f73746f726167652e676f6f676c65617069732e636f6d2f7a6574612d39353031362e61707073706f742e636f6d2f3233342e706e6768747470733a2f2f73746f726167652e676f6f676c65617069732e636f6d2f7a6574612d39353031362e61707073706f742e636f6d2f3239332e706e6768747470733a2f2f73746f726167652e676f6f676c65617069732e636f6d2f7a6574612d39353031362e61707073706f742e636f6d2f3530362e706e6768747470733a2f2f73746f726167652e676f6f676c65617069732e636f6d2f7a6574612d39353031362e61707073706f742e636f6d2f3639342e706e6768747470733a2f2f73746f726167652e676f6f676c65617069732e636f6d2f7a6574612d39353031362e61707073706f742e636f6d2f3736302e706e6768747470733a2f2f73746f726167652e676f6f676c65617069732e636f6d2f7a6574612d39353031362e61707073706f742e636f6d2f3032312e706e6768747470733a2f2f73746f726167652e676f6f676c65617069732e636f6d2f7a6574612d39353031362e61707073706f742e636f6d2f3136312e706e6768747470733a2f2f73746f726167652e676f6f676c65617069732e636f6d2f7a6574612d39353031362e61707073706f742e636f6d2f3634382e706e6768747470733a2f2f73746f726167652e676f6f676c65617069732e636f6d2f7a6574612d39353031362e61707073706f742e636f6d2f3532302e706e6768747470733a2f2f73746f726167652e676f6f676c65617069732e636f6d2f7a6574612d39353031362e61707073706f742e636f6d2f3639352e706e6768747470733a2f2f73746f726167652e676f6f676c65617069732e636f6d2f7a6574612d39353031362e61707073706f742e636f6d2f3632372e706e6768747470733a2f2f73746f726167652e676f6f676c65617069732e636f6d2f7a6574612d39353031362e61707073706f742e636f6d2f3738302e706e6768747470733a2f2f73746f726167652e676f6f676c65617069732e636f6d2f7a6574612d39353031362e61707073706f742e636f6d2f3436332e706e6768747470733a2f2f73746f726167652e676f6f676c65617069732e636f6d2f7a6574612d39353031362e61707073706f742e636f6d2f3035322e706e6768747470733a2f2f73746f726167652e676f6f676c65617069732e636f6d2f7a6574612d39353031362e61707073706f742e636f6d2f3538352e706e6768747470733a2f2f73746f726167652e676f6f676c65617069732e636f6d2f7a6574612d39353031362e61707073706f742e636f6d2f3636312e706e6768747470733a2f2f73746f726167652e676f6f676c65617069732e636f6d2f7a6574612d39353031362e61707073706f742e636f6d2f3031382e706e6768747470733a2f2f73746f726167652e676f6f676c65617069732e636f6d2f7a6574612d39353031362e61707073706f742e636f6d2f3233332e706e6768747470733a2f2f73746f726167652e676f6f676c65617069732e636f6d2f7a6574612d39353031362e61707073706f742e636f6d2f3635392e706e6768747470733a2f2f73746f726167652e676f6f676c65617069732e636f6d2f7a6574612d39353031362e61707073706f742e636f6d2f3035332e706e6768747470733a2f2f73746f726167652e676f6f676c65617069732e636f6d2f7a6574612d39353031362e61707073706f742e636f6d2f3333352e706e6768747470733a2f2f73746f726167652e676f6f676c65617069732e636f6d2f7a6574612d39353031362e61707073706f742e636f6d2f3733322e706e6768747470733a2f2f73746f726167652e676f6f676c65617069732e636f6d2f7a6574612d39353031362e61707073706f742e636f6d2f3530352e706e6768747470733a2f2f73746f726167652e676f6f676c65617069732e636f6d2f7a6574612d39353031362e61707073706f742e636f6d2f3136342e706e6768747470733a2f2f73746f726167652e676f6f676c65617069732e636f6d2f7a6574612d39353031362e61707073706f742e636f6d2f3330302e706e6768747470733a2f2f73746f726167652e676f6f676c65617069732e636f6d2f7a6574612d39353031362e61707073706f742e636f6d2f3533312e706e6768747470733a2f2f73746f726167652e676f6f676c65617069732e636f6d2f7a6574612d39353031362e61707073706f742e636f6d2f3238372e706e6768747470733a2f2f73746f726167652e676f6f676c65617069732e636f6d2f7a6574612d39353031362e61707073706f742e636f6d2f3733352e706e6768747470733a2f2f73746f726167652e676f6f676c65617069732e636f6d2f7a6574612d39353031362e61707073706f742e636f6d2f3434302e706e6768747470733a2f2f73746f726167652e676f6f676c65617069732e636f6d2f7a6574612d39353031362e61707073706f742e636f6d2f3239352e706e6768747470733a2f2f73746f726167652e676f6f676c65617069732e636f6d2f7a6574612d39353031362e61707073706f742e636f6d2f3136332e706e6768747470733a2f2f73746f726167652e676f6f676c65617069732e636f6d2f7a6574612d39353031362e61707073706f742e636f6d2f3133372e706e6768747470733a2f2f73746f726167652e676f6f676c65617069732e636f6d2f7a6574612d39353031362e61707073706f742e636f6d2f3230362e706e6768747470733a2f2f73746f726167652e676f6f676c65617069732e636f6d2f7a6574612d39353031362e61707073706f742e636f6d2f3238392e706e6768747470733a2f2f73746f726167652e676f6f676c65617069732e636f6d2f7a6574612d39353031362e61707073706f742e636f6d2f3236332e706e6768747470733a2f2f73746f726167652e676f6f676c65617069732e636f6d2f7a6574612d39353031362e61707073706f742e636f6d2f3034302e706e67",
  "immutableReferences": {},
  "source": "// SPDX-License-Identifier: MIT\npragma solidity ^0.8.0;\n\nimport \"@openzeppelin/contracts/token/ERC721/ERC721.sol\";\nimport \"@openzeppelin/contracts/utils/Counters.sol\";\nimport \"@openzeppelin/contracts/access/Ownable.sol\";\nimport \"@openzeppelin/contracts/utils/Base64.sol\";\n\n// NFT Types + NFT\n\ncontract NowggNFT is ERC721, Ownable {\n    using Counters for Counters.Counter;\n    Counters.Counter private _tokenIdCounter;\n    mapping(uint256 => Pokemon) public pokemonMetaData;\n    mapping(address => uint256[]) public playerOwnedNfts;\n    address nowggMarketplace;\n\n    struct Pokemon {\n        uint256 id;\n        string name;\n        string[2] pokemonType;\n        string image;\n        uint8 hp;\n        uint8 attack;\n        uint8 defense;\n        uint8 spAttack;\n        uint8 spDefense;\n        uint8 speed;\n    }\n\n    function setNowggMarketPlaceAddress(address deployedContractAddress) public {\n        nowggMarketplace = deployedContractAddress;\n    }\n\n    struct PokemonTypes {\n        mapping(uint256 => Pokemon) pokemonTypes;\n        uint256 totalPokemons;\n    }\n\n    PokemonTypes public _pokemons;\n\n    function getPokemon(uint256 index) public view returns (Pokemon memory) {\n        return _pokemons.pokemonTypes[index];\n    }\n\n    uint256 randNonce = 0;\n\n    function randMod(uint256 _modulus) public returns (uint256) {\n        randNonce++;\n        return\n            uint256(\n                keccak256(\n                    abi.encodePacked(block.timestamp, msg.sender, randNonce)\n                )\n            ) % _modulus;\n    }\n\n    function registerPlayerCards(address player, uint256 quantity) public {\n        if (msg.sender == nowggMarketplace) {\n            for (uint256 i = 0; i < quantity; i++) {\n                _tokenIdCounter.increment();\n                uint256 tokenId = _tokenIdCounter.current();\n                mint(player, tokenId, getPokemon(randMod(100)));\n                playerOwnedNfts[player].push(tokenId);\n            }\n        }\n    }\n\n    function getAllTokensByOwner() public view returns (uint256[] memory) {\n        return playerOwnedNfts[msg.sender];\n    }\n\n    function getPokemonMetaData(uint256 token)\n        public\n        view\n        returns (Pokemon memory)\n    {\n        return pokemonMetaData[token];\n    }\n\n    constructor() ERC721(\"NowggNFT\", \"NT\") {\n        _pokemons.pokemonTypes[0] = Pokemon(\n            16,\n            \"Pidgey\",\n            [\"Normal\", \"Flying\"],\n            \"https://storage.googleapis.com/zeta-95016.appspot.com/016.png\",\n            40,\n            45,\n            40,\n            35,\n            35,\n            56\n        );\n        _pokemons.pokemonTypes[1] = Pokemon(\n            17,\n            \"Pidgeotto\",\n            [\"Normal\", \"Flying\"],\n            \"https://storage.googleapis.com/zeta-95016.appspot.com/017.png\",\n            63,\n            60,\n            55,\n            50,\n            50,\n            71\n        );\n        _pokemons.pokemonTypes[2] = Pokemon(\n            18,\n            \"Pidgeot\",\n            [\"Normal\", \"Flying\"],\n            \"https://storage.googleapis.com/zeta-95016.appspot.com/018.png\",\n            83,\n            80,\n            75,\n            70,\n            70,\n            101\n        );\n        _pokemons.pokemonTypes[3] = Pokemon(\n            19,\n            \"Rattata\",\n            [\"Normal\", \"\"],\n            \"https://storage.googleapis.com/zeta-95016.appspot.com/019.png\",\n            30,\n            56,\n            35,\n            25,\n            35,\n            72\n        );\n        _pokemons.pokemonTypes[4] = Pokemon(\n            20,\n            \"Raticate\",\n            [\"Normal\", \"\"],\n            \"https://storage.googleapis.com/zeta-95016.appspot.com/020.png\",\n            55,\n            81,\n            60,\n            50,\n            70,\n            97\n        );\n        _pokemons.pokemonTypes[5] = Pokemon(\n            21,\n            \"Spearow\",\n            [\"Normal\", \"Flying\"],\n            \"https://storage.googleapis.com/zeta-95016.appspot.com/021.png\",\n            40,\n            60,\n            30,\n            31,\n            31,\n            70\n        );\n        _pokemons.pokemonTypes[6] = Pokemon(\n            22,\n            \"Fearow\",\n            [\"Normal\", \"Flying\"],\n            \"https://storage.googleapis.com/zeta-95016.appspot.com/022.png\",\n            65,\n            90,\n            65,\n            61,\n            61,\n            100\n        );\n        _pokemons.pokemonTypes[7] = Pokemon(\n            39,\n            \"Jigglypuff\",\n            [\"Normal\", \"Fairy\"],\n            \"https://storage.googleapis.com/zeta-95016.appspot.com/039.png\",\n            115,\n            45,\n            20,\n            45,\n            25,\n            20\n        );\n        _pokemons.pokemonTypes[8] = Pokemon(\n            40,\n            \"Wigglytuff\",\n            [\"Normal\", \"Fairy\"],\n            \"https://storage.googleapis.com/zeta-95016.appspot.com/040.png\",\n            140,\n            70,\n            45,\n            85,\n            50,\n            45\n        );\n        _pokemons.pokemonTypes[9] = Pokemon(\n            52,\n            \"Meowth\",\n            [\"Normal\", \"\"],\n            \"https://storage.googleapis.com/zeta-95016.appspot.com/052.png\",\n            40,\n            45,\n            35,\n            40,\n            40,\n            90\n        );\n        _pokemons.pokemonTypes[10] = Pokemon(\n            53,\n            \"Persian\",\n            [\"Normal\", \"\"],\n            \"https://storage.googleapis.com/zeta-95016.appspot.com/053.png\",\n            65,\n            70,\n            60,\n            65,\n            65,\n            115\n        );\n        _pokemons.pokemonTypes[11] = Pokemon(\n            83,\n            \"Farfetched\",\n            [\"Normal\", \"Flying\"],\n            \"https://storage.googleapis.com/zeta-95016.appspot.com/083.png\",\n            52,\n            90,\n            55,\n            58,\n            62,\n            60\n        );\n        _pokemons.pokemonTypes[12] = Pokemon(\n            84,\n            \"Doduo\",\n            [\"Normal\", \"Flying\"],\n            \"https://storage.googleapis.com/zeta-95016.appspot.com/084.png\",\n            35,\n            85,\n            45,\n            35,\n            35,\n            75\n        );\n        _pokemons.pokemonTypes[13] = Pokemon(\n            85,\n            \"Dodrio\",\n            [\"Normal\", \"Flying\"],\n            \"https://storage.googleapis.com/zeta-95016.appspot.com/085.png\",\n            60,\n            110,\n            70,\n            60,\n            60,\n            110\n        );\n        _pokemons.pokemonTypes[14] = Pokemon(\n            108,\n            \"Lickitung\",\n            [\"Normal\", \"\"],\n            \"https://storage.googleapis.com/zeta-95016.appspot.com/108.png\",\n            90,\n            55,\n            75,\n            60,\n            75,\n            30\n        );\n        _pokemons.pokemonTypes[15] = Pokemon(\n            113,\n            \"Chansey\",\n            [\"Normal\", \"\"],\n            \"https://storage.googleapis.com/zeta-95016.appspot.com/113.png\",\n            250,\n            5,\n            5,\n            35,\n            105,\n            50\n        );\n        _pokemons.pokemonTypes[16] = Pokemon(\n            115,\n            \"Kangaskhan\",\n            [\"Normal\", \"\"],\n            \"https://storage.googleapis.com/zeta-95016.appspot.com/115.png\",\n            105,\n            95,\n            80,\n            40,\n            80,\n            90\n        );\n        _pokemons.pokemonTypes[17] = Pokemon(\n            128,\n            \"Tauros\",\n            [\"Normal\", \"\"],\n            \"https://storage.googleapis.com/zeta-95016.appspot.com/128.png\",\n            75,\n            100,\n            95,\n            40,\n            70,\n            110\n        );\n        _pokemons.pokemonTypes[18] = Pokemon(\n            132,\n            \"Ditto\",\n            [\"Normal\", \"\"],\n            \"https://storage.googleapis.com/zeta-95016.appspot.com/132.png\",\n            48,\n            48,\n            48,\n            48,\n            48,\n            48\n        );\n        _pokemons.pokemonTypes[19] = Pokemon(\n            133,\n            \"Eevee\",\n            [\"Normal\", \"\"],\n            \"https://storage.googleapis.com/zeta-95016.appspot.com/133.png\",\n            55,\n            55,\n            50,\n            45,\n            65,\n            55\n        );\n        _pokemons.pokemonTypes[20] = Pokemon(\n            137,\n            \"Porygon\",\n            [\"Normal\", \"\"],\n            \"https://storage.googleapis.com/zeta-95016.appspot.com/137.png\",\n            65,\n            60,\n            70,\n            85,\n            75,\n            40\n        );\n        _pokemons.pokemonTypes[21] = Pokemon(\n            143,\n            \"Snorlax\",\n            [\"Normal\", \"\"],\n            \"https://storage.googleapis.com/zeta-95016.appspot.com/143.png\",\n            160,\n            110,\n            65,\n            65,\n            110,\n            30\n        );\n        _pokemons.pokemonTypes[22] = Pokemon(\n            161,\n            \"Sentret\",\n            [\"Normal\", \"\"],\n            \"https://storage.googleapis.com/zeta-95016.appspot.com/161.png\",\n            35,\n            46,\n            34,\n            35,\n            45,\n            20\n        );\n        _pokemons.pokemonTypes[23] = Pokemon(\n            162,\n            \"Furret\",\n            [\"Normal\", \"\"],\n            \"https://storage.googleapis.com/zeta-95016.appspot.com/162.png\",\n            85,\n            76,\n            64,\n            45,\n            55,\n            90\n        );\n        _pokemons.pokemonTypes[24] = Pokemon(\n            163,\n            \"Hoothoot\",\n            [\"Normal\", \"Flying\"],\n            \"https://storage.googleapis.com/zeta-95016.appspot.com/163.png\",\n            60,\n            30,\n            30,\n            36,\n            56,\n            50\n        );\n        _pokemons.pokemonTypes[25] = Pokemon(\n            164,\n            \"Noctowl\",\n            [\"Normal\", \"Flying\"],\n            \"https://storage.googleapis.com/zeta-95016.appspot.com/164.png\",\n            100,\n            50,\n            50,\n            86,\n            96,\n            70\n        );\n        _pokemons.pokemonTypes[26] = Pokemon(\n            174,\n            \"Igglybuff\",\n            [\"Normal\", \"Fairy\"],\n            \"https://storage.googleapis.com/zeta-95016.appspot.com/174.png\",\n            90,\n            30,\n            15,\n            40,\n            20,\n            15\n        );\n        _pokemons.pokemonTypes[27] = Pokemon(\n            190,\n            \"Aipom\",\n            [\"Normal\", \"\"],\n            \"https://storage.googleapis.com/zeta-95016.appspot.com/190.png\",\n            55,\n            70,\n            55,\n            40,\n            55,\n            85\n        );\n        _pokemons.pokemonTypes[28] = Pokemon(\n            203,\n            \"Girafarig\",\n            [\"Normal\", \"Psychic\"],\n            \"https://storage.googleapis.com/zeta-95016.appspot.com/203.png\",\n            70,\n            80,\n            65,\n            90,\n            65,\n            85\n        );\n        _pokemons.pokemonTypes[29] = Pokemon(\n            206,\n            \"Dunsparce\",\n            [\"Normal\", \"\"],\n            \"https://storage.googleapis.com/zeta-95016.appspot.com/206.png\",\n            100,\n            70,\n            70,\n            65,\n            65,\n            45\n        );\n        _pokemons.pokemonTypes[30] = Pokemon(\n            216,\n            \"Teddiursa\",\n            [\"Normal\", \"\"],\n            \"https://storage.googleapis.com/zeta-95016.appspot.com/216.png\",\n            60,\n            80,\n            50,\n            50,\n            50,\n            40\n        );\n        _pokemons.pokemonTypes[31] = Pokemon(\n            217,\n            \"Ursaring\",\n            [\"Normal\", \"\"],\n            \"https://storage.googleapis.com/zeta-95016.appspot.com/217.png\",\n            90,\n            130,\n            75,\n            75,\n            75,\n            55\n        );\n        _pokemons.pokemonTypes[32] = Pokemon(\n            233,\n            \"Porygon2\",\n            [\"Normal\", \"\"],\n            \"https://storage.googleapis.com/zeta-95016.appspot.com/233.png\",\n            85,\n            80,\n            90,\n            105,\n            95,\n            60\n        );\n        _pokemons.pokemonTypes[33] = Pokemon(\n            234,\n            \"Stantler\",\n            [\"Normal\", \"\"],\n            \"https://storage.googleapis.com/zeta-95016.appspot.com/234.png\",\n            73,\n            95,\n            62,\n            85,\n            65,\n            85\n        );\n        _pokemons.pokemonTypes[34] = Pokemon(\n            235,\n            \"Smeargle\",\n            [\"Normal\", \"\"],\n            \"https://storage.googleapis.com/zeta-95016.appspot.com/235.png\",\n            55,\n            20,\n            35,\n            20,\n            45,\n            75\n        );\n        _pokemons.pokemonTypes[35] = Pokemon(\n            241,\n            \"Miltank\",\n            [\"Normal\", \"\"],\n            \"https://storage.googleapis.com/zeta-95016.appspot.com/241.png\",\n            95,\n            80,\n            105,\n            40,\n            70,\n            100\n        );\n        _pokemons.pokemonTypes[36] = Pokemon(\n            242,\n            \"Blissey\",\n            [\"Normal\", \"\"],\n            \"https://storage.googleapis.com/zeta-95016.appspot.com/242.png\",\n            255,\n            10,\n            10,\n            75,\n            135,\n            55\n        );\n        _pokemons.pokemonTypes[37] = Pokemon(\n            263,\n            \"Zigzagoon\",\n            [\"Normal\", \"\"],\n            \"https://storage.googleapis.com/zeta-95016.appspot.com/263.png\",\n            38,\n            30,\n            41,\n            30,\n            41,\n            60\n        );\n        _pokemons.pokemonTypes[38] = Pokemon(\n            264,\n            \"Linoone\",\n            [\"Normal\", \"\"],\n            \"https://storage.googleapis.com/zeta-95016.appspot.com/264.png\",\n            78,\n            70,\n            61,\n            50,\n            61,\n            100\n        );\n        _pokemons.pokemonTypes[39] = Pokemon(\n            276,\n            \"Taillow\",\n            [\"Normal\", \"Flying\"],\n            \"https://storage.googleapis.com/zeta-95016.appspot.com/276.png\",\n            40,\n            55,\n            30,\n            30,\n            30,\n            85\n        );\n        _pokemons.pokemonTypes[40] = Pokemon(\n            277,\n            \"Swellow\",\n            [\"Normal\", \"Flying\"],\n            \"https://storage.googleapis.com/zeta-95016.appspot.com/277.png\",\n            60,\n            85,\n            60,\n            75,\n            50,\n            125\n        );\n        _pokemons.pokemonTypes[41] = Pokemon(\n            287,\n            \"Slakoth\",\n            [\"Normal\", \"\"],\n            \"https://storage.googleapis.com/zeta-95016.appspot.com/287.png\",\n            60,\n            60,\n            60,\n            35,\n            35,\n            30\n        );\n        _pokemons.pokemonTypes[42] = Pokemon(\n            288,\n            \"Vigoroth\",\n            [\"Normal\", \"\"],\n            \"https://storage.googleapis.com/zeta-95016.appspot.com/288.png\",\n            80,\n            80,\n            80,\n            55,\n            55,\n            90\n        );\n        _pokemons.pokemonTypes[43] = Pokemon(\n            289,\n            \"Slaking\",\n            [\"Normal\", \"\"],\n            \"https://storage.googleapis.com/zeta-95016.appspot.com/289.png\",\n            150,\n            160,\n            100,\n            95,\n            65,\n            100\n        );\n        _pokemons.pokemonTypes[44] = Pokemon(\n            293,\n            \"Whismur\",\n            [\"Normal\", \"\"],\n            \"https://storage.googleapis.com/zeta-95016.appspot.com/293.png\",\n            64,\n            51,\n            23,\n            51,\n            23,\n            28\n        );\n        _pokemons.pokemonTypes[45] = Pokemon(\n            294,\n            \"Loudred\",\n            [\"Normal\", \"\"],\n            \"https://storage.googleapis.com/zeta-95016.appspot.com/294.png\",\n            84,\n            71,\n            43,\n            71,\n            43,\n            48\n        );\n        _pokemons.pokemonTypes[46] = Pokemon(\n            295,\n            \"Exploud\",\n            [\"Normal\", \"\"],\n            \"https://storage.googleapis.com/zeta-95016.appspot.com/295.png\",\n            104,\n            91,\n            63,\n            91,\n            73,\n            68\n        );\n        _pokemons.pokemonTypes[47] = Pokemon(\n            298,\n            \"Azurill\",\n            [\"Normal\", \"Fairy\"],\n            \"https://storage.googleapis.com/zeta-95016.appspot.com/298.png\",\n            50,\n            20,\n            40,\n            20,\n            40,\n            20\n        );\n        _pokemons.pokemonTypes[48] = Pokemon(\n            300,\n            \"Skitty\",\n            [\"Normal\", \"\"],\n            \"https://storage.googleapis.com/zeta-95016.appspot.com/300.png\",\n            50,\n            45,\n            45,\n            35,\n            35,\n            50\n        );\n        _pokemons.pokemonTypes[49] = Pokemon(\n            301,\n            \"Delcatty\",\n            [\"Normal\", \"\"],\n            \"https://storage.googleapis.com/zeta-95016.appspot.com/301.png\",\n            70,\n            65,\n            65,\n            55,\n            55,\n            90\n        );\n        _pokemons.pokemonTypes[50] = Pokemon(\n            327,\n            \"Spinda\",\n            [\"Normal\", \"\"],\n            \"https://storage.googleapis.com/zeta-95016.appspot.com/327.png\",\n            60,\n            60,\n            60,\n            60,\n            60,\n            60\n        );\n        _pokemons.pokemonTypes[51] = Pokemon(\n            333,\n            \"Swablu\",\n            [\"Normal\", \"Flying\"],\n            \"https://storage.googleapis.com/zeta-95016.appspot.com/333.png\",\n            45,\n            40,\n            60,\n            40,\n            75,\n            50\n        );\n        _pokemons.pokemonTypes[52] = Pokemon(\n            335,\n            \"Zangoose\",\n            [\"Normal\", \"\"],\n            \"https://storage.googleapis.com/zeta-95016.appspot.com/335.png\",\n            73,\n            115,\n            60,\n            60,\n            60,\n            90\n        );\n        _pokemons.pokemonTypes[53] = Pokemon(\n            351,\n            \"Castform\",\n            [\"Normal\", \"\"],\n            \"https://storage.googleapis.com/zeta-95016.appspot.com/351.png\",\n            70,\n            70,\n            70,\n            70,\n            70,\n            70\n        );\n        _pokemons.pokemonTypes[54] = Pokemon(\n            352,\n            \"Kecleon\",\n            [\"Normal\", \"\"],\n            \"https://storage.googleapis.com/zeta-95016.appspot.com/352.png\",\n            60,\n            90,\n            70,\n            60,\n            120,\n            40\n        );\n        _pokemons.pokemonTypes[55] = Pokemon(\n            396,\n            \"Starly\",\n            [\"Normal\", \"Flying\"],\n            \"https://storage.googleapis.com/zeta-95016.appspot.com/396.png\",\n            40,\n            55,\n            30,\n            30,\n            30,\n            60\n        );\n        _pokemons.pokemonTypes[56] = Pokemon(\n            397,\n            \"Staravia\",\n            [\"Normal\", \"Flying\"],\n            \"https://storage.googleapis.com/zeta-95016.appspot.com/397.png\",\n            55,\n            75,\n            50,\n            40,\n            40,\n            80\n        );\n        _pokemons.pokemonTypes[57] = Pokemon(\n            398,\n            \"Staraptor\",\n            [\"Normal\", \"Flying\"],\n            \"https://storage.googleapis.com/zeta-95016.appspot.com/398.png\",\n            85,\n            120,\n            70,\n            50,\n            60,\n            100\n        );\n        _pokemons.pokemonTypes[58] = Pokemon(\n            399,\n            \"Bidoof\",\n            [\"Normal\", \"\"],\n            \"https://storage.googleapis.com/zeta-95016.appspot.com/399.png\",\n            59,\n            45,\n            40,\n            35,\n            40,\n            31\n        );\n        _pokemons.pokemonTypes[59] = Pokemon(\n            400,\n            \"Bibarel\",\n            [\"Normal\", \"Water\"],\n            \"https://storage.googleapis.com/zeta-95016.appspot.com/400.png\",\n            79,\n            85,\n            60,\n            55,\n            60,\n            71\n        );\n        _pokemons.pokemonTypes[60] = Pokemon(\n            424,\n            \"Ambipom\",\n            [\"Normal\", \"\"],\n            \"https://storage.googleapis.com/zeta-95016.appspot.com/424.png\",\n            75,\n            100,\n            66,\n            60,\n            66,\n            115\n        );\n        _pokemons.pokemonTypes[61] = Pokemon(\n            427,\n            \"Buneary\",\n            [\"Normal\", \"\"],\n            \"https://storage.googleapis.com/zeta-95016.appspot.com/427.png\",\n            55,\n            66,\n            44,\n            44,\n            56,\n            85\n        );\n        _pokemons.pokemonTypes[62] = Pokemon(\n            428,\n            \"Lopunny\",\n            [\"Normal\", \"\"],\n            \"https://storage.googleapis.com/zeta-95016.appspot.com/428.png\",\n            65,\n            76,\n            84,\n            54,\n            96,\n            105\n        );\n        _pokemons.pokemonTypes[63] = Pokemon(\n            431,\n            \"Glameow\",\n            [\"Normal\", \"\"],\n            \"https://storage.googleapis.com/zeta-95016.appspot.com/431.png\",\n            49,\n            55,\n            42,\n            42,\n            37,\n            85\n        );\n        _pokemons.pokemonTypes[64] = Pokemon(\n            432,\n            \"Purugly\",\n            [\"Normal\", \"\"],\n            \"https://storage.googleapis.com/zeta-95016.appspot.com/432.png\",\n            71,\n            82,\n            64,\n            64,\n            59,\n            112\n        );\n        _pokemons.pokemonTypes[65] = Pokemon(\n            440,\n            \"Happiny\",\n            [\"Normal\", \"\"],\n            \"https://storage.googleapis.com/zeta-95016.appspot.com/440.png\",\n            100,\n            5,\n            5,\n            15,\n            65,\n            30\n        );\n        _pokemons.pokemonTypes[66] = Pokemon(\n            441,\n            \"Chatot\",\n            [\"Normal\", \"Flying\"],\n            \"https://storage.googleapis.com/zeta-95016.appspot.com/441.png\",\n            76,\n            65,\n            45,\n            92,\n            42,\n            91\n        );\n        _pokemons.pokemonTypes[67] = Pokemon(\n            446,\n            \"Munchlax\",\n            [\"Normal\", \"\"],\n            \"https://storage.googleapis.com/zeta-95016.appspot.com/446.png\",\n            135,\n            85,\n            40,\n            40,\n            85,\n            5\n        );\n        _pokemons.pokemonTypes[68] = Pokemon(\n            463,\n            \"Lickilicky\",\n            [\"Normal\", \"\"],\n            \"https://storage.googleapis.com/zeta-95016.appspot.com/463.png\",\n            110,\n            85,\n            95,\n            80,\n            95,\n            50\n        );\n        _pokemons.pokemonTypes[69] = Pokemon(\n            474,\n            \"Porygon-Z\",\n            [\"Normal\", \"\"],\n            \"https://storage.googleapis.com/zeta-95016.appspot.com/474.png\",\n            85,\n            80,\n            70,\n            135,\n            75,\n            90\n        );\n        _pokemons.pokemonTypes[70] = Pokemon(\n            486,\n            \"Regigigas\",\n            [\"Normal\", \"\"],\n            \"https://storage.googleapis.com/zeta-95016.appspot.com/486.png\",\n            110,\n            160,\n            110,\n            80,\n            110,\n            100\n        );\n        _pokemons.pokemonTypes[71] = Pokemon(\n            493,\n            \"Arceus\",\n            [\"Normal\", \"\"],\n            \"https://storage.googleapis.com/zeta-95016.appspot.com/493.png\",\n            120,\n            120,\n            120,\n            120,\n            120,\n            120\n        );\n        _pokemons.pokemonTypes[72] = Pokemon(\n            504,\n            \"Patrat\",\n            [\"Normal\", \"\"],\n            \"https://storage.googleapis.com/zeta-95016.appspot.com/504.png\",\n            45,\n            55,\n            39,\n            35,\n            39,\n            42\n        );\n        _pokemons.pokemonTypes[73] = Pokemon(\n            505,\n            \"Watchog\",\n            [\"Normal\", \"\"],\n            \"https://storage.googleapis.com/zeta-95016.appspot.com/505.png\",\n            60,\n            85,\n            69,\n            60,\n            69,\n            77\n        );\n        _pokemons.pokemonTypes[74] = Pokemon(\n            506,\n            \"Lillipup\",\n            [\"Normal\", \"\"],\n            \"https://storage.googleapis.com/zeta-95016.appspot.com/506.png\",\n            45,\n            60,\n            45,\n            25,\n            45,\n            55\n        );\n        _pokemons.pokemonTypes[75] = Pokemon(\n            507,\n            \"Herdier\",\n            [\"Normal\", \"\"],\n            \"https://storage.googleapis.com/zeta-95016.appspot.com/507.png\",\n            65,\n            80,\n            65,\n            35,\n            65,\n            60\n        );\n        _pokemons.pokemonTypes[76] = Pokemon(\n            508,\n            \"Stoutland\",\n            [\"Normal\", \"\"],\n            \"https://storage.googleapis.com/zeta-95016.appspot.com/508.png\",\n            85,\n            110,\n            90,\n            45,\n            90,\n            80\n        );\n        _pokemons.pokemonTypes[77] = Pokemon(\n            519,\n            \"Pidove\",\n            [\"Normal\", \"Flying\"],\n            \"https://storage.googleapis.com/zeta-95016.appspot.com/519.png\",\n            50,\n            55,\n            50,\n            36,\n            30,\n            43\n        );\n        _pokemons.pokemonTypes[78] = Pokemon(\n            520,\n            \"Tranquill\",\n            [\"Normal\", \"Flying\"],\n            \"https://storage.googleapis.com/zeta-95016.appspot.com/520.png\",\n            62,\n            77,\n            62,\n            50,\n            42,\n            65\n        );\n        _pokemons.pokemonTypes[79] = Pokemon(\n            521,\n            \"Unfezant\",\n            [\"Normal\", \"Flying\"],\n            \"https://storage.googleapis.com/zeta-95016.appspot.com/521.png\",\n            80,\n            115,\n            80,\n            65,\n            55,\n            93\n        );\n        _pokemons.pokemonTypes[80] = Pokemon(\n            531,\n            \"Audino\",\n            [\"Normal\", \"\"],\n            \"https://storage.googleapis.com/zeta-95016.appspot.com/531.png\",\n            103,\n            60,\n            86,\n            60,\n            86,\n            50\n        );\n        _pokemons.pokemonTypes[81] = Pokemon(\n            572,\n            \"Minccino\",\n            [\"Normal\", \"\"],\n            \"https://storage.googleapis.com/zeta-95016.appspot.com/572.png\",\n            55,\n            50,\n            40,\n            40,\n            40,\n            75\n        );\n        _pokemons.pokemonTypes[82] = Pokemon(\n            573,\n            \"Cinccino\",\n            [\"Normal\", \"\"],\n            \"https://storage.googleapis.com/zeta-95016.appspot.com/573.png\",\n            75,\n            95,\n            60,\n            65,\n            60,\n            115\n        );\n        _pokemons.pokemonTypes[83] = Pokemon(\n            585,\n            \"Deerling\",\n            [\"Normal\", \"Grass\"],\n            \"https://storage.googleapis.com/zeta-95016.appspot.com/585.png\",\n            60,\n            60,\n            50,\n            40,\n            50,\n            75\n        );\n        _pokemons.pokemonTypes[84] = Pokemon(\n            586,\n            \"Sawsbuck\",\n            [\"Normal\", \"Grass\"],\n            \"https://storage.googleapis.com/zeta-95016.appspot.com/586.png\",\n            80,\n            100,\n            70,\n            60,\n            70,\n            95\n        );\n        _pokemons.pokemonTypes[85] = Pokemon(\n            626,\n            \"Bouffalant\",\n            [\"Normal\", \"\"],\n            \"https://storage.googleapis.com/zeta-95016.appspot.com/626.png\",\n            95,\n            110,\n            95,\n            40,\n            95,\n            55\n        );\n        _pokemons.pokemonTypes[86] = Pokemon(\n            627,\n            \"Rufflet\",\n            [\"Normal\", \"Flying\"],\n            \"https://storage.googleapis.com/zeta-95016.appspot.com/627.png\",\n            70,\n            83,\n            50,\n            37,\n            50,\n            60\n        );\n        _pokemons.pokemonTypes[87] = Pokemon(\n            628,\n            \"Braviary\",\n            [\"Normal\", \"Flying\"],\n            \"https://storage.googleapis.com/zeta-95016.appspot.com/628.png\",\n            100,\n            123,\n            75,\n            57,\n            75,\n            80\n        );\n        _pokemons.pokemonTypes[88] = Pokemon(\n            648,\n            \"Meloetta\",\n            [\"Normal\", \"Psychic\"],\n            \"https://storage.googleapis.com/zeta-95016.appspot.com/648.png\",\n            100,\n            77,\n            77,\n            128,\n            128,\n            90\n        );\n        _pokemons.pokemonTypes[89] = Pokemon(\n            659,\n            \"Bunnelby\",\n            [\"Normal\", \"\"],\n            \"https://storage.googleapis.com/zeta-95016.appspot.com/659.png\",\n            38,\n            36,\n            38,\n            32,\n            36,\n            57\n        );\n        _pokemons.pokemonTypes[90] = Pokemon(\n            660,\n            \"Diggersby\",\n            [\"Normal\", \"Ground\"],\n            \"https://storage.googleapis.com/zeta-95016.appspot.com/660.png\",\n            85,\n            56,\n            77,\n            50,\n            77,\n            78\n        );\n        _pokemons.pokemonTypes[91] = Pokemon(\n            661,\n            \"Fletchling\",\n            [\"Normal\", \"Flying\"],\n            \"https://storage.googleapis.com/zeta-95016.appspot.com/661.png\",\n            45,\n            50,\n            43,\n            40,\n            38,\n            62\n        );\n        _pokemons.pokemonTypes[92] = Pokemon(\n            667,\n            \"Litleo\",\n            [\"Fire\", \"Normal\"],\n            \"https://storage.googleapis.com/zeta-95016.appspot.com/667.png\",\n            62,\n            50,\n            58,\n            73,\n            54,\n            72\n        );\n        _pokemons.pokemonTypes[93] = Pokemon(\n            668,\n            \"Pyroar\",\n            [\"Fire\", \"Normal\"],\n            \"https://storage.googleapis.com/zeta-95016.appspot.com/668.png\",\n            86,\n            68,\n            72,\n            109,\n            66,\n            106\n        );\n        _pokemons.pokemonTypes[94] = Pokemon(\n            676,\n            \"Furfrou\",\n            [\"Normal\", \"\"],\n            \"https://storage.googleapis.com/zeta-95016.appspot.com/676.png\",\n            75,\n            80,\n            60,\n            65,\n            90,\n            102\n        );\n        _pokemons.pokemonTypes[95] = Pokemon(\n            694,\n            \"Helioptile\",\n            [\"Electric\", \"Normal\"],\n            \"https://storage.googleapis.com/zeta-95016.appspot.com/694.png\",\n            44,\n            38,\n            33,\n            61,\n            43,\n            70\n        );\n        _pokemons.pokemonTypes[96] = Pokemon(\n            695,\n            \"Heliolisk\",\n            [\"Electric\", \"Normal\"],\n            \"https://storage.googleapis.com/zeta-95016.appspot.com/695.png\",\n            62,\n            55,\n            52,\n            109,\n            94,\n            109\n        );\n        _pokemons.pokemonTypes[97] = Pokemon(\n            731,\n            \"Pikipek\",\n            [\"Normal\", \"Flying\"],\n            \"https://storage.googleapis.com/zeta-95016.appspot.com/731.png\",\n            35,\n            75,\n            30,\n            30,\n            30,\n            65\n        );\n        _pokemons.pokemonTypes[98] = Pokemon(\n            732,\n            \"Trumbeak\",\n            [\"Normal\", \"Flying\"],\n            \"https://storage.googleapis.com/zeta-95016.appspot.com/732.png\",\n            55,\n            85,\n            50,\n            40,\n            50,\n            75\n        );\n        _pokemons.pokemonTypes[99] = Pokemon(\n            733,\n            \"Toucannon\",\n            [\"Normal\", \"Flying\"],\n            \"https://storage.googleapis.com/zeta-95016.appspot.com/733.png\",\n            80,\n            120,\n            75,\n            75,\n            75,\n            60\n        );\n        _pokemons.pokemonTypes[100] = Pokemon(\n            734,\n            \"Yungoos\",\n            [\"Normal\", \"\"],\n            \"https://storage.googleapis.com/zeta-95016.appspot.com/734.png\",\n            48,\n            70,\n            30,\n            30,\n            30,\n            45\n        );\n        _pokemons.pokemonTypes[101] = Pokemon(\n            735,\n            \"Gumshoos\",\n            [\"Normal\", \"\"],\n            \"https://storage.googleapis.com/zeta-95016.appspot.com/735.png\",\n            88,\n            110,\n            60,\n            55,\n            60,\n            45\n        );\n        _pokemons.pokemonTypes[102] = Pokemon(\n            759,\n            \"Stufful\",\n            [\"Normal\", \"Fighting\"],\n            \"https://storage.googleapis.com/zeta-95016.appspot.com/759.png\",\n            70,\n            75,\n            50,\n            45,\n            50,\n            50\n        );\n        _pokemons.pokemonTypes[103] = Pokemon(\n            760,\n            \"Bewear\",\n            [\"Normal\", \"Fighting\"],\n            \"https://storage.googleapis.com/zeta-95016.appspot.com/760.png\",\n            120,\n            125,\n            80,\n            55,\n            60,\n            60\n        );\n        _pokemons.pokemonTypes[104] = Pokemon(\n            765,\n            \"Oranguru\",\n            [\"Normal\", \"Psychic\"],\n            \"https://storage.googleapis.com/zeta-95016.appspot.com/765.png\",\n            90,\n            60,\n            80,\n            90,\n            110,\n            60\n        );\n        _pokemons.pokemonTypes[105] = Pokemon(\n            772,\n            \"Type: Null\",\n            [\"Normal\", \"\"],\n            \"https://storage.googleapis.com/zeta-95016.appspot.com/772.png\",\n            95,\n            95,\n            95,\n            95,\n            95,\n            59\n        );\n        _pokemons.pokemonTypes[106] = Pokemon(\n            773,\n            \"Silvally\",\n            [\"Normal\", \"\"],\n            \"https://storage.googleapis.com/zeta-95016.appspot.com/773.png\",\n            95,\n            95,\n            95,\n            95,\n            95,\n            95\n        );\n        _pokemons.pokemonTypes[107] = Pokemon(\n            775,\n            \"Komala\",\n            [\"Normal\", \"\"],\n            \"https://storage.googleapis.com/zeta-95016.appspot.com/775.png\",\n            65,\n            115,\n            65,\n            75,\n            95,\n            65\n        );\n        _pokemons.pokemonTypes[108] = Pokemon(\n            780,\n            \"Drampa\",\n            [\"Normal\", \"Dragon\"],\n            \"https://storage.googleapis.com/zeta-95016.appspot.com/780.png\",\n            78,\n            60,\n            85,\n            135,\n            91,\n            36\n        );\n        _pokemons.totalPokemons = 109;\n    }\n\n    function _beforeTokenTransfer(\n        address from,\n        address to,\n        uint256 tokenId\n    ) internal override(ERC721) {\n        super._beforeTokenTransfer(from, to, tokenId);\n    }\n\n    function _burn(uint256 tokenId) internal override(ERC721) {\n        super._burn(tokenId);\n    }\n\n    function supportsInterface(bytes4 interfaceId)\n        public\n        view\n        override(ERC721)\n        returns (bool)\n    {\n        return super.supportsInterface(interfaceId);\n    }\n\n    function mint(\n        address to,\n        uint256 tokenId,\n        Pokemon memory _pokemon\n    ) public {\n        _safeMint(to, tokenId);\n        pokemonMetaData[tokenId] = _pokemon;\n    }\n\n    function tokenURI(uint256 tokenId)\n        public\n        view\n        override(ERC721)\n        returns (string memory)\n    {\n        string memory json = Base64.encode(\n            bytes(\n                string(\n                    abi.encodePacked(\n                        '{\"name\": \"',\n                        pokemonMetaData[tokenId].name,\n                        '\",',\n                        '\"image_data\": \"',\n                        pokemonMetaData[tokenId].image,\n                        '\",',\n                        '\"type\": [\"',\n                        pokemonMetaData[tokenId].pokemonType[0],\n                        '\",\"',\n                        pokemonMetaData[tokenId].pokemonType[1],\n                        '\"],',\n                        '\"attributes\": [',\n                        '{\"trait_type\": \"HP\", \"value\": ',\n                        Strings.toString(pokemonMetaData[tokenId].hp),\n                        \"},\",\n                        '{\"trait_type\": \"Attack\", \"value\": ',\n                        Strings.toString(pokemonMetaData[tokenId].attack),\n                        \"},\",\n                        '{\"trait_type\": \"Defense\", \"value\": ',\n                        Strings.toString(pokemonMetaData[tokenId].defense),\n                        \"},\",\n                        '{\"trait_type\": \"SpAttack\", \"value\": ',\n                        Strings.toString(pokemonMetaData[tokenId].spAttack),\n                        \"},\",\n                        '{\"trait_type\": \"SpDefense\", \"value\": ',\n                        Strings.toString(pokemonMetaData[tokenId].spDefense),\n                        \"},\",\n                        '{\"trait_type\": \"Speed\", \"value\": ',\n                        Strings.toString(pokemonMetaData[tokenId].speed),\n                        \"}\"\n                        \"]}\"\n                    )\n                )\n            )\n        );\n        return string(abi.encodePacked(json));\n    }\n}\n",
  "sourcePath": "/Users/bluestacksmac/Documents/GitHub/game-poc/src/contracts/NowggNFT.sol",
  "compiler": {
    "name": "solc",
    "version": "0.8.15+commit.e14f2714.Emscripten.clang"
  },
  "schemaVersion": "3.4.8",
  "updatedAt": "2022-07-18T12:26:24.285Z",
  "networkType": "ethereum",
  "devdoc": {
    "kind": "dev",
    "methods": {
      "approve(address,uint256)": {
        "details": "See {IERC721-approve}."
      },
      "balanceOf(address)": {
        "details": "See {IERC721-balanceOf}."
      },
      "getApproved(uint256)": {
        "details": "See {IERC721-getApproved}."
      },
      "isApprovedForAll(address,address)": {
        "details": "See {IERC721-isApprovedForAll}."
      },
      "name()": {
        "details": "See {IERC721Metadata-name}."
      },
      "owner()": {
        "details": "Returns the address of the current owner."
      },
      "ownerOf(uint256)": {
        "details": "See {IERC721-ownerOf}."
      },
      "renounceOwnership()": {
        "details": "Leaves the contract without owner. It will not be possible to call `onlyOwner` functions anymore. Can only be called by the current owner. NOTE: Renouncing ownership will leave the contract without an owner, thereby removing any functionality that is only available to the owner."
      },
      "safeTransferFrom(address,address,uint256)": {
        "details": "See {IERC721-safeTransferFrom}."
      },
      "safeTransferFrom(address,address,uint256,bytes)": {
        "details": "See {IERC721-safeTransferFrom}."
      },
      "setApprovalForAll(address,bool)": {
        "details": "See {IERC721-setApprovalForAll}."
      },
      "supportsInterface(bytes4)": {
        "details": "See {IERC165-supportsInterface}."
      },
      "symbol()": {
        "details": "See {IERC721Metadata-symbol}."
      },
      "tokenURI(uint256)": {
        "details": "See {IERC721Metadata-tokenURI}."
      },
      "transferFrom(address,address,uint256)": {
        "details": "See {IERC721-transferFrom}."
      },
      "transferOwnership(address)": {
        "details": "Transfers ownership of the contract to a new account (`newOwner`). Can only be called by the current owner."
      }
    },
    "version": 1
  },
  "userdoc": {
    "kind": "user",
    "methods": {},
    "version": 1
  }
}