{
  "contractName": "Whitelist",
  "abi": [
    {
      "inputs": [],
      "stateMutability": "nonpayable",
      "type": "constructor"
    },
    {
      "anonymous": false,
      "inputs": [
        {
          "indexed": false,
          "internalType": "address",
          "name": "member",
          "type": "address"
        }
      ],
      "name": "MemberAdded",
      "type": "event"
    },
    {
      "anonymous": false,
      "inputs": [
        {
          "indexed": false,
          "internalType": "address",
          "name": "member",
          "type": "address"
        }
      ],
      "name": "MemberRemoved",
      "type": "event"
    },
    {
      "anonymous": false,
      "inputs": [
        {
          "indexed": true,
          "internalType": "address",
          "name": "previousOwner",
          "type": "address"
        },
        {
          "indexed": true,
          "internalType": "address",
          "name": "newOwner",
          "type": "address"
        }
      ],
      "name": "OwnershipTransferred",
      "type": "event"
    },
    {
      "inputs": [],
      "name": "owner",
      "outputs": [
        {
          "internalType": "address",
          "name": "",
          "type": "address"
        }
      ],
      "stateMutability": "view",
      "type": "function",
      "constant": true
    },
    {
      "inputs": [],
      "name": "renounceOwnership",
      "outputs": [],
      "stateMutability": "nonpayable",
      "type": "function"
    },
    {
      "inputs": [
        {
          "internalType": "address",
          "name": "newOwner",
          "type": "address"
        }
      ],
      "name": "transferOwnership",
      "outputs": [],
      "stateMutability": "nonpayable",
      "type": "function"
    },
    {
      "inputs": [
        {
          "internalType": "address",
          "name": "_member",
          "type": "address"
        }
      ],
      "name": "isMember",
      "outputs": [
        {
          "internalType": "bool",
          "name": "",
          "type": "bool"
        }
      ],
      "stateMutability": "view",
      "type": "function",
      "constant": true
    },
    {
      "inputs": [
        {
          "internalType": "address",
          "name": "_member",
          "type": "address"
        }
      ],
      "name": "addMember",
      "outputs": [],
      "stateMutability": "nonpayable",
      "type": "function"
    },
    {
      "inputs": [
        {
          "internalType": "address",
          "name": "_member",
          "type": "address"
        }
      ],
      "name": "removeMember",
      "outputs": [],
      "stateMutability": "nonpayable",
      "type": "function"
    }
  ],
  "bytecode": "0x608060405234801561001057600080fd5b5061002d61002261003260201b60201c565b61003a60201b60201c565b6100fe565b600033905090565b60008060009054906101000a900473ffffffffffffffffffffffffffffffffffffffff169050816000806101000a81548173ffffffffffffffffffffffffffffffffffffffff021916908373ffffffffffffffffffffffffffffffffffffffff1602179055508173ffffffffffffffffffffffffffffffffffffffff168173ffffffffffffffffffffffffffffffffffffffff167f8be0079c531659141344cd1fd0a4f28419497f9722a3daafe3b4186f6b6457e060405160405180910390a35050565b61083b8061010d6000396000f3fe608060405234801561001057600080fd5b50600436106100625760003560e01c80630b1ca49a14610067578063715018a6146100835780638da5cb5b1461008d578063a230c524146100ab578063ca6d56dc146100db578063f2fde38b146100f7575b600080fd5b610081600480360381019061007c9190610591565b610113565b005b61008b6101ec565b005b610095610200565b6040516100a291906105cd565b60405180910390f35b6100c560048036038101906100c09190610591565b610229565b6040516100d29190610603565b60405180910390f35b6100f560048036038101906100f09190610591565b61027f565b005b610111600480360381019061010c9190610591565b610361565b005b61011b6103e4565b61012481610229565b610163576040517f08c379a000000000000000000000000000000000000000000000000000000000815260040161015a9061067b565b60405180910390fd5b600160008273ffffffffffffffffffffffffffffffffffffffff1673ffffffffffffffffffffffffffffffffffffffff16815260200190815260200160002060006101000a81549060ff02191690557f6e76fb4c77256006d9c38ec7d82b45a8c8f3c27b1d6766fffc42dfb8de684492816040516101e191906105cd565b60405180910390a150565b6101f46103e4565b6101fe6000610462565b565b60008060009054906101000a900473ffffffffffffffffffffffffffffffffffffffff16905090565b6000600160008373ffffffffffffffffffffffffffffffffffffffff1673ffffffffffffffffffffffffffffffffffffffff16815260200190815260200160002060009054906101000a900460ff169050919050565b6102876103e4565b61029081610229565b156102d0576040517f08c379a00000000000000000000000000000000000000000000000000000000081526004016102c7906106e7565b60405180910390fd5b60018060008373ffffffffffffffffffffffffffffffffffffffff1673ffffffffffffffffffffffffffffffffffffffff16815260200190815260200160002060006101000a81548160ff0219169083151502179055507fb251eb052afc73ffd02ffe85ad79990a8b3fed60d76dbc2fa2fdd7123dffd9148160405161035691906105cd565b60405180910390a150565b6103696103e4565b600073ffffffffffffffffffffffffffffffffffffffff168173ffffffffffffffffffffffffffffffffffffffff16036103d8576040517f08c379a00000000000000000000000000000000000000000000000000000000081526004016103cf90610779565b60405180910390fd5b6103e181610462565b50565b6103ec610526565b73ffffffffffffffffffffffffffffffffffffffff1661040a610200565b73ffffffffffffffffffffffffffffffffffffffff1614610460576040517f08c379a0000000000000000000000000000000000000000000000000000000008152600401610457906107e5565b60405180910390fd5b565b60008060009054906101000a900473ffffffffffffffffffffffffffffffffffffffff169050816000806101000a81548173ffffffffffffffffffffffffffffffffffffffff021916908373ffffffffffffffffffffffffffffffffffffffff1602179055508173ffffffffffffffffffffffffffffffffffffffff168173ffffffffffffffffffffffffffffffffffffffff167f8be0079c531659141344cd1fd0a4f28419497f9722a3daafe3b4186f6b6457e060405160405180910390a35050565b600033905090565b600080fd5b600073ffffffffffffffffffffffffffffffffffffffff82169050919050565b600061055e82610533565b9050919050565b61056e81610553565b811461057957600080fd5b50565b60008135905061058b81610565565b92915050565b6000602082840312156105a7576105a661052e565b5b60006105b58482850161057c565b91505092915050565b6105c781610553565b82525050565b60006020820190506105e260008301846105be565b92915050565b60008115159050919050565b6105fd816105e8565b82525050565b600060208201905061061860008301846105f4565b92915050565b600082825260208201905092915050565b7f4e6f74206d656d626572206f662077686974656c6973742e0000000000000000600082015250565b600061066560188361061e565b91506106708261062f565b602082019050919050565b6000602082019050818103600083015261069481610658565b9050919050565b7f41646472657373206973206d656d62657220616c72656164792e000000000000600082015250565b60006106d1601a8361061e565b91506106dc8261069b565b602082019050919050565b60006020820190508181036000830152610700816106c4565b9050919050565b7f4f776e61626c653a206e6577206f776e657220697320746865207a65726f206160008201527f6464726573730000000000000000000000000000000000000000000000000000602082015250565b600061076360268361061e565b915061076e82610707565b604082019050919050565b6000602082019050818103600083015261079281610756565b9050919050565b7f4f776e61626c653a2063616c6c6572206973206e6f7420746865206f776e6572600082015250565b60006107cf60208361061e565b91506107da82610799565b602082019050919050565b600060208201905081810360008301526107fe816107c2565b905091905056fea26469706673582212203227e26350df50b1d7d70a884b50341c5b6ba25f6941707df242a3a0544175de64736f6c634300080f0033",
  "immutableReferences": {},
  "source": "// SPDX-License-Identifier: MIT\npragma solidity ^0.8.0;\nimport \"@openzeppelin/contracts/access/Ownable.sol\";\n\n/**\n * @title Whitelist\n * @author Alberto Cuesta Canada\n * @dev Implements a simple whitelist of addresses.\n */\ncontract Whitelist is Ownable {\n    event MemberAdded(address member);\n    event MemberRemoved(address member);\n\n    mapping(address => bool) members;\n\n    /**\n     * @dev The contract constructor.\n     */\n    constructor() Ownable() {}\n\n    /**\n     * @dev A method to verify whether an address is a member of the whitelist\n     * @param _member The address to verify.\n     * @return Whether the address is a member of the whitelist.\n     */\n    function isMember(address _member) public view returns (bool) {\n        return members[_member];\n    }\n\n    /**\n     * @dev A method to add a member to the whitelist\n     * @param _member The member to add as a member.\n     */\n    function addMember(address _member) public onlyOwner {\n        require(!isMember(_member), \"Address is member already.\");\n\n        members[_member] = true;\n        emit MemberAdded(_member);\n    }\n\n    /**\n     * @dev A method to remove a member from the whitelist\n     * @param _member The member to remove as a member.\n     */\n    function removeMember(address _member) public onlyOwner {\n        require(isMember(_member), \"Not member of whitelist.\");\n\n        delete members[_member];\n        emit MemberRemoved(_member);\n    }\n}\n",
  "sourcePath": "/Users/bluestacksmac/Documents/GitHub/game-poc/src/contracts/Whitelist.sol",
  "compiler": {
    "name": "solc",
    "version": "0.8.15+commit.e14f2714.Emscripten.clang"
  },
  "schemaVersion": "3.4.8",
  "updatedAt": "2022-07-18T12:26:24.335Z",
  "networkType": "ethereum",
  "devdoc": {
    "author": "Alberto Cuesta Canada",
    "details": "Implements a simple whitelist of addresses.",
    "kind": "dev",
    "methods": {
      "addMember(address)": {
        "details": "A method to add a member to the whitelist",
        "params": {
          "_member": "The member to add as a member."
        }
      },
      "constructor": {
        "details": "The contract constructor."
      },
      "isMember(address)": {
        "details": "A method to verify whether an address is a member of the whitelist",
        "params": {
          "_member": "The address to verify."
        },
        "returns": {
          "_0": "Whether the address is a member of the whitelist."
        }
      },
      "owner()": {
        "details": "Returns the address of the current owner."
      },
      "removeMember(address)": {
        "details": "A method to remove a member from the whitelist",
        "params": {
          "_member": "The member to remove as a member."
        }
      },
      "renounceOwnership()": {
        "details": "Leaves the contract without owner. It will not be possible to call `onlyOwner` functions anymore. Can only be called by the current owner. NOTE: Renouncing ownership will leave the contract without an owner, thereby removing any functionality that is only available to the owner."
      },
      "transferOwnership(address)": {
        "details": "Transfers ownership of the contract to a new account (`newOwner`). Can only be called by the current owner."
      }
    },
    "title": "Whitelist",
    "version": 1
  },
  "userdoc": {
    "kind": "user",
    "methods": {},
    "version": 1
  }
}